:020000040800F2
:1000000000050020CD0000080109000801040008D7
:1000100000000000000000000000000000000000E0
:10002000000000000000000000000000450A000879
:10003000000000000000000035090008D90B00088E
:10004000DF00000800000000DF000008DF000008FB
:10005000DF000008DF000008DF000008DF00000804
:1000600000000000DF000008DF000008DF000008DB
:10007000DF000008DF000008DF00000800000000CB
:100080005D0C0008790D000800000000DF0000088A
:10009000DF000008DF000008DF000008DF000008C4
:1000A000DF000008DF000008DF000008FD0E000888
:1000B000DF000008DF0000080348854600F050F824
:1000C00000480047E919000800050020044880475F
:1000D00004480047FEE7FEE7FEE7FEE7FEE7FEE72F
:1000E000E10B0008B900000830B50B4601460020BE
:1000F0002022012409E00D46D5409D4205D31D462E
:100100009540491B2546954040191546521E002D25
:10011000F1DC30BD70B500242546002801DA012449
:100120004042002901DA01254942FFF7DDFFAC42D8
:1001300000D04042002C00D0494270BDD2B201E054
:100140000270401C491EFBD270470022F6E710B532
:1001500013460A4604461946FFF7F0FF204610BD35
:10016000064C0125064E05E0E36807CC2B430C3C0A
:1001700098471034B442F7D3FFF7A2FF4C2600088B
:100180006C26000810B51A4800788006C00F0028B9
:1001900029D018480078C007C00F002823D116487E
:1001A0000078C007C00F00281DD113480078000751
:1001B000C00F002817D111480078022813DB0D4822
:1001C000007840084000401C0A49087000F0D2F84E
:1001D0000B48008801F0CEFB7D2000010949088012
:1001E00001200949087001F0B5F902F021F810BDAD
:1001F0000300002004000020060000202200002050
:10020000000000201A0000202400002001480249BC
:1002100008607047AAAA00000030004010B50446EC
:1002200029480078022803D1052C06DA052404E0C9
:1002300025480078012800D10024032C1CD0052C6F
:100240000ED0062C24D1FF204130204908800846DA
:10025000008800F0CFF81D48008801F08BFB31E0EA
:10026000A0201A4908800846008800F0C3F8174803
:10027000008801F07FFB25E0002014490880084633
:10028000008800F0B7F81148008801F073FB19E00E
:10029000FF2041300D49088000200D490870FF20E3
:1002A00001300C490881000108810B490881400098
:1002B00008814000088100F013F80120400307493D
:1002C000088100BF00BF10BD2200002000000020F8
:1002D0002500002020000048200400482008004895
:1002E00010B51B4840680121C9038843184948607C
:1002F00017484038006840084000154940390860F8
:100300004B22C9140920C00601F0DBFA0120C0020B
:100310000921C906886140000E4908814000088112
:10032000400008810C480078400840000A490870E5
:1003300000200A4908800A4908800A4908800A49B9
:1003400008800880094908700949086010BD00004C
:10035000402C014020040048040000203C00002004
:100360003E00002040000020420000204600002007
:100370004C00002010B51548008800F06BF91448B7
:100380000068012108431249086011484030406864
:100390000121C90308430E49403148600D480078E7
:1003A00040084000401C0B49087000200A490880A2
:1003B0000A4908800A4908800A4908800A490880D1
:1003C0000A4908700A49086010BD000000000020BA
:1003D000002C0140040000203C0000203E000020D2
:1003E0004000002042000020440000204600002081
:1003F0004C0000200149086470470000002C0140B7
:1004000000BFFEE710B500F017FB0349088000F0BD
:1004100081FF00F0C5FE10BD560000201348406A61
:10042000012108431149486200BF1048406A022177
:10043000084040080028F8D00D480E490860032005
:100440004860FF203930886000BF0A48C068094909
:10045000C96802221140490808400028F5D1064821
:100460000449086005480860704700000010024019
:100470005555000000300040AAAA0000CCCC000076
:1004800010B56C4840690121490408436949486135
:1004900008464069012189040843664948610846C5
:1004A00040690121C90408436249486110220121C1
:1004B0000920C00601F005FA102202210920C00619
:1004C00001F0FFF9102204210920C00601F0F9F91A
:1004D000102208210920C00601F0F3F9102211466C
:1004E0000920C00601F0EDF910228021524801F0E8
:1004F000E8F94B220121C9020920C00601F0E1F907
:100500004B22012109030920C00601F0DAF94B2230
:10051000FF2101310920C00601F0D3F94B2201214E
:100520008902464801F0CDF94B220121C902434816
:1005300001F0C7F94B2201210903404801F0C1F93C
:100540004B22012149033D4801F0BBF94B22012117
:1005500089033A4801F0B5F94B220121C903374814
:1005600001F0AFF94B224021344801F0AAF94B22A7
:100570008021324801F0A5F94B220121490330487E
:1005800001F09FF9042001F069FD0120C0032B490F
:1005900020310881401008814010088140100881F6
:1005A00040100881C01027490881C0000921C906F0
:1005B00088614010214988610921C906098AC80754
:1005C000C00F214909784908490001431E4A1170AA
:1005D0000921C906098A022211404908490011402F
:1005E00008461949097891430143174A11700921B6
:1005F000C906098A04221140890889001140084669
:1006000011490978914301430F4A117001204003B9
:100610000B4988610D48007840084000401C0B4998
:1006200008700B48007880218843803008490870A2
:1006300010BD0000001002400014004800040048F3
:1006400000080048200000480800002003000020A7
:100650000400002010B58AB004461D4880690121BD
:10066000C90208431A4988610222C9140920C00638
:1006700001F0F4F89B220121C9020920C00601F013
:1006800020F90520C0010890002168468183C183BC
:10069000818408A8817107A90E4801F0D1FB70215F
:1006A0006846C180012101810421418102218182AA
:1006B0000021C182FF2101310183002141830321F7
:1006C0008180049401A9034801F04EFC0AB010BDDA
:1006D00000100240002C01401FB520484069012154
:1006E000890408431D4948610846C069022108433E
:1006F0001A49C86101221021194801F0AFF88B2274
:100700001021174801F0DDF801220F21154801F0F2
:1007100095FC002168468180C18001210181002172
:1007200041810F21818101A90E4801F0F6FB0D489E
:100730000068012108430B4908600846C06802218F
:1007400008430849C86010216846017000214170C3
:100750000121817001F06EF91FBD00000010024000
:1007600000040048000400401FB51648C06910216D
:1007700008431449C86114480290002168468180EA
:100780008181C18001A9114801F05AFB01220F218A
:100790000E4801F053FC112168460170042141709C
:1007A0000121817001F046F90848C0680121084321
:1007B0000649C860084600680121084303490860EB
:1007C0001FBD000000100240E703000000100040C1
:1007D00000B587B0182101A8FFF7B7FC264880694B
:1007E0000121890308432449886101224915092010
:1007F000C00601F033F8012291020920C00601F081
:100800002DF8892203214902D00601F05AF800BFD1
:100810001948C0680121890308431749C860084680
:10082000C0680121890388431349C86000BF4B2079
:10083000C0010190002002900390049006900C20CB
:10084000059001A90D4801F039FC1B216846017093
:10085000042141700121817001F0ECF80748006823
:100860002021084305490860084600680121084323
:100870000249086007B000BD001002400038014086
:1008800010B501F09DF91C480068012108431A4980
:10089000086008460068022108404008002827D068
:1008A000112016490860002001F0C4F9002001F071
:1008B000D7F90121C904002001F0DEF90E480068D3
:1008C0000121090608430C49086000BF0A48006876
:1008D000012149060840400E0028F7D0022001F00F
:1008E000E3F900BF044840680C2108400828F9D10A
:1008F000122001F0A9F910BD0010024000200240B2
:100900000B48806880210840C00900280FD00848A3
:1009100000684902084306490860084680680321C8
:10092000C9020843024988600120C00588607047F9
:10093000001002407047000010B500F021FD334860
:1009400000784006C00F00285DD03148008800289C
:1009500059D12E480078402188432C4908706420E2
:100960002B49088007212B4800F066FD2A49C880E2
:10097000072128481C3000F05FFD274948810A46BE
:100980005189264A1288264B5A431046FFF7C2FB6C
:10099000244908602049C988224A12685143084600
:1009A0002149FFF7A1FB2149C8802148007804288C
:1009B00009D10846C0881F49884204DA022001F0A4
:1009C0004DFB012010BD1A48007802280AD11748B3
:1009D000C0887D21C900884204DA012001F03EFB75
:1009E0000120EFE71248007801280AD10F48C0889B
:1009F000AF218900884204DA002001F02FFB01209A
:100A0000E0E70020DEE70120DCE700000400002032
:100A10000A000020BA0000207800002056000020C4
:100A2000E40C00001C000020FF0F000084000020E8
:100A300023000020A40600000148408B70470000FE
:100A4000A0F7FF1F7047000010B515480088002868
:100A500025D11448007810218843124908707D2060
:100A600000010F49088010A000F0A0FA14480168A6
:100A700014A000F09BFA1748418817A000F096FADE
:100A8000144881881CA000F091FA1248C18822A065
:100A900000F08CFA0F48018927A000F087FA10BDFA
:100AA0000A000020030000200D0A536F66742056D0
:100AB000657273696F6E20312E30300D0A000000B0
:100AC0004C00002046616E2052504D203D20256490
:100AD0000D0A0000840000204144432057617465E2
:100AE000722050756D7020202020203D2025642824
:100AF0006D56290D0A00000041444320536F6C6578
:100B00006E6F69642076616C7665203D20256428CF
:100B10006D56290D0A000000414443205479706548
:100B20004320506F776572494E20203D2025642870
:100B30006D56290D0A00000041444320506F77652F
:100B400072204443323456202020203D2025642842
:100B50006D56290D0A00000011201D4908601D482E
:100B600040681C494860084640684860084640683C
:100B70007B21C9038843174948600846406805211E
:100B8000C904084313494860084600680121090662
:100B900008431049086000BF0E480068012149065B
:100BA00008400028F8D00B484068800880000949B8
:100BB000486008464068022108430649486000BF73
:100BC000044840680C2108400828F9D1704700000B
:100BD000002002400010024010B501F033FA10BDB1
:100BE00010B51B48006801210843194908600846F0
:100BF0004068184908401649486008460068164988
:100C000008401349086008460068012189048843A8
:100C10000F490860084640683F21090488430C4991
:100C200048600846C06A00090001C8620846006BB7
:100C3000FF2154318843064908630846406B400849
:100C40004000486300208860FFF786FF10BD000069
:100C5000001002400CB8FF08FFFFF6FE10B539483F
:100C6000006902210840400800286AD0364835490A
:100C7000086136480078002807D10846406B34499F
:100C800008800120314908705BE030480078012875
:100C900057D100202D4908702A48406B2D49088003
:100CA000084600882A490988884207DD29480088C3
:100CB00027490988401A2849088013E025480088F8
:100CC0002349098888420ADA214800880021C9435B
:100CD000081A2049098840181F49088002E00020AE
:100CE0001D4908801D480078401C1C4908700846B2
:100CF000007801280AD118490988194A5143084641
:100D00001849FFF707FA184908801AE013480078D5
:100D1000022816D10020114908700F490988104A8D
:100D2000514308460F49FFF7F5F9104908800E486E
:100D300000880A46128881180D48FFF7EBF90D4923
:100D4000086010BD00040040FDFF000046000020C8
:100D50003C0000203E000020400000205200002007
:100D60001027000040420F004200002044000020F5
:100D7000C02709004C00002010B552480069C00788
:100D8000C00F00287ED050484E4908614F48008867
:100D9000002804D04D480088401E4C4908804C482B
:100DA0000068002804D04A480068401E484908608E
:100DB00048480068002804D046480068401E45495D
:100DC000086045480088002804D043480088401E39
:100DD0004149088041480088002804D03F480088E5
:100DE000401E3E4908803E480068002804D03C4828
:100DF0000068401E3A49086000F0B5FD3948008897
:100E0000401C3849088008460088FF212D3188425F
:100E100056DB00203349088033480078C007C00FF4
:100E2000002815D031480078401C30490870084629
:100E30000078012803D1C0032D49886113E0002008
:100E40002A4908700120C0032949203108810AE09D
:100E500026480078012803D1C003254920310881A4
:100E6000002022490870204800788007C00F002821
:100E700003D120480078002817D01F480078401C74
:100E80001D4900E01CE0087008460078012803D1E5
:100E9000C0021749886113E000201749087001203B
:100EA000C0021349203108810AE013480078012864
:100EB00003D1C0020E492031088100200E4908707C
:100EC00010BD000000100040FEFF00000A000020DE
:100ED0000C00002010000020180000201A00002044
:100EE00028000020480000200500002050000020BD
:100EF0000004004806000020510000202648C06978
:100F0000202108404009002845D02348203080880F
:100F10002249087008460078282805D02048007823
:100F20000007C00F002836D01D48007808218843EC
:100F300008301B490870194801781A48027800786F
:100F4000401C184B1870184881541846007809281E
:100F500006DC18460078401E1349085C29281AD17F
:100F60001148407852280AD10F488078292806D1A4
:100F70000B48007810218843103009490870002080
:100F800008490870084988700870054800780821E9
:100F9000884303490870704700380140540000201E
:100FA0000300002053000020E40000200FB410B51F
:100FB00003A9044B044A029800F026F810BC08BCB0
:100FC00004B01847111600087400002030B47446AD
:100FD000641E2578641CAB4204D3635D5B00E31898
:100FE00030BC18471D46F8E702E008C8121F08C1C8
:100FF000002AFAD170477047002001E001C1121F9A
:10100000002AFBD170470000FFB58DB004460025D3
:1010100006E025280AD0109A0F999047641C6D1C91
:1010200020780028F5D1284611B0F0BD0027012115
:10103000484A009700E00743641C23780846203B99
:1010400098401042F7D120782E2817D1042007436A
:101050006078641C2A280CD10E98641C02C8009188
:101060000E900BE000990A22514330394018641C5D
:1010700000902078014630390929F3D920780028DA
:10108000D1D0642808D0692806D075281ED0109ABF
:101090000F9990476D1C5BE00A200E99019001C9E1
:1010A0000E91002802DA40422D2102E0390504D5D4
:1010B0002B216A461172012103E0F90704D0202197
:1010C000F7E70BAE0B910DE00021FAE70A200E992D
:1010D000019001C90E91F7E70199FFF705F830314A
:1010E000761E31700028F7D103A8801B20300190B4
:1010F000780701D5009801E001200090019988420D
:1011000001DD401A00E000200027009006E002A860
:10111000109AC05D0F9990476D1C7F1C0B988742F9
:10112000F5DB04E0109A30200F9990476D1C009970
:10113000481E00900029F5DC05E03078109A761CF6
:101140000F9990476D1C0199481E01900029F4DC0D
:10115000641C65E70928010030B501460020002223
:1011600000238C680125ED072C438C6000BF8C6840
:10117000E30FDB07521C0F242403A24201D0002BF3
:10118000F5D18C68E40FE407002C01D1086C00E075
:10119000002030BD836A0B438362426170470000C8
:1011A00000B587B03B4840690321490408433949E9
:1011B0004861084680694915084336498861C0225C
:1011C000E0210920C00600F07CFBC0220321324848
:1011D00000F077FB314800F079F801A800F064F8DE
:1011E00000200190012069460872002003900590BC
:1011F000069001A9294800F009F907222021274873
:10120000FFF7C8FF072240212448FFF7C3FF07224A
:1012100080212248FFF7BEFF0722FF2101311F482E
:10122000FFF7B8FF0722012149021C48FFF7B2FF70
:101230000722012149041948FFF7ACFF18488068CC
:10124000012189050843164988601448FFF784FF87
:101250000221124800F08EF81248806801210843EC
:10126000104988600D48C068012108430B49C860D7
:1012700008468068012108430849886000BF074884
:101280000068C007C00F0028F9D0044800F014F827
:1012900007B000BD001002400004004800240140D7
:1012A00000270140000002400021016001718160BF
:1012B000C160016141617047816810221143816002
:1012C0008168042211438160704700000E49884202
:1012D00018D10E49C968421511430C4AD160114614
:1012E000C96842159143094AD160002101604160FB
:1012F0008160C16001614161054901620021816233
:101300000164416070470000002401400010024069
:101310000000FF0F00B58BB012484069012108435F
:1013200010494861104800F0C7F810480090104874
:10133000019000200290062003900020049080205D
:101340000590400006908000079020200890000241
:10135000099000200A906946034800F0CDF80BB0D0
:1013600000BD00000010024008000240402401407F
:10137000EE000020C26802239A430A43C26070470D
:101380001C480068022108404008002830D0022094
:101390001849486000201849087013E01648007882
:1013A00040001649095A144800780E225043144A46
:1013B0008018144A1278520081520F480078401C5D
:1013C0000D4908700C4800780628E7DB0D480078C6
:1013D000401C0C49087008460078072808DB0020EC
:1013E0000870094800784021884340300649087059
:1013F000704700000000024059000020EE0000206D
:1014000090000020580000200400002010B50B7947
:101410005B030A681A438B681A43CB681A430B694B
:101420001A434B691A43C368024C23401A43C260F3
:1014300010BD000003D2FFFFF8B504460E4600279A
:10144000002500200090032E00DAF8BD00271BE0E5
:10145000002514E06800215A681C4000205A81428F
:101460000BDD6800205A0090681C4000205A69007B
:101470006052691C490000986052681CC5B2701E19
:10148000A842E7DC781CC7B2B742E1DB002000903D
:10149000012707E07800215A0098081880B20090D0
:1014A000781CC7B2B01EB842F4DAB11E0098FEF73D
:1014B00031FE80B2C9E7000010B5044620680C492F
:1014C00008402060002020606060A060E060094962
:1014D000611A084608380521FEF706FE01460F206E
:1014E00088400449496808430249486010BD00002B
:1014F000FEFF00000000024010B50022124C0B68F5
:10150000A34203D0114C0B68A34202D103231B0357
:101510004B6202680E4B1A400C6A8B6823430C69BD
:1015200023434C6923438C692343CC6923434C6A8E
:1015300023438C6A23431A430260CB6843600B68E1
:1015400083604B68C36010BD285400402858004099
:101550000F80FFFF10B527480078C007C00F002894
:101560002DD025480078C007C00F002805D122489B
:1015700000780007C00F002821D01E4800784008DE
:1015800040001C4908701D480078202188431B49F1
:10159000087000201A490870FF200130194908819D
:1015A0001448007804218843124908700020164925
:1015B00008800120000313490881FEF791FE1348BB
:1015C0000078022815DAFEF78BFEFF2001300D4966
:1015D00008810848007804218843064908700020E3
:1015E00009490880012000030649088100200449B8
:1015F000087010BD04000020060000200300002039
:1016000024000020200000481A00002022000020B2
:10161000C2B2064B1A8100BF044A203AD269802325
:101620001A40D209002AF7D0704700002038014044
:1016300010B57B4800784006C00F00287CD0784861
:101640000078402188437649087007217548FFF7E4
:10165000F3FE75490880072172480E30FFF7ECFE53
:101660007149488007216F481C30FFF7E5FE6E493D
:10167000888007216B482A30FFF7DEFE6A49C88060
:10168000072168483830FFF7D7FE674908810721EE
:1016900064484630FFF7D0FE634948810A465189C5
:1016A000624A1288624B5A431046FEF733FD614985
:1016B00008605D4909885F4A1268514308465E49DF
:1016C000FEF712FD5D49088057494988594A12685A
:1016D000514308465849FEF707FD5849488052498A
:1016E0008988544A1268514308465349FEF7FCFC66
:1016F000524988804C49C9884E4A1268514308466D
:101700004D49FEF7F1FC4D49C88047490989494ACE
:101710001268514308464849FEF7E6FC47490881EC
:10172000084600884649884207DB4648007840085A
:1017300040004449087007E071E0424800784008E2
:101740004000401C3F4908703C48C088AF21C90098
:10175000884203DD03203C4908700CE03748C0880C
:10176000AF218900884203DD02203749087002E07A
:1017700001203549087031488088CA2803DB0120E0
:101780003249087002E00020304908702B48408838
:101790000A2807DB29484088352803DC01202C492A
:1017A00008702EE02548408835280DDB2348408806
:1017B000872809DC0220264908702648007840085E
:1017C0004000244908701CE01C48408887280DDB35
:1017D0001A484088BB2809DC03201D4908701D48B1
:1017E0000078400840001B4908700AE01348408810
:1017F000BB2803DB04201649087002E000201449CE
:10180000087015480078202188432030124908705C
:10181000084600784021884340300F49087010BDC9
:1018200004000020900000207800002056000020D6
:10183000E40C00001C000020FF0F000084000020CA
:10184000DC0500000600002022000020210000200E
:101850002000002005000020030000207CB5034686
:1018600000200024009401941C6A00945C6A019496
:1018700020E0CC07E40F002C19D0C410A4006D4662
:101880002D594407E60E0724B440A543C410A40014
:101890006E463551C410A4006D462C594507EE0E16
:1018A0001546B5402C43C510AD006E467451441C1E
:1018B000E0B249100029DCD1009C1C62019D5D62F0
:1018C0007CBDF0B586B00023002400250395049567
:1018D0000595C0251540AD090295302515402D0907
:1018E00001950C2515400095009D0C2D03D1858890
:1018F0000D43858005E0009D082D02D185888D432C
:1019000085801DE0CD07ED0F002D16D05E0003256C
:10191000B5402C439507AD0F5E00B540039E35439F
:1019200003955F00029DBD40049E2E4304965F0018
:10193000019DBD40059E2E4305965D1CEBB24910EE
:101940000029DFD18568A543039E3543856005687E
:10195000A543049E35430560C568A543059E3543F0
:10196000C56006B0F0BD10B500F0A8F900F00CFCA1
:1019700010BD000000281ED0A0280FD00146FF395E
:101980004139002922D101210903164A91614900F8
:10199000144A203211814900118121E001210903FB
:1019A000104A2032118149000E4A916149000D4AC6
:1019B0002032118114E0012109030A4A20321181E9
:1019C000490011814900074A916109E00121090399
:1019D000044A20321181490011814900118100BF60
:1019E00000BF704700040048FEF718FDFEF748FFEF
:1019F000FEF746FDFEF7B8FEFEF7EAFEFEF76CFEC8
:101A0000FEF700FD64200A49088001E0FEF7FEFBB6
:101A1000FEF792FF0028F9D109E0FEF7F7FBFFF788
:101A2000AFFCFFF705FEFEF7ADFBFFF70DF8F4E79F
:101A30000A0000208178002925D0174903221202CC
:101A40008918027892109200895802789207D30E72
:101A5000FF229A40914342789207120E03789B0727
:101A6000DB0E9A4011430C4A03231B02D218037861
:101A70009B109B00D1500178CA06D20E01219140E3
:101A8000054A116007E00178CA06D20E0121914093
:101A9000014A80321160704700E100E0FEB5044663
:101AA0000025002002900027002601900090404869
:101AB00040680C2108400546002D04D0042D05D0B7
:101AC000082D2BD105E03B4820602AE039482060F2
:101AD00027E0374840680F2189040840064634480B
:101AE00040680321C90308400190B00C861C01988E
:101AF000002804D130463049484300900BE02C4880
:101B0000C06A0007000F401C02902A480299FEF7A5
:101B1000EBFA704300900098206002E025482060B6
:101B200000BF00BF22484068F021084005462D094B
:101B30002248475D2068F84060601D4840680721E2
:101B40000902084005462D0A1C48475D6068F840B8
:101B5000A0601748006B10210840102802D01548DB
:101B6000E06001E02068E0601148006B8007800FB2
:101B7000002802D1A068206119E00D48006B8007A1
:101B8000800F012802D12068206110E00848006B16
:101B90008007800F022802D18003206107E00448FB
:101BA000006B8007800F032801D102482061FEBD31
:101BB0000010024000127A0000093D00620000207F
:101BC0001948006801210843174908600846406821
:101BD00016490840144948600846006814490840FE
:101BE00011490860084600680121890488430E49AC
:101BF0000860084640687F21C90388430A49486055
:101C00000846C06A00090001C8620846006B13213B
:101C10008843054908630846406B40084000486314
:101C20000020886070470000001002400CB8FF00E0
:101C3000FFFFF6FE03494968F02291430143014A40
:101C4000516070470010024004490968F82291432E
:101C5000C2001143014A11607047000000100240A9
:101C6000044949680722120291430143014A516025
:101C700070470000001002400A4AD26A120912019D
:101C800003071B0F1A43074BDA621A4652687B237D
:101C9000DB039A430323DB0303400B431A43014B4B
:101CA0005A6070470010024003494968890889005A
:101CB0000143014A516070470010024010B55C4872
:101CC0000078401C5A490870084600780A2877DBDB
:101CD000002008700921C906098AC807C00F5549A4
:101CE0000978490849000143524A11700921C9067F
:101CF000098A0222114049084900114008464D490D
:101D00000978914301434B4A11700921C906098A98
:101D10000422114089088900114008464549097884
:101D200091430143434A1170434800784007400FF4
:101D3000114609784907490F884274D03F48007816
:101D4000401C3E490870084600780A286EDB1046A1
:101D500000784007400F072833D108460078322822
:101D600064DB0020087034480078400840001146C9
:101D70000978C907C90F08432F4908700846007839
:101D800002218843114609788907C90F49000222B8
:101D90001140084328490870084600780421884308
:101DA000244909784907C90F8900042211400843D2
:101DB000214908701F4909784807400FFEF72EFA9D
:101DC00034E000201D4908701B480078400840009E
:101DD00018490978C907C90F084317490870084608
:101DE000007802218843134909788907C90F4900FF
:101DF0000222114008431049087008460078042167
:101E000088430C4909784907C90F89000422114009
:101E1000084309490870074909784807400FFEF749
:101E2000FDF903E0FFE700200449087010BD000041
:101E300035000020070000200800002034000020AA
:101E40001A4A904206D001229207904202D0184AC4
:101E5000904205D1026870239A434B881A4302606E
:101E6000144A904206D0026803231B029A430B894E
:101E70001A4302604A68C2620A8882620B4A904230
:101E800008D00D4A904205D00C4A904202D00C4A2C
:101E9000904208D14A88102A03D18A7A521C0263E0
:101EA00001E08A7A0263012242617047002C0140FE
:101EB0000004004000100040004001400044014088
:101EC00000480140FFB5002300244B10CC07E40F6D
:101ED000056A8F000126BE40B54305629E00054697
:101EE0001835AD59E700F326BE40B543099E3601CB
:101EF000039F3E43E700BE4035439E000746183728
:101F0000BD51056A8F000A26BE40B543012616431F
:101F10008F00BE4035430562FFBD38B505460C460F
:101F200020890090A388628821782846FFF7CAFF9D
:101F3000E2882178284600F001F838BD30B54B1012
:101F40009C00034618331B59CC07250F0C24AC40CA
:101F5000A343CC07250F1446AC4023434C10A500E7
:101F600004461834635130BD30B50A460021538809
:101F7000602B08D1036810242340102B03D1836AFF
:101F8000002B00D030BD1178036A8D000124AC40D5
:101F9000A34303624B109C00034618331B59CC0724
:101FA000250F7324AC40A3435488CD072D0FAC40BC
:101FB00023434C10A500044618346351036A8D0076
:101FC0000324AC40A343148A95882C438D00AC4075
:101FD00023430362154B984208D0154B984205D015
:101FE000144B984202D0144B984218D1036A8D00CA
:101FF0000C24AC40A343548AD5882C438D00AC40BC
:102000002343036243684D0003242402AC40A343EE
:10201000948AD58A2C434D00AC40234343608D0005
:1020200003463433D4685C5100BFABE7002C014059
:10203000004001400044014000480140816242618B
:102040007047000004480068002804D00248006877
:10205000401E0149086070472C000020012804D070
:1020600002280BD004281ED113E08021114A91616F
:10207000402191610121104A117018E080210D4A20
:10208000916140210B4A2032118102210A4A1170CC
:102090000DE08021074A2032118140211181042165
:1020A000054A117003E00021034A117000BF00BF10
:1020B000704700000004004823000020F0B587B0FE
:1020C00004460D46002600270020069020684008A0
:1020D000400020606068032109038843A968084321
:1020E0006060E96868680843296908432168234AF1
:1020F000114008432060A0680321090288436969F0
:102100000843A06001A8FFF7C9FC1D48844201D123
:10211000059F00E0039F20680121C90308400028B3
:102120000AD078002968FDF7DFFF064678002968A5
:10213000FDF7DAFF069109E038462968FDF7D4FF7C
:10214000064638462968FDF7CFFF06912868410802
:102150000698814200D8761C20680121C9030840F6
:10216000002808D03007400F069030460549084047
:10217000069908430646A68107B0F0BDF3E9FFFFC4
:1021800000380140F0FF00000920C006008A10213D
:102190000840000900281ED123480078C006C00F5F
:1021A000002818D021480078401C204908700846B3
:1021B0000078322836DD002008700920C006008A29
:1021C00010210840000900282CD1174800788843C6
:1021D0001549087026E00920C006008A1021084031
:1021E000000900281ED010480078C006C00F002843
:1021F00018D10E480078401C0C4908700846007839
:1022000032280FDD002008700920C006008A102146
:1022100008400009002805D00348007888431030A2
:1022200001490870704700000400002039000020B8
:1022300000B5F7480078C007C00F00287ED0F548E9
:1022400000780300FEF7C2FE05041B46F4F2F1001D
:102250000020F1490860F1490880ED480078042128
:102260008843EB490870EE480078012806D1ED4814
:102270000068002802D10120E6490870C6E1E7485D
:102280000088002825D1E6480078002803D1E648D8
:10229000E149086002E0E448DF4908600120E049C4
:1022A000087000020921C9068861D9480078042114
:1022B0008843001DD6490870DC48007840218843D7
:1022C000DA4908707D20C000D44908800220D14935
:1022D00008709BE1D1480088002879D1FF20F530B3
:1022E000CE490880D14800784006C00F002877D03A
:1022F000C74800784007C00F002871D0CB4800784D
:1023000040218843C9490870C9480078012802D093
:1023100004285ED130E00020C6490870C648007825
:10232000401CC549087008460078062823DB0020B9
:102330000870FF200130C149088100E067E1B4481E
:10234000007804218843B2490870B3480068BC494A
:102350000860084600687D21090188420BD90120E8
:1023600000030921C90688610320AA490870FF20DB
:10237000F530AA49088032E00020AF490870AD4826
:102380000078401CAB490870084600780A281EDB1C
:1023900000200870FF200130A84908810001088151
:1023A00000209D4908609A48007804218843984994
:1023B0000870A448007802218843801CA149087055
:1023C000002098490860964908709249087006E014
:1023D00006E00020984908709649087000BF00BFC9
:1023E0008D480068002805D089480078C006C00FD5
:1023F000002819D0FF200130904908810001088190
:10240000834800780421884381490870002083496B
:102410000880814908607F49087081480078002859
:1024200002D089487F490860F0E0EEE04FE0FFE726
:102430007A48008800281CD1FF2001300921C906F4
:1024400088617348007804218843001D7049087032
:1024500076480078402188437449087078480068BD
:102460006D49086004206B4908707D20C0006B49ED
:10247000088069480068002805D065480078C006D3
:10248000C00F002822D0FF2001306C490881674826
:10249000007840218843654908705D480078042130
:1024A00088435B49087000205B4908605B490880ED
:1024B00001200003614908810020564908705848EE
:1024C0000078002802D06048564908609EE05348D2
:1024D0000088002871D1FF20F5305049088053480A
:1024E00000784006C00F002867D0494800784007B0
:1024F000C00F002861D04D480078402188434B49E7
:1025000008704B480078012802D004284ED128E0FA
:1025100000204849087048480078401C4649087027
:102520000846007806281BDB00200870FF200130D9
:1025300042490881364800780421884334490870AC
:10254000012000033D4908813E48007840084000D2
:10255000401C3C4908700020314908702D49087022
:102560002AE000203449087032480078401C314984
:102570000870084600780A2817DBFF2001302F4931
:1025800008812348007804218843214908702D4898
:10259000007802218843801C2A49087000201D49C8
:1025A0000870204908601E49087005E00020224993
:1025B00008702049087000BF00BF17480068002855
:1025C00005D013480078C006C00F00281CD0FF209B
:1025D00001301A4908810E480078042188430C49CB
:1025E000087000200C4908600C4908800120000395
:1025F000124908810020074908700948007800281E
:1026000002D011480749086000E000BF00BF00BDCC
:1026100004000020240000200C0000201A000020EC
:1026200025000020280000201027000003000020C3
:1026300020000020610000206000002020000048F1
:102640005C00002005000020C02709006C2600085F
:102650000000002078000000E80F0008E4260008D1
:102660007800002088040000F80F000840010000F6
:10267000000000000000000000000000000000005A
:102680000000000000000000000000000000010049
:10269000000000000000000000000000000000FF3B
:1026A000000000000000000000000000000000002A
:1026B000000000000000000000000000000000001A
:1026C000000000000000000000000000000000000A
:1026D00000000102030401020304060708090000C8
:0426E00000000000F6
:04000005080000B936
:00000001FF
