:020000040800F2
:1000000010050020CD000008090C00082907000891
:1000100000000000000000000000000000000000E0
:10002000000000000000000000000000510D00086A
:1000300000000000000000003D0C0008150F000843
:10004000DF00000800000000DF000008DF000008FB
:10005000DF000008DF000008DF000008DF00000804
:1000600000000000DF000008DF000008DF000008DB
:10007000DF000008DF000008DF00000800000000CB
:10008000990F0008B510000800000000DF0000080C
:10009000DF000008DF000008DF000008DF000008C4
:1000A000DF000008DF000008DF000008C9120008B8
:1000B000DF000008DF0000080348854600F050F824
:1000C00000480047D51D000810050020044880475F
:1000D00004480047FEE7FEE7FEE7FEE7FEE7FEE72F
:1000E0001D0F0008B900000830B50B46014600207E
:1000F0002022012409E00D46D5409D4205D31D462E
:100100009540491B2546954040191546521E002D25
:10011000F1DC30BD70B500242546002801DA012449
:100120004042002901DA01254942FFF7DDFFAC42D8
:1001300000D04042002C00D0494270BDD2B201E054
:100140000270401C491EFBD270470022F6E710B532
:1001500013460A4604461946FFF7F0FF204610BD35
:10016000064C0125064E05E0E36807CC2B430C3C0A
:1001700098471034B442F7D3FFF7A2FFD02E0008FF
:10018000F02E000810B5244800788006C00F002823
:100190003DD022480078C007C00F002837D1204842
:1001A0000078C007C00F002831D11D4800784007F3
:1001B000C00F00282BD11B480078022827DB1748E6
:1001C000007840084000401C1449087000F066FAAE
:1001D0001548008801F0C4FD7D2000011349088006
:1001E000134800788007C00F00280DD01048007811
:1001F000022188430E49087000200E4908700E48FD
:1002000000680E49086002E001200A49087001F008
:1002100087FB02F089FA10BD0300002004000020D3
:100220000700002026000020000000201E00002003
:100230000500002028000020300000202C000020B5
:100240000148024908607047AAAA00000030004037
:1002500010B50446DE480078032803D1052C0EDAD9
:1002600005240CE0DA480078022803D1062C06DACF
:10027000062404E0D6480078012800D10024062C8A
:1002800003D0052C01D0032C07D1D24800784006BA
:10029000C00F002801D000F001FA032C77D0052C04
:1002A00077D0062C02D0072C70D153E1FF209A3072
:1002B000C94908800846008800F030FAC64800881E
:1002C00001F04EFDC348007840218843C1490870C1
:1002D000C24800788007C00F002857D0BF48007878
:1002E00002218843BD490870BA480078C009002837
:1002F00029D00020BA4908700120BA490870B548D1
:10030000007840084000B349087008460078802112
:100310008843B04908700020B3490870AD480078A0
:1003200004218843AB4908700020B0490860B048F8
:100330000078802188438030AD490870FF20F53077
:10034000AC49088022E0A3480078C007C00F00280D
:100350001CD0A0480078400840009E490870012049
:10036000A0490870A2480078802188438030A049C5
:10037000087000209D490860964800780421884351
:1003800094490870FF20F5309A4908801EE171E019
:10039000FFE7FF202130904908800846008800F0E0
:1003A000BDF98D48008801F0DBFC8A4800784021C7
:1003B000884388490870894800788007C00F002862
:1003C00057D08648007802218843844908708148C4
:1003D0000078C009002829D0002081490870012038
:1003E000804908707B4800784008400079490870CF
:1003F00008460078802188437649087000207A49B1
:1004000008707448007804218843724908700020FD
:1004100076490860764800788021884380307449A6
:100420000870FF20F5307349088022E069480078A1
:10043000C007C00F00281CD0664800784008400064
:100440006449087001206749087069480078802174
:1004500088438030664908700020644908605D4820
:100460000078042188435B490870FF20F53061491A
:100470000880ABE08020584908800846008800F0DA
:100480004DF95548008801F06BFC52480078402136
:10049000884350490870514800788007C00F0028F1
:1004A00057D04E480078022188434C49087049488B
:1004B0000078C009002829D000204949087001208F
:1004C0004849087043480078400840004149087096
:1004D00008460078802188433E4908700020424940
:1004E00008703C480078042188433A49087000208D
:1004F0003E4908603E4800788021884380303C496E
:100500000870FF20F5303B49088022E03148007830
:10051000C007C00F00281CD02E48007840084000BB
:100520002C49087001202F4908703148007880213B
:10053000884380302E49087000202C4908602548E7
:1005400000780421884323490870FF20F5302949A9
:1005500008803BE01F4800784021884340301D4917
:100560000870FF209A301C49088023480078042135
:100570008843214908700120C00320490881C01028
:100580001F4908811D4908814000088140000881F9
:1005900000F03AF811480078C007C00F002814D0C6
:1005A0000E480078400840000C490870094800785F
:1005B00040084000074908700846007880218843B9
:1005C0000449087000200F49088000BF00BF10BD1B
:1005D000260000200500002000000020060000206A
:1005E0003600002028000020290000202C000020D8
:1005F000030000201E00002004000020200400480A
:10060000200000483400002010B51B48406801213C
:10061000C9038843184948601748403800684008B3
:1006200040001549403908604B22C9140920C00612
:1006300001F03DFB0120C0020921C906886140008C
:100640000E49088140000881400008810C4800786C
:10065000400840000A49087000200A4908800A49F9
:1006600008800A4908800A490880088009490870FA
:100670000949086010BD0000402C014020040048DA
:10068000040000204C0000204E00002050000020FC
:1006900052000020560000205C00002010B51548D4
:1006A000008800F05BF914480068012108431249F2
:1006B00008601148403040680121C90308430E49D1
:1006C000403148600D48007840084000401C0B490C
:1006D000087000200A4908800A4908800A490880F1
:1006E0000A4908800A4908800A4908700A490860CE
:1006F00010BD000000000020002C0140040000207C
:100700004C0000204E00002050000020520000202D
:1007100054000020560000205C00002001490864BD
:1007200070470000002C014000BFFEE710B500F04C
:1007300009FB0349088000F0D3FF00F017FF10BD4C
:10074000680000201348406A0121084311494862AB
:1007500000BF1048406A0221084040080028F8D035
:100760000D480E49086003204860FF20393088603A
:1007700000BF0A48C0680949C968022211404908F7
:1007800008400028F5D1064804490860054808607B
:100790007047000000100240555500000030004036
:1007A000AAAA0000CCCC000010B565484069012120
:1007B00049040843624948610846406901218904A7
:1007C00008435F494861084640690121C90408435C
:1007D0005B494861102201210920C00601F067FA37
:1007E000102202210920C00601F061FA1022042122
:1007F0000920C00601F05BFA102208210920C0067A
:1008000001F055FA102211460920C00601F04FFAF6
:10081000102280214B4801F04AFA4B220121C902E3
:100820000920C00601F043FA4B22012109030920E7
:10083000C00601F03CFA4B2201218902424801F036
:1008400036FA4B220121C9023F4801F030FA4B220F
:10085000012109033C4801F02AFA4B2201214903F6
:10086000394801F024FA4B2201218903364801F06E
:100870001EFA4B220121C903334801F018FA4B221A
:100880004021314801F013FA4B2280212E4801F01B
:100890000EFA4B22012149032C4801F008FA0420EA
:1008A00001F054FE01208002274920310881000117
:1008B0000881401008814010088140100881000123
:1008C000088100110921C9068861098AC807C00F7B
:1008D0001F4909784908490001431D4A117009213F
:1008E000C906098A022211404908490011400846F8
:1008F0001749097891430143154A11700921C90626
:10090000098A0422114089088900114008461049CB
:100910000978914301430E4A1170012040030B49AD
:1009200088610C48007840084000401C0949087064
:10093000094800788021884380300749087010BD3D
:10094000001002400014004800040048000800485D
:1009500009000020030000200400002010B58AB028
:1009600004461D4880690121C90208431A4988616B
:100970000222C9140920C00601F066F99B22012158
:10098000C9020920C00601F092F90520C0010890B3
:10099000002168468183C183818408A8817107A9E9
:1009A0000E4801F0C5FC70216846C180012101811B
:1009B00004214181022181820021C182FF21013174
:1009C00001830021418303218180049401A903480C
:1009D00001F042FD0AB010BD00100240002C0140A1
:1009E0001FB5204840690121890408431D49486119
:1009F0000846C069022108431A49C8610122102132
:100A0000194801F021F98B221021174801F04FF904
:100A100001220F21154801F089FD002168468180DF
:100A2000C18001210181002141810F21818101A922
:100A30000E4801F0EAFC0D480068012108430B490B
:100A400008600846C068022108430849C8601021B0
:100A500068460170002141700121817001F01AFA8D
:100A60001FBD0000001002400004004800040040C8
:100A70001FB51648C069102108431449C8611448BD
:100A800002900021684681808181C18001A91148BE
:100A900001F04EFC01220F210E4801F047FD11210B
:100AA00068460170042141700121817001F0F2F962
:100AB0000848C068012108430649C8600846006824
:100AC00001210843034908601FBD000000100240D7
:100AD000E70300000010004000B587B0182101A80E
:100AE000FFF733FB26488069012189030843244925
:100AF0008861012249150920C00601F0A5F80122EC
:100B000091020920C00601F09FF8892203214902C1
:100B1000D00601F0CCF800BF1948C0680121890354
:100B200008431749C8600846C06801218903884303
:100B30001349C86000BF4B20C00101900020029003
:100B40000390049006900C20059001A90D4801F037
:100B50002DFD1B2168460170042141700121817027
:100B600001F098F90748006820210843054908600A
:100B700008460068012108430249086007B000BD2B
:100B8000001002400038014010B501F049FA1C483D
:100B90000068012108431A490860084600680221DC
:100BA00008404008002827D011201649086000207E
:100BB00001F070FA002001F083FA0121C90400203D
:100BC00001F08AFA0E4800680121090608430C4921
:100BD000086000BF0A480068012149060840400E2D
:100BE0000028F7D0022001F08FFA00BF04484068C7
:100BF0000C2108400828F9D1122001F055FA10BD47
:100C000000100240002002400B488068802108400C
:100C1000C00900280FD00848006849020843064967
:100C20000860084680680321C902084302498860B9
:100C30000120C00588607047001002407047000026
:100C400010B500F083FD334800784006C00F00283F
:100C50005DD031480088002859D12E4800784021C5
:100C600088432C490870FF20F5302B490880072164
:100C70002A4800F0C7FD2A49C880072127481C30B0
:100C800000F0C0FD264948810A465189254A12884C
:100C9000254B5A431046FFF73DFA24490860204986
:100CA000C988224A1268514308462149FFF71CFAB5
:100CB0002049C88020480078042809D10846C08807
:100CC0001E49884204DA022001F040FC012010BDD8
:100CD00019480078022809D11648C0881849884266
:100CE00004DA012001F032FC0120F0E7124800781C
:100CF00001280AD10F48C088AF218900884204DA50
:100D0000002001F023FC0120E1E70020DFE70120C3
:100D1000DDE70000040000200A000020CA000020D7
:100D20008800002068000020E40C00002000002063
:100D3000FF0F00009400002027000020A406000000
:100D4000B60300000148408B70470000A0F7FF1F6A
:100D50007047000010B517480078C006C00F002883
:100D600026D014480078102188431249087012A038
:100D700000F002FB1948016819A000F0FDFA1C48B8
:100D800001881CA000F0F8FA1948418821A000F061
:100D9000F3FA1748818827A000F0EEFA1448C188BA
:100DA0002CA000F0E9FA1248018932A000F0E4FA20
:100DB00010BD0000030000200D0A323032362E3004
:100DC000392E32392C536F66742056657273696FF1
:100DD0006E2056302E31320D0A0000005C000020DB
:100DE00046616E2052504D203D2025640D0A0000C2
:100DF0009400002041444320436F7665725F566142
:100E00006C7565202020203D202564286D56290D15
:100E10000A000000414443205761746572205075F8
:100E20006D7020202020203D202564286D56290D3E
:100E30000A00000041444320536F6C656E6F696483
:100E40002076616C7665203D202564286D56290D3D
:100E50000A00000041444320547970654320506FDC
:100E6000776572494E20203D202564286D56290D56
:100E70000A00000041444320506F776572204443CC
:100E8000323456202020203D202564286D56290D1F
:100E90000A00000011201D4908601D4840681C49D7
:100EA0004860084640684860084640687B21C9039E
:100EB000884317494860084640680521C90408432B
:100EC0001349486008460068012109060843104993
:100ED000086000BF0E48006801214906084000284C
:100EE000F8D00B48406880088000094948600846EF
:100EF0004068022108430649486000BF0448406832
:100F00000C2108400828F9D1704700000020024059
:100F10000010024010B501F00DFB10BD10B51B48CC
:100F200000680121084319490860084640681849CB
:100F300008401649486008460068164908401349A9
:100F40000860084600680121890488430F49086049
:100F5000084640683F21090488430C494860084618
:100F6000C06A00090001C8620846006BFF215431C5
:100F70008843064908630846406B400840004863C0
:100F800000208860FFF786FF10BD000000100240BF
:100F90000CB8FF08FFFFF6FE10B5394800690221C2
:100FA0000840400800286AD036483549086136486C
:100FB0000078002807D10846406B3449088001209A
:100FC000314908705BE030480078012857D1002093
:100FD0002D4908702A48406B2D4908800846008832
:100FE0002A490988884207DD294800882749098855
:100FF000401A2849088013E02548008823490988B9
:1010000088420ADA214800880021C943081A204989
:10101000098840181F49088002E000201D49088007
:101020001D480078401C1C490870084600780128BB
:101030000AD118490988194A514308461849FFF747
:1010400069F8184908801AE013480078022816D178
:101050000020114908700F490988104A5143084679
:101060000F49FFF757F8104908800E4800880A46D4
:10107000128881180D48FFF74DF80D49086010BD22
:1010800000040040FDFF0000560000204C0000203E
:101090004E000020500000206500002010270000B6
:1010A00040420F005200002054000020C0270900D9
:1010B0005C00002010B574480069C007C00F00280C
:1010C00074D072487049086171480088002804D0C3
:1010D0006F480088401E6E4908806E4800680028EE
:1010E00004D06C480068401E6A4908606A4800885D
:1010F000002804D068480088401E67490880674877
:1011000000784006C00F00281AD165480068002802
:1011100004D063480068401E614908606148008847
:10112000002804D05F480088401E5E4908805E4861
:101130000068002804D05C480068401E5A490860D6
:1011400000F007FE59480088401C584908800846AE
:101150000088FF212D31884228DB00205349088078
:101160004E4800784006C00F002809D0504800883B
:10117000002808D04E480088401E4D49088002E0F3
:1011800032204B49088045480078C007C00F00282E
:1011900016D048480078401C464908700846007838
:1011A000012804D180024449886114E06BE00020EA
:1011B00040490870012080023F49203108810AE03F
:1011C0003C480078012803D180023B492031088146
:1011D00000203849087031480078C007C00F002847
:1011E0001FD136480078C006C00F002819D03448F7
:1011F0000078401C3249087008460078022803D164
:1012000040022D49886117E02D480078042813D149
:1012100000202B49087001208002274920310881D5
:101220000AE027480078022803D1400222492031F1
:10123000088100202249087020480078C007C00FAC
:10124000002815D01F480078401C1E490870084629
:101250000078012803D1C0021749886113E00020FB
:10126000184908700120C0021349203108810AE0A2
:1012700014480078012803D1C0020F4920310881A9
:1012800000201049087010BD00100040FEFF000053
:101290000A000020140000201C000020050000208F
:1012A0002C0000201E0000200C0000205800002010
:1012B00034000020600000200004004807000020E7
:1012C00062000020610000202648C06920210840FB
:1012D0004009002845D023482030808822490870E2
:1012E00008460078282805D0204800780007C00F5D
:1012F000002836D01D4800780821884308301B4953
:101300000870194801781A4802780078401C184B78
:1013100018701848815418460078092806DC1846C9
:101320000078401E1349085C29281AD111484078DA
:1013300052280AD10F488078292806D10B48007816
:1013400010218843103009490870002008490870AE
:1013500008498870087005480078082188430349C7
:10136000087070470038014067000020030000202B
:1013700066000020F40000200FB410B503A9044B50
:10138000044A029800F026F810BC08BC04B01847C4
:10139000111A00088400002030B47446641E2578B9
:1013A000641CAB4204D3635D5B00E31830BC184798
:1013B0001D46F8E702E008C8121F08C1002AFAD14A
:1013C00070477047002001E001C1121F002AFBD1C5
:1013D00070470000FFB58DB00446002506E02528C3
:1013E0000AD0109A0F999047641C6D1C2078002831
:1013F000F5D1284611B0F0BD00270121484A0097D9
:1014000000E00743641C23780846203B98401042C4
:10141000F7D120782E2817D1042007436078641C68
:101420002A280CD10E98641C02C800910E900BE083
:1014300000990A22514330394018641C00902078EA
:10144000014630390929F3D920780028D1D0642801
:1014500008D0692806D075281ED0109A0F99904799
:101460006D1C5BE00A200E99019001C90E910028C5
:1014700002DA40422D2102E0390504D52B216A46CB
:101480001172012103E0F90704D02021F7E70BAE28
:101490000B910DE00021FAE70A200E99019001C995
:1014A0000E91F7E70199FEF71FFE3031761E31707D
:1014B0000028F7D103A8801B20300190780701D5C0
:1014C000009801E0012000900199884201DD401A56
:1014D00000E000200027009006E002A8109AC05DFE
:1014E0000F9990476D1C7F1C0B988742F5DB04E039
:1014F000109A30200F9990476D1C0099481E00905B
:101500000029F5DC05E03078109A761C0F99904799
:101510006D1C0199481E01900029F4DC641C65E7EC
:101520000928010030B501460020002200238C6804
:101530000125ED072C438C6000BF8C68E30FDB07AF
:10154000521C0F242403A24201D0002BF5D18C6839
:10155000E40FE407002C01D1086C00E0002030BD4E
:10156000836A0B43836242617047000000B587B015
:101570003B4840690321490408433949486108460A
:1015800080694915084336498861C022E021092055
:10159000C00600F08CFBC0220321324800F087FB1C
:1015A000314800F079F801A800F064F800200190BB
:1015B000012069460872002003900590069001A959
:1015C000294800F009F9072220212748FFF7C8FF22
:1015D000072240212448FFF7C3FF07228021224829
:1015E000FFF7BEFF0722FF2101311F48FFF7B8FFB9
:1015F0000722012149021C48FFF7B2FF07220121FF
:1016000049041948FFF7ACFF184880680121890593
:101610000843164988601448FFF784FF02211248E6
:1016200000F08EF812488068012108431049886054
:101630000D48C068012108430B49C860084680680E
:10164000012108430849886000BF07480068C007B7
:10165000C00F0028F9D0044800F014F807B000BD0E
:10166000001002400004004800240140002701400F
:10167000000002400021016001718160C1600161D0
:1016800041617047816810221143816081680422A2
:1016900011438160704700000E49884218D10E49FD
:1016A000C968421511430C4AD1601146C9684215F8
:1016B0009143094AD1600021016041608160C160AD
:1016C000016141610549016200218162016441605B
:1016D0007047000000240140001002400000FF0F8E
:1016E00000B58BB012484069012108431049486198
:1016F000104800F0C7F810480090104801900020F2
:101700000290062003900020049080200590400065
:101710000690800007902020089000020990002089
:101720000A906946034800F0CDF80BB000BD0000F8
:10173000001002400800024040240140FE0000204A
:10174000C26802239A430A43C26070471C4800687B
:10175000022108404008002830D002201849486083
:1017600000201849087013E0164800784000164918
:10177000095A144800780E225043144A8018144A1B
:101780001278520081520F480078401C0D490870B1
:101790000C4800780628E7DB0D480078401C0C490F
:1017A000087008460078072808DB00200870094800
:1017B0000078402188434030064908707047000097
:1017C000000002406B000020FE000020A00000206E
:1017D0006A0000200400002010B50B795B030A6842
:1017E0001A438B681A43CB681A430B691A434B6937
:1017F0001A43C368024C23401A43C26010BD000064
:1018000003D2FFFFF8B504460E460027002500204E
:101810000090032E00DAF8BD00271BE0002514E03D
:101820006800215A681C4000205A81420BDD680084
:10183000205A0090681C4000205A69006052691CC0
:10184000490000986052681CC5B2701EA842E7DCCF
:10185000781CC7B2B742E1DB00200090012707E007
:101860007800215A0098081880B20090781CC7B2FE
:10187000B01EB842F4DAB11E0098FEF74BFC80B2FD
:10188000C9E7000010B5044620680C4908402060F4
:10189000002020606060A060E0600949611A08468D
:1018A00008380521FEF720FC01460F208840044936
:1018B000496808430249486010BD0000FEFF00006F
:1018C0000000024010B50022124C0B68A34203D066
:1018D000114C0B68A34202D103231B034B62026825
:1018E0000E4B1A400C6A8B6823430C6923434C69E6
:1018F00023438C692343CC6923434C6A23438C6A7A
:1019000023431A430260CB6843600B6883604B68D3
:10191000C36010BD28540040285800400F80FFFFCE
:1019200010B52D480078C007C00F002853D02B48B1
:101930000078C007C00F00284DD027480078400825
:101940004000254908702648007820218843244912
:101950000870002023490870234800780421884338
:101960002149087000202149087021490870214947
:1019700008800120000320490881FEF745FE174832
:101980000078C007C00F00280AD01748007802214D
:101990008843801C1449087018480068184908607A
:1019A0000D4800784007C00F00280AD00E48007884
:1019B0000821884308300C49087012480068124911
:1019C00008600120C0031149088103480078042100
:1019D00088430149087010BD040000200700002062
:1019E00003000020280000200500002071000020D6
:1019F000700000201E000020200000482C00002065
:101A0000300000200C0000201000002020040048BE
:101A1000C2B2064B1A8100BF044A203AD269802321
:101A20001A40D209002AF7D0704700002038014040
:101A300010B5764800784006C00F00287CD0734867
:101A40000078402188437149087007217048FFF7EA
:101A5000D9FE7049088007216D480E30FFF7D2FE8D
:101A60006C49488007216A481C30FFF7CBFE694962
:101A70008880072166482A30FFF7C4FE6549C88080
:101A8000072163483830FFF7BDFE6249088107210E
:101A90005F484630FFF7B6FE5E4948810A465189E5
:101AA0005D4A12885D4B5A431046FEF733FB5C4992
:101AB0000860584909885A4A1268514308465949EA
:101AC000FEF712FB5849088052494988544A126867
:101AD000514308465349FEF707FB534948804D4997
:101AE00089884F4A1268514308464E49FEF7FCFA6E
:101AF0004D4988804749C988494A12685143084678
:101B00004849FEF7F1FA4849C88042490989444AE0
:101B10001268514308464349FEF7E6FA42490881F4
:101B2000084600884149884207DB41480078400860
:101B300040003F49087007E066E03D4800784008F3
:101B40004000401C3A4908703748C08837495A312C
:101B5000884203DD04203749087015E03248C08808
:101B60003549884203DD0320324908700CE02E48D5
:101B7000C088AF218900884203DD02202D4908700A
:101B800002E001202B49087027488088CA2803DB1F
:101B900001202A49087002E00020284908702248E4
:101BA00040883C2803DC0120254908701EE01E48BF
:101BB00040883C2807DD1C484088962803DC02202A
:101BC0001F49087012E018484088962807DD16481B
:101BD0004088C82803DC03201949087006E0124831
:101BE0004088C82802DD042015490870154800788F
:101BF000202188432030134908700846007840218E
:101C0000884340300F49087010BD000004000020D8
:101C1000A00000208800002068000020E40C0000E4
:101C200020000020FF0F000094000020DC050000D1
:101C30000700002026000020B60300002500002039
:101C400024000020030000207CB50346002000246F
:101C5000009401941C6A00945C6A019420E0CC0713
:101C6000E40F002C19D0C410A4006D462D59440770
:101C7000E60E0724B440A543C410A4006E463551B7
:101C8000C410A4006D462C594507EE0E1546B5400C
:101C90002C43C510AD006E467451441CE0B249108F
:101CA0000029DCD1009C1C62019D5D627CBDF0B509
:101CB00086B0002300240025039504950595C025D2
:101CC0001540AD090295302515402D0901950C25CB
:101CD00015400095009D0C2D03D185880D4385800E
:101CE00005E0009D082D02D185888D4385801DE08B
:101CF000CD07ED0F002D16D05E000325B5402C4317
:101D00009507AD0F5E00B540039E354303955F0018
:101D1000029DBD40049E2E4304965F00019DBD4080
:101D2000059E2E4305965D1CEBB249100029DFD1BC
:101D30008568A543039E354385600568A543049ED9
:101D400035430560C568A543059E3543C56006B0AB
:101D5000F0BD10B500F0E2F900F08EFC10BD0000FF
:101D600080281ED00146FF39213900290CD079295D
:101D700022D101210903164A91614900144A2032F7
:101D800011814900118121E001210903104A20320B
:101D9000118149000E4A916149000D4A203211819A
:101DA00014E0012109030A4A2032118149001181FE
:101DB0004900074A916109E001210903044A2032E0
:101DC0001181490011814900118100BF00BF704796
:101DD00000040048FEF7B6FCFEF7D6FEFEF7E4FC72
:101DE000FEF746FEFEF778FEFEF7FAFDFEF79EFCD4
:101DF000FF20F5301F49088001E0FEF721FAFEF7C9
:101E00001FFF0028F9D133E0FEF71AFAFFF79EFC16
:101E1000FFF70EFE184800784006C00F002801D1D9
:101E2000FEF7B0F91548008800281FD1FF209A302E
:101E3000134908800020134908700F4800780421D6
:101E400088430D4908700120C0030F490881C01064
:101E50000E4908810C490881400008814000088132
:101E6000FEF7D2FB0120400309490881FEF772FF0B
:101E7000CAE700000A00002005000020340000200E
:101E80000000002029000020200400482000004815
:101E9000200800488178002925D017490322120222
:101EA0008918027892109200895802789207D30E0E
:101EB000FF229A40914342789207120E03789B07C3
:101EC000DB0E9A4011430C4A03231B02D2180378FD
:101ED0009B109B00D1500178CA06D20E012191407F
:101EE000054A116007E00178CA06D20E012191402F
:101EF000014A80321160704700E100E0FEB50446FF
:101F00000025002002900027002601900090404804
:101F100040680C2108400546002D04D0042D05D052
:101F2000082D2BD105E03B4820602AE0394820608D
:101F300027E0374840680F218904084006463448A6
:101F400040680321C90308400190B00C861C019829
:101F5000002804D130463049484300900BE02C481B
:101F6000C06A0007000F401C02902A480299FEF741
:101F7000BBF8704300900098206002E02548206084
:101F800000BF00BF22484068F021084005462D09E7
:101F90002248475D2068F84060601D48406807217E
:101FA0000902084005462D0A1C48475D6068F84054
:101FB000A0601748006B10210840102802D0154877
:101FC000E06001E02068E0601148006B8007800F4E
:101FD000002802D1A068206119E00D48006B80073D
:101FE000800F012802D12068206110E00848006BB2
:101FF0008007800F022802D18003206107E0044897
:10200000006B8007800F032801D102482061FEBDCC
:102010000010024000127A0000093D00720000200A
:1020200019480068012108431749086008464068BC
:102030001649084014494860084600681449084099
:1020400011490860084600680121890488430E4947
:102050000860084640687F21C90388430A494860F0
:102060000846C06A00090001C8620846006B1321D7
:102070008843054908630846406B400840004863B0
:102080000020886070470000001002400CB8FF007C
:10209000FFFFF6FE03494968F02291430143014ADC
:1020A000516070470010024004490968F8229143CA
:1020B000C2001143014A1160704700000010024045
:1020C000044949680722120291430143014A5160C1
:1020D00070470000001002400A4AD26A1209120139
:1020E00003071B0F1A43074BDA621A4652687B2319
:1020F000DB039A430323DB0303400B431A43014BE7
:102100005A607047001002400349496889088900F5
:102110000143014A516070470010024010B57D48EC
:102120000078401C7B490870084600780A287DDB4F
:10213000002008700921C906098AC807C00F76491E
:102140000978490849000143734A11700921C906F9
:10215000098A0222114049084900114008466E4987
:102160000978914301436C4A11700921C906098A13
:1021700004221140890889001140084666490978FF
:1021800091430143644A1170644800784007400F4E
:10219000114609784907490F88427DD000206049DF
:1021A000087060480088401C5E4908800846008826
:1021B0000F28BCDB104600784007400F072848D1A5
:1021C00008460088322807DB0120000356490881B1
:1021D000400008814000088152480088C828A6DBDA
:1021E00000205049088051480078022188434F4917
:1021F00008704A4800784008400047490978C907F4
:10220000C90F0843454908700846007802218843F1
:10221000414909788907C90F490002221140084342
:102220003E49087008460078042100E070E08843C9
:10223000394909784907C90F890004221140084328
:1022400036490870344909784807400FFEF700F80E
:102250005EE000203349088034480078022188433A
:10226000801C324908702D480078400840002A49F7
:102270000978C907C90F084328490870084600783B
:1022800002218843244909788907C90F490002229D
:1022900011400843214900E015E008700846007825
:1022A000042188431C4909784907C90F8900042281
:1022B0001140084319490870174909784807400F29
:1022C000FDF7C6FF24E00020164908801348007877
:1022D0004007400F104909784907490F884217D134
:1022E0000F480078401C0E49087010480078022101
:1022F00088430E4908700A480078322808DB00201D
:1023000007490870044909784807400FFDF7A0FF06
:1023100010BD00004200002008000020090000203D
:102320004300002040000020200400480600002058
:102330001A4A904206D001229207904202D0184ACF
:10234000904205D1026870239A434B881A43026079
:10235000144A904206D0026803231B029A430B8959
:102360001A4302604A68C2620A8882620B4A90423B
:1023700008D00D4A904205D00C4A904202D00C4A37
:10238000904208D14A88102A03D18A7A521C0263EB
:1023900001E08A7A0263012242617047002C014009
:1023A0000004004000100040004001400044014093
:1023B00000480140FFB5002300244B10CC07E40F78
:1023C000056A8F000126BE40B54305629E000546A2
:1023D0001835AD59E700F326BE40B543099E3601D6
:1023E000039F3E43E700BE4035439E000746183733
:1023F000BD51056A8F000A26BE40B543012616432B
:102400008F00BE4035430562FFBD38B505460C461A
:1024100020890090A388628821782846FFF7CAFFA8
:10242000E2882178284600F001F838BD30B54B101D
:102430009C00034618331B59CC07250F0C24AC40D5
:10244000A343CC07250F1446AC4023434C10A500F2
:1024500004461834635130BD30B50A460021538814
:10246000602B08D1036810242340102B03D1836A0A
:10247000002B00D030BD1178036A8D000124AC40E0
:10248000A34303624B109C00034618331B59CC072F
:10249000250F7324AC40A3435488CD072D0FAC40C7
:1024A00023434C10A500044618346351036A8D0081
:1024B0000324AC40A343148A95882C438D00AC4080
:1024C00023430362154B984208D0154B984205D020
:1024D000144B984202D0144B984218D1036A8D00D5
:1024E0000C24AC40A343548AD5882C438D00AC40C7
:1024F0002343036243684D0003242402AC40A343FA
:10250000948AD58A2C434D00AC40234343608D0010
:1025100003463433D4685C5100BFABE7002C014064
:102520000040014000440140004801408162426196
:102530007047000004480068002804D00248006882
:10254000401E01490860704738000020012804D06F
:1025500002280BD004281ED113E08021114A91617A
:10256000402191610121104A117018E080210D4A2B
:10257000916140210B4A2032118102210A4A1170D7
:102580000DE08021074A2032118140211181042170
:10259000054A117003E00021034A117000BF00BF1B
:1025A000704700000004004827000020F0B587B005
:1025B00004460D46002600270020069020684008AB
:1025C000400020606068032109038843A96808432C
:1025D0006060E96868680843296908432168234AFC
:1025E000114008432060A0680321090288436969FB
:1025F0000843A06001A8FFF781FC1D48844201D177
:10260000059F00E0039F20680121C90308400028BE
:102610000AD078002968FDF767FD0646780029682A
:10262000FDF762FD069109E038462968FDF75CFD7B
:10263000064638462968FDF757FD06912868410887
:102640000698814200D8761C20680121C903084001
:10265000002808D03007400F069030460549084052
:10266000069908430646A68107B0F0BDF3E9FFFFCF
:1026700000380140F0FF00000920C006008A102148
:102680000840000900281ED025480078C006C00F69
:10269000002818D023480078401C224908700846BA
:1026A000007832283ADD002008700920C006008A30
:1026B000102108400009002830D0194800788843CC
:1026C000174908702AE00920C006008A1021084036
:1026D000000900281FD112480078C006C00F00284A
:1026E00019D110480078401C0E490870084600783F
:1026F000322813DD002008700920C006008A10214E
:1027000008400009002809D10548007888431030A6
:102710000349087002E00020024908707047000079
:10272000040000204700002000B5FE480078C007E4
:10273000C00F00287CD0FC4800780300FEF72CFE78
:1027400009062898FEFDFCFBFAF9F8000020F7497D
:102750000860F7490880F348007804218843F1496C
:102760000870F448007804218843F249087000207A
:10277000F1490870F1490870F1480078012806D144
:10278000F0480068002802D10120E749087076E38C
:10279000E748008800286AD1E948007800280DD170
:1027A000E0480078C006C00F002803D1E648DF49A2
:1027B000086011E0E448DD4908600DE0DD4800787C
:1027C0000007C00F002804D0E0480068D74908601F
:1027D00002E0DD48D5490860DD4800780C2804DABD
:1027E000DB480078401CDA4908700120D4490870A1
:1027F000CC480078C006C00F002805D1CD4800782D
:10280000C007C00F002804D0D2480078C0090028B3
:102810000FD0D048007880218843CE49087001202D
:1028200000030921C90688610320BF4908700EE032
:1028300026E30120C003C8498861BA480078042112
:102840008843001DB74908700220B7490870B9488D
:10285000007804218843B7490870BE4800784021B9
:102860008843BC490870FF20F530B149088006E371
:10287000AF48008800287DD1FF20F530AC490880A2
:10288000B44800784006C00F002873D0A5480078EF
:102890004007C00F0028F8D0AE4800784021884398
:1028A000AC490870AD480078012802D004287DD1D9
:1028B0004EE00020A14908709F480078401C9E49C6
:1028C000087008460078062841DB96480078C00664
:1028D000C00F002806D1A248007810218843A049E3
:1028E000087006E09E4800781021884310309C490B
:1028F00008700020904908700120C00396492031DB
:1029000008818848007804218843864908708948EE
:1029100000780421884387490870844800689149F9
:10292000401882490860012000030921C90606E019
:10293000A4E2A2E295E2BAE184E1A0E076E0886157
:10294000032079490870FF20F530794908803DE07F
:1029500000207949087079480078401C7749087050
:10296000084600780A282ADB002008700120C003EE
:10297000794900E02BE020310881C0107A490881B4
:1029800000206A4908606748007804218843654947
:1029900008706848007804218843664908707048C8
:1029A00000782021884320306D4900E008E008705D
:1029B000002064490860624908705B49087005E0BE
:1029C00000205D4908705D49087000BF00BF57488E
:1029D0000068002829D10120C0035F492031088107
:1029E000C010614908814F480078042188434D494F
:1029F000087050480078042188434E490870002030
:102A00004B49088049490860474908704C4800789C
:102A100000280AD04E4800780C2803DA5348494968
:102A2000086002E052484749086028E240480088B0
:102A3000002823D10120C003474988613D48007820
:102A400004218843001D3B49087036480078042162
:102A50008843001D334908703E4800784021884370
:102A60003C49087000203549087033490870FF2040
:102A7000F5302F49088004202B490870FFE12C48CD
:102A80000088002876D1FF20F53029490880314898
:102A900000784006C00F00286CD02248007840071C
:102AA000C00F002866D02B48007840218843294970
:102AB00008702A480078012802D004287ED15BE003
:102AC00000201E4908701C480078401C1A490870F4
:102AD0000846007806284EDB002008700120C0035D
:102AE0001D49203108810F480078042188430D4991
:102AF000087010480078042188430E4908700120AE
:102B00000003194908810B48007840084000401C28
:102B100008490870052004490870FF20F530044971
:102B2000088000BD04000020280000200C000020C8
:102B30001E00002005000020700000207100002011
:102B4000290000202C000020881300001000002025
:102B5000360000200300002000040048240000206C
:102B6000070000209411000020000048983A00005F
:102B7000E093040036E034E00020C2490870C24807
:102B80000078401CC0490870084600780A2821DBFC
:102B9000002008700120C003BC490881BC480078AF
:102BA00004218843BA490870BA4800780421884350
:102BB000B8490870B8480078202100E00BE088434D
:102BC0002030B54908700020B4490870B449086045
:102BD000B449087005E00020AA490870AA490870A5
:102BE00000BF00BFB048006800282AD10120C00300
:102BF000A6490881A648007804218843A4490870A2
:102C0000A448007804218843A24908700020A649FE
:102C10000860A649088001200003A549088100201A
:102C20009E4908709F48007800280AD0A148007883
:102C30000C2803DAA0489A49086002E09F489849A6
:102C400008601CE19948008800282FD10120C003AA
:102C50008E49203988619A48934908608D480078E8
:102C6000042188438B4908708948007804218843EF
:102C7000001D874908709348007840218843914996
:102C800008700020804908707E490870062083493A
:102C90000870FF20F53085490880864800780C28A8
:102CA00004DA84480078401C82490870E7E07F48D5
:102CB000008800287ED1FF20F5307C4908808148BB
:102CC00000784006C00F002874D071480078400793
:102CD000C00F00286ED07B48007840218843794996
:102CE000087079480078012802D004287FD148E094
:102CF00000206549087063480078401C61490870ED
:102D00000846007806283BDB61480078C006C00F03
:102D1000002806D160480078102188435E49087079
:102D200006E05D4800781021884310305A49087049
:102D30000020544908700120C003544908815448B8
:102D400000780421884352490870524800780421D1
:102D50008843504908700020534908604D48007866
:102D60008021884380304B490870584800784008DB
:102D70004000401C5549087008204849087000BDB3
:102D80003BE000203F4908703F480078401C3E4926
:102D90000870084600780A2827DB00200870012008
:102DA000C0033A490881C0104149088100203E49CA
:102DB000086000E022E03648007804218843344966
:102DC000087034480078042188433249087032483A
:102DD00000782021884320302F4908700020304996
:102DE0000860304908702D49087006E0FFE70020B0
:102DF000244908702449087000BF00BF2A480068B1
:102E000000282DD10120C00320490881C010284985
:102E100008811F480078042188431D4908701D4817
:102E20000078042188431B49087000201F4908804E
:102E30001D490860072019490870FF20F5301B491B
:102E400008801848007800280AD01A4800780C2812
:102E500003DA19481249086002E01848104908606E
:102E60000DE010480078012806D10D4800680028C0
:102E700002D105200949087001E000E000BF00BF51
:102E800000BF7CE770000020710000202004004893
:102E9000040000200500002007000020280000207A
:102EA0002C000020290000200C0000201E00002023
:102EB0002000004836000020983A0000E09304000B
:102EC00088130000030000202400002006000020DA
:102ED000F02E00080000002088000000B413000855
:102EE000782F00088800002088040000C413000820
:102EF0009901000000000000000000000000000038
:102F000000000000000000000000000000000000C1
:102F100000000000000001000000000000000000B0
:102F2000000000003200000000000000000000FF70
:102F30000000000000000000000000000000000091
:102F40000000000000000000000000000000000081
:102F50000000000000000000000000000000000071
:102F60000000000000000102030401020304060740
:082F7000080900000000000048
:04000005080000B936
:00000001FF
