:020000040800F2
:1000000010050020CD000008990C0008B907000871
:1000100000000000000000000000000000000000E0
:10002000000000000000000000000000DD0D0008DE
:100030000000000000000000CD0C0008A10F000827
:10004000DF00000800000000DF000008DF000008FB
:10005000DF000008DF000008DF000008DF00000804
:1000600000000000DF000008DF000008DF000008DB
:10007000DF000008DF000008DF00000800000000CB
:10008000251000084111000800000000DF000008F2
:10009000DF000008DF000008DF000008DF000008C4
:1000A000DF000008DF000008DF000008551300082B
:1000B000DF000008DF0000080348854600F050F824
:1000C000004800475D1E00081005002004488047D6
:1000D00004480047FEE7FEE7FEE7FEE7FEE7FEE72F
:1000E000A90F0008B900000830B50B4601460020F2
:1000F0002022012409E00D46D5409D4205D31D462E
:100100009540491B2546954040191546521E002D25
:10011000F1DC30BD70B500242546002801DA012449
:100120004042002901DA01254942FFF7DDFFAC42D8
:1001300000D04042002C00D0494270BDD2B201E054
:100140000270401C491EFBD270470022F6E710B532
:1001500013460A4604461946FFF7F0FF204610BD35
:10016000064C0125064E05E0E36807CC2B430C3C0A
:1001700098471034B442F7D3FFF7A2FF8C30000841
:10018000AC30000810B5244800788006C00F002865
:100190003DD022480078C007C00F002837D1204842
:1001A0000078C007C00F002831D11D4800784007F3
:1001B000C00F00282BD11B480078022827DB1748E6
:1001C000007840084000401C1449087000F0AEFA66
:1001D0001548008801F008FE7D20000113490880C1
:1001E000134800788007C00F00280DD01048007811
:1001F000022188430E49087000200E4908700E48FD
:1002000000680E49086002E001200A49087001F008
:10021000CDFB02F0D9FA10BD03000020040000203D
:100220000700002026000020000000201E00002003
:100230000500002028000020300000202C000020B5
:100240000148024908607047AAAA00000030004037
:1002500010B50446E6480078032803D1052C0EDAD1
:1002600005240CE0E2480078022803D1062C06DAC7
:10027000062404E0DE480078012800D10024DD488F
:1002800000788006C00F002802D0062C00DA062471
:10029000062C03D0052C01D0032C07D1D5480078BB
:1002A0004006C00F002801D000F040FA032C7DD09A
:1002B000052C7DD0062C02D0072C76D159E1FF20E9
:1002C0009A30CD4908800846008800F06FFAC94886
:1002D00000788006C00F002803D1C748008801F0CD
:1002E00083FDC448007840218843C2490870C34850
:1002F00000788007C00F002857D0C048007802213E
:100300008843BE490870BB480078C009002829D03E
:100310000020BB4908700120BA490870B548007830
:1003200040084000B349087008460078802188439F
:10033000B04908700020B4490870AE480078042124
:100340008843AC4908700020B0490860B048007884
:10035000802188438030AE490870FF20F530AD49D8
:10036000088022E0A3480078C007C00F00281CD0F6
:10037000A0480078400840009E4908700120A1492B
:100380000870A3480078802188438030A049087015
:1003900000209E49086097480078042188439549C9
:1003A0000870FF20F5309B4908801EE171E0FFE7EF
:1003B000FF202130904908800846008800F0F6F9B7
:1003C0008D48008801F010FD8A480078402188435C
:1003D00088490870894800788007C00F002857D0E6
:1003E0008648007802218843844908708148007853
:1003F000C009002829D000208149087001208149C6
:1004000008707C480078400840007A490870084627
:100410000078802188437749087000207A49087065
:100420007448007804218843724908700020774995
:1004300008607748007880218843803074490870CC
:10044000FF20F5307349088022E06A480078C00731
:10045000C00F00281CD0674800784008400065495C
:100460000870012067490870694800788021884336
:100470008030674908700020644908605D48007852
:10048000042188435B490870FF20F53061490880EA
:10049000ABE08020584908800846008800F086F9C3
:1004A0005548008801F0A0FC52480078402188435C
:1004B00050490870514800788007C00F002857D075
:1004C0004E480078022188434C490870494800781A
:1004D000C009002829D00020494908700120494955
:1004E00008704448007840084000424908700846B7
:1004F0000078802188433F490870002042490870F5
:100500003C480078042188433A49087000203F495C
:1005100008603F4800788021884380303C4908705B
:10052000FF20F5303B49088022E032480078C007C0
:10053000C00F00281CD02F480078400840002D49EB
:10054000087001202F4908703148007880218843C5
:1005500080302F49087000202C4908602548007819
:100560000421884323490870FF20F5302949088079
:100570003BE0204800784021884340301D49087006
:10058000FF209A301C4908802348007804218843C2
:10059000214908700120C00320490881C01020496A
:1005A00008811E490881400008814000088100F050
:1005B00073F812480078C007C00F002814D00F4805
:1005C0000078400840000D4908700A48007840084B
:1005D0004000084908700846007880218843054992
:1005E000087000200F49088000BF00BF10BD000048
:1005F000260000200500002000000020060000204A
:100600003600002028000020290000202C000020B7
:10061000030000201E0000200400002020040048E9
:10062000200000483400002010B514484068012123
:10063000C9038843114948601048403800684008A1
:1006400040000E49403908604B22C9140920C006F9
:1006500001F071FB0120C0020921C9068861002058
:10066000074908800749088007490880074908802A
:100670000880074908700749086010BD402C0140F8
:100680004C0000204E0000205000002052000020AE
:10069000560000205C00002010B51B484068012176
:1006A000C903884318494860174840380068400823
:1006B00040001549403908604B22C9140920C00682
:1006C00001F039FB0120C0020921C9068861400000
:1006D0000E49088140000881400008810C480078DC
:1006E000400840000A49087000200A4908800A4969
:1006F00008800A4908800A4908800880094908706A
:100700000949086010BD0000402C01402004004849
:10071000040000204C0000204E000020500000206B
:1007200052000020560000205C00002010B5154843
:10073000008800F05BF91448006801210843124961
:1007400008601148403040680121C90308430E4940
:10075000403148600D48007840084000401C0B497B
:10076000087000200A4908800A4908800A49088060
:100770000A4908800A4908800A4908700A4908603D
:1007800010BD000000000020002C014004000020EB
:100790004C0000204E00002050000020520000209D
:1007A00054000020560000205C000020014908642D
:1007B00070470000002C014000BFFEE710B500F0BC
:1007C00007FB0349088000F0D1FF00F015FF10BDC2
:1007D000680000201348406A01210843114948621B
:1007E00000BF1048406A0221084040080028F8D0A5
:1007F0000D480E49086003204860FF2039308860AA
:1008000000BF0A48C0680949C96802221140490866
:1008100008400028F5D106480449086005480860EA
:1008200070470000001002405555000000300040A5
:10083000AAAA0000CCCC000010B56548406901218F
:100840004904084362494861084640690121890416
:1008500008435F494861084640690121C9040843CB
:100860005B494861102201210920C00601F063FAAA
:10087000102202210920C00601F05DFA1022042195
:100880000920C00601F057FA102208210920C006ED
:1008900001F051FA102211460920C00601F04BFA6E
:1008A000102280214B4801F046FA4B220121C90257
:1008B0000920C00601F03FFA4B220121090309205B
:1008C000C00601F038FA4B2201218902424801F0AA
:1008D00032FA4B220121C9023F4801F02CFA4B2287
:1008E000012109033C4801F026FA4B22012149036A
:1008F000394801F020FA4B2201218903364801F0E2
:100900001AFA4B220121C903334801F014FA4B2291
:100910004021314801F00FFA4B2280212E4801F08E
:100920000AFA4B22012149032C4801F004FA042061
:1009300001F05CFE0120800227492031088100017E
:100940000881401008814010088140100881000192
:10095000088100110921C9068861098AC807C00FEA
:100960001F4909784908490001431D4A11700921AE
:10097000C906098A02221140490849001140084667
:100980001749097891430143154A11700921C90695
:10099000098A04221140890889001140084610493B
:1009A0000978914301430E4A1170012040030B491D
:1009B00088610C48007840084000401C09490870D4
:1009C000094800788021884380300749087010BDAD
:1009D00000100240001400480004004800080048CD
:1009E00009000020030000200400002010B58AB098
:1009F00004461D4880690121C90208431A498861DB
:100A00000222C9140920C00601F062F99B220121CB
:100A1000C9020920C00601F08EF90520C001089026
:100A2000002168468183C183818408A8817107A958
:100A30000E4801F0CDFC70216846C1800121018182
:100A400004214181022181820021C182FF210131E3
:100A500001830021418303218180049401A903487B
:100A600001F04AFD0AB010BD00100240002C014008
:100A70001FB5204840690121890408431D49486188
:100A80000846C069022108431A49C86101221021A1
:100A9000194801F01DF98B221021174801F04BF97C
:100AA00001220F21154801F091FD00216846818047
:100AB000C18001210181002141810F21818101A992
:100AC0000E4801F0F2FC0D480068012108430B4973
:100AD00008600846C068022108430849C860102120
:100AE00068460170002141700121817001F022FAF5
:100AF0001FBD000000100240000400480004004038
:100B00001FB51648C069102108431449C86114482C
:100B100002900021684681808181C18001A911482D
:100B200001F056FC01220F210E4801F04FFD11216A
:100B300068460170042141700121817001F0FAF9C9
:100B40000848C068012108430649C8600846006893
:100B500001210843034908601FBD00000010024046
:100B6000E70300000010004000B587B0182101A87D
:100B7000FFF7EBFA264880690121890308432449DD
:100B80008861012249150920C00601F0A1F801225F
:100B900091020920C00601F09BF889220321490235
:100BA000D00601F0C8F800BF1948C06801218903C8
:100BB00008431749C8600846C06801218903884373
:100BC0001349C86000BF4B20C00101900020029073
:100BD0000390049006900C20059001A90D4801F0A7
:100BE00035FD1B216846017004214170012181708F
:100BF00001F0A0F907480068202108430549086072
:100C000008460068012108430249086007B000BD9A
:100C1000001002400038014010B501F051FA1C48A4
:100C20000068012108431A4908600846006802214B
:100C300008404008002827D01120164908600020ED
:100C400001F078FA002001F08BFA0121C90400209C
:100C500001F092FA0E4800680121090608430C4988
:100C6000086000BF0A480068012149060840400E9C
:100C70000028F7D0022001F097FA00BF044840682E
:100C80000C2108400828F9D1122001F05DFA10BDAE
:100C900000100240002002400B488068802108407C
:100CA000C00900280FD008480068490208430649D7
:100CB0000860084680680321C90208430249886029
:100CC0000120C00588607047001002407047000096
:100CD00010B500F081FD334800784006C00F0028B1
:100CE0005ED03148008800285AD12E480078402133
:100CF00088432C490870FF20F5302B4908800721D4
:100D00002A4800F0C5FD2A49C880072127481C3021
:100D100000F0BEFD264948810A465189254A1288BD
:100D2000254B5A431046FFF7F5F92449086020493E
:100D3000C988224A1268514308462149FFF7D4F96D
:100D40002049C88020480078042809D10846C08876
:100D50001E49884204DA022001F048FC012010BD3F
:100D60001948007802280AD11648C0887D21C90098
:100D7000884204DA012001F039FC0120EFE7124833
:100D8000007801280AD10F48C088AF218900884225
:100D900004DA002001F02AFC0120E0E70020DEE771
:100DA0000120DCE7040000200A000020CA00002027
:100DB0008800002068000020E40C000020000020D3
:100DC000FF0F00009400002027000020A406000070
:100DD0000148408B70470000A0F7FF1F70470000DC
:100DE00010B517480078C006C00F002826D0144858
:100DF0000078102188431249087012A000F002FB0D
:100E00001948016819A000F0FDFA1C4801881CA0CF
:100E100000F0F8FA1948418821A000F0F3FA1748C9
:100E2000818827A000F0EEFA1448C1882CA000F0B9
:100E3000E9FA1248018932A000F0E4FA10BD00007E
:100E4000030000200D0A323032362E30392E313573
:100E50002C536F66742056657273696F6E2056301E
:100E60002E31310D0A0000005C00002046616E202A
:100E700052504D203D2025640D0A000094000020B2
:100E800041444320436F7665725F56616C756520FF
:100E90002020203D202564286D56290D0A000000E1
:100EA0004144432057617465722050756D70202055
:100EB0002020203D202564286D56290D0A000000C1
:100EC00041444320536F6C656E6F69642076616C9A
:100ED0007665203D202564286D56290D0A00000006
:100EE00041444320547970654320506F77657249BF
:100EF0004E20203D202564286D56290D0A00000053
:100F000041444320506F7765722044433234562069
:100F10002020203D202564286D56290D0A00000060
:100F200011201D4908601D4840681C49486008465A
:100F300040684860084640687B21C90388431749D8
:100F40004860084640680521C904084313494860C1
:100F5000084600680121090608431049086000BFDF
:100F60000E4800680121490608400028F8D00B48C7
:100F700040688008800009494860084640680221AE
:100F800008430649486000BF044840680C210840F7
:100F90000828F9D1704700000020024000100240EC
:100FA00010B501F017FB10BD10B51B4800680121FA
:100FB000084319490860084640681849084016491E
:100FC000486008460068164908401349086008460A
:100FD00000680121890488430F4908600846406879
:100FE0003F21090488430C4948600846C06A00094B
:100FF0000001C8620846006BFF215431884306494E
:1010000008630846406B4008400048630020886041
:10101000FFF786FF10BD0000001002400CB8FF086B
:10102000FFFFF6FE10B5394800690221084040086C
:1010300000286AD0364835490861364800780028CB
:1010400007D10846406B34490880012031490870B7
:101050005BE030480078012857D100202D49087006
:101060002A48406B2D490880084600882A4909888B
:10107000884207DD2948008827490988401A2849FD
:10108000088013E0254800882349098888420ADA45
:10109000214800880021C943081A204909884018BE
:1010A0001F49088002E000201D4908801D48007883
:1010B000401C1C4908700846007801280AD11849CC
:1010C0000988194A514308461849FFF723F8184977
:1010D00008801AE013480078022816D10020114930
:1010E00008700F490988104A514308460F49FFF715
:1010F00011F8104908800E4800880A4612888118A5
:101100000D48FFF707F80D49086010BD00040040C6
:10111000FDFF0000560000204C0000204E00002083
:1011200050000020650000201027000040420F0002
:101130005200002054000020C02709005C0000205D
:1011400010B574480069C007C00F002874D07248F9
:101150007049086171480088002804D06F480088F1
:10116000401E6E4908806E480068002804D06C4814
:101170000068401E6A4908606A480088002804D058
:1011800068480088401E6749088067480078400624
:10119000C00F00281AD165480068002804D06348B1
:1011A0000068401E6149086061480088002804D03A
:1011B0005F480088401E5E4908805E48006800283D
:1011C00004D05C480068401E5A49086000F005FEE3
:1011D00059480088401C5849088008460088FF216B
:1011E0002D31884228DB0020534908804E48007882
:1011F0004006C00F002809D050480088002808D0B9
:101200004E480088401E4D49088002E032204B497C
:10121000088045480078C007C00F002816D048480D
:101220000078401C4649087008460078012804D11F
:1012300080024449886114E06BE000204049087056
:10124000012080023F49203108810AE03C480078B3
:10125000012803D180023B49203108810020384910
:10126000087031480078C007C00F00281FD13648E9
:101270000078C006C00F002819D034480078401C00
:101280003249087008460078022803D140022D49EF
:10129000886117E02D480078042813D100202B49DD
:1012A0000870012080022749203108810AE0274880
:1012B0000078022803D14002224920310881002011
:1012C0002249087020480078C007C00F002815D0B8
:1012D0001F480078401C1E49087008460078012805
:1012E00003D1C0021749886113E000201849087033
:1012F0000120C0021349203108810AE01448007817
:10130000012803D1C0020F49203108810020104973
:10131000087010BD00100040FEFF00000A00002011
:10132000140000201C000020050000202C000020DC
:101330001E0000200C000020580000203400002077
:101340006000002000040048070000206200002028
:10135000610000202648C06920210840400900287B
:1013600045D02348203080882249087008460078FC
:10137000282805D0204800780007C00F002836D064
:101380001D4800780821884308301B490870194817
:1013900001781A4802780078401C184B18701848D9
:1013A000815418460078092806DC18460078401E4B
:1013B0001349085C29281AD11148407852280AD1CB
:1013C0000F488078292806D10B48007810218843DF
:1013D00010300949087000200849087008498870D1
:1013E0000870054800780821884303490870704751
:1013F0000038014067000020030000206600002044
:10140000F40000200FB410B503A9044B044A02985D
:1014100000F026F810BC08BC04B018479D1A00085C
:101420008400002030B47446641E2578641CAB42EE
:1014300004D3635D5B00E31830BC18471D46F8E732
:1014400002E008C8121F08C1002AFAD1704770478D
:10145000002001E001C1121F002AFBD170470000EB
:10146000FFB58DB00446002506E025280AD0109A65
:101470000F999047641C6D1C20780028F5D12846F0
:1014800011B0F0BD00270121484A009700E0074352
:10149000641C23780846203B98401042F7D12078FE
:1014A0002E2817D1042007436078641C2A280CD109
:1014B0000E98641C02C800910E900BE000990A225D
:1014C000514330394018641C00902078014630396F
:1014D0000929F3D920780028D1D0642808D06928B8
:1014E00006D075281ED0109A0F9990476D1C5BE0AE
:1014F0000A200E99019001C90E91002802DA40429B
:101500002D2102E0390504D52B216A4611720121F3
:1015100003E0F90704D02021F7E70BAE0B910DE0B3
:101520000021FAE70A200E99019001C90E91F7E710
:101530000199FEF7D9FD3031761E31700028F7D1C0
:1015400003A8801B20300190780701D5009801E0A6
:10155000012000900199884201DD401A00E000203E
:101560000027009006E002A8109AC05D0F999047EE
:101570006D1C7F1C0B988742F5DB04E0109A30202D
:101580000F9990476D1C0099481E00900029F5DCCA
:1015900005E03078109A761C0F9990476D1C0199E0
:1015A000481E01900029F4DC641C65E7092801004D
:1015B00030B501460020002200238C680125ED078C
:1015C0002C438C6000BF8C68E30FDB07521C0F2498
:1015D0002403A24201D0002BF5D18C68E40FE4076C
:1015E000002C01D1086C00E0002030BD836A0B4361
:1015F000836242617047000000B587B03B48406994
:10160000032149040843394948610846806949155E
:10161000084336498861C022E0210920C00600F055
:101620008AFBC0220321324800F085FB314800F0DC
:1016300079F801A800F064F80020019001206946C3
:101640000872002003900590069001A9294800F037
:1016500009F9072220212748FFF7C8FF0722402168
:101660002448FFF7C3FF072280212248FFF7BEFF6F
:101670000722FF2101311F48FFF7B8FF0722012190
:1016800049021C48FFF7B2FF07220121490419480B
:10169000FFF7ACFF18488068012189050843164907
:1016A00088601448FFF784FF0221124800F08EF88A
:1016B0001248806801210843104988600D48C068BD
:1016C000012108430B49C86008468068012108438E
:1016D0000849886000BF07480068C007C00F00289D
:1016E000F9D0044800F014F807B000BD0010024023
:1016F000000400480024014000270140000002408F
:101700000021016001718160C16001614161704728
:101710008168102211438160816804221143816035
:10172000704700000E49884218D10E49C968421519
:1017300011430C4AD1601146C96842159143094AC8
:10174000D1600021016041608160C160016141613F
:101750000549016200218162016441607047000017
:1017600000240140001002400000FF0F00B58BB0C4
:10177000124840690121084310494861104800F0AF
:10178000C7F81048009010480190002002900620F1
:101790000390002004908020059040000690800077
:1017A0000790202008900002099000200A906946C6
:1017B000034800F0CDF80BB000BD0000001002405F
:1017C0000800024040240140FE000020C2680223BD
:1017D0009A430A43C26070471C48006802210840CF
:1017E0004008002830D002201849486000201849DD
:1017F000087013E01648007840001649095A14484A
:1018000000780E225043144A8018144A127852006D
:1018100081520F480078401C0D4908700C48007830
:101820000628E7DB0D480078401C0C490870084684
:101830000078072808DB002008700948007840215C
:10184000884340300649087070470000000002409D
:101850006B000020FE000020A00000206A00002095
:101860000400002010B50B795B030A681A438B68EB
:101870001A43CB681A430B691A434B691A43C3686E
:10188000024C23401A43C26010BD000003D2FFFF88
:10189000F8B504460E460027002500200090032ED0
:1018A00000DAF8BD00271BE0002514E06800215A8B
:1018B000681C4000205A81420BDD6800205A0090CD
:1018C000681C4000205A69006052691C4900009859
:1018D0006052681CC5B2701EA842E7DC781CC7B213
:1018E000B742E1DB00200090012707E07800215A91
:1018F0000098081880B20090781CC7B2B01EB84299
:10190000F4DAB11E0098FEF705FC80B2C9E70000CA
:1019100010B5044620680C49084020600020206073
:101920006060A060E0600949611A08460838052136
:10193000FEF7DAFB01460F20884004494968084356
:101940000249486010BD0000FEFF00000000024098
:1019500010B50022124C0B68A34203D0114C0B6847
:10196000A34202D103231B034B6202680E4B1A40B1
:101970000C6A8B6823430C6923434C6923438C69AD
:101980002343CC6923434C6A23438C6A23431A4381
:101990000260CB6843600B6883604B68C36010BD16
:1019A00028540040285800400F80FFFF10B52D48F4
:1019B0000078C007C00F002853D02B480078C0071C
:1019C000C00F00284DD02748007840084000254926
:1019D0000870264800782021884324490870002098
:1019E000234908702348007804218843214908705E
:1019F00000202149087021490870214908800120F0
:101A0000000320490881FEF747FE17480078C00709
:101A1000C00F00280AD01748007802218843801C94
:101A20001449087018480068184908600D48007883
:101A30004007C00F00280AD00E48007808218843CC
:101A400008300C49087012480068124908600120EB
:101A5000C0031149088103480078042188430149E3
:101A6000087010BD040000200700002003000020C3
:101A700028000020050000207100002070000020D8
:101A80001E000020200000482C0000203000002014
:101A90000C0000201000002020040048C2B2064BB9
:101AA0001A8100BF044A203AD26980231A40D20921
:101AB000002AF7D0704700002038014010B5764862
:101AC00000784006C00F00287CD073480078402181
:101AD00088437149087007217048FFF7D9FE7049A3
:101AE000088007216D480E30FFF7D2FE6C49488010
:101AF00007216A481C30FFF7CBFE6949888007211F
:101B000066482A30FFF7C4FE6549C880072163484C
:101B10003830FFF7BDFE6249088107215F48463033
:101B2000FFF7B6FE5E4948810A4651895D4A128830
:101B30005D4B5A431046FEF7EDFA5C490860584980
:101B400009885A4A1268514308465949FEF7CCFAA7
:101B50005849088052494988544A126851430846F6
:101B60005349FEF7C1FA534948804D4989884F4A85
:101B70001268514308464E49FEF7B6FA4D4988802F
:101B80004749C988494A1268514308464849FEF7FF
:101B9000ABFA4849C88042490989444A126851430E
:101BA00008464349FEF7A0FA4249088108460088E2
:101BB0004149884207DB41480078400840003F49DE
:101BC000087007E067E03D48007840084000401C8E
:101BD0003A4908703748C08837495A31884203DD8E
:101BE00004203749087016E03248C0887D21C900BA
:101BF000884203DD0320324908700CE02D48C0887C
:101C0000AF218900884203DD02202D49087002E0DF
:101C100001202B49087027488088CA2803DB01204F
:101C20002849087002E000202649087021484088B1
:101C30003C2803DC0120244908701EE01D48408830
:101C40003C2807DD1B484088962803DC02201E49FB
:101C5000087012E017484088962807DD154840882C
:101C6000C82803DC03201849087006E011484088A2
:101C7000C82802DD04201449087014480078202187
:101C80008843203011490870084600784021884375
:101C900040300E49087010BD04000020A000002054
:101CA0008800002068000020E40C000020000020D4
:101CB000FF0F000094000020DC050000070000205A
:101CC0002600002025000020240000200300002022
:101CD0007CB5034600200024009401941C6A009403
:101CE0005C6A019420E0CC07E40F002C19D0C410EA
:101CF000A4006D462D594407E60E0724B440A543C1
:101D0000C410A4006E463551C410A4006D462C5971
:101D10004507EE0E1546B5402C43C510AD006E4686
:101D20007451441CE0B249100029DCD1009C1C62B3
:101D3000019D5D627CBDF0B586B0002300240025C6
:101D4000039504950595C0251540AD0902953025EC
:101D500015402D0901950C2515400095009D0C2D71
:101D600003D185880D43858005E0009D082D02D1B3
:101D700085888D4385801DE0CD07ED0F002D16D0A1
:101D80005E000325B5402C439507AD0F5E00B540BE
:101D9000039E354303955F00029DBD40049E2E4384
:101DA00004965F00019DBD40059E2E4305965D1C77
:101DB000EBB249100029DFD18568A543039E354366
:101DC00085600568A543049E35430560C568A54345
:101DD000059E3543C56006B0F0BD10B500F0EEF9C4
:101DE00000F09AFC10BD000080281ED00146FF398B
:101DF000213900290CD0792922D101210903164A61
:101E000091614900144A203211814900118121E079
:101E100001210903104A2032118149000E4A9161C3
:101E200049000D4A2032118114E0012109030A4AB8
:101E300020321181490011814900074A916109E06E
:101E400001210903044A203211814900118149000E
:101E5000118100BF00BF704700040048FEF7BAFCC4
:101E6000FEF7DAFEFEF7E8FCFEF74AFEFEF77CFE20
:101E7000FEF7FEFDFEF7A2FCFF20F53025490880A5
:101E800001E0FEF7DDF9FEF723FF0028F9D13FE07E
:101E9000FEF7D6F9FFF7A0FCFFF710FE1E4800780A
:101EA0004006C00F002801D1FEF76CF91B480088DE
:101EB00000282BD1FF209A301949088000201949A9
:101EC00008701548007804218843134908700120E0
:101ED000C00315490881C0101449088112490881BE
:101EE0004000088140000881FEF7D6FB0A480078D0
:101EF000202188430849087008460078102188434B
:101F0000054908700120400309490881FEF768FF70
:101F1000BEE700000A000020050000203400002079
:101F20000000002029000020200400482000004874
:101F3000200800488178002925D017490322120281
:101F40008918027892109200895802789207D30E6D
:101F5000FF229A40914342789207120E03789B0722
:101F6000DB0E9A4011430C4A03231B02D21803785C
:101F70009B109B00D1500178CA06D20E01219140DE
:101F8000054A116007E00178CA06D20E012191408E
:101F9000014A80321160704700E100E0FEB504465E
:101FA0000025002002900027002601900090404864
:101FB00040680C2108400546002D04D0042D05D0B2
:101FC000082D2BD105E03B4820602AE039482060ED
:101FD00027E0374840680F21890408400646344806
:101FE00040680321C90308400190B00C861C019889
:101FF000002804D130463049484300900BE02C487B
:10200000C06A0007000F401C02902A480299FEF7A0
:102010006BF8704300900098206002E02548206033
:1020200000BF00BF22484068F021084005462D0946
:102030002248475D2068F84060601D4840680721DD
:102040000902084005462D0A1C48475D6068F840B3
:10205000A0601748006B10210840102802D01548D6
:10206000E06001E02068E0601148006B8007800FAD
:10207000002802D1A068206119E00D48006B80079C
:10208000800F012802D12068206110E00848006B11
:102090008007800F022802D18003206107E00448F6
:1020A000006B8007800F032801D102482061FEBD2C
:1020B0000010024000127A0000093D00720000206A
:1020C000194800680121084317490860084640681C
:1020D00016490840144948600846006814490840F9
:1020E00011490860084600680121890488430E49A7
:1020F0000860084640687F21C90388430A49486050
:102100000846C06A00090001C8620846006B132136
:102110008843054908630846406B4008400048630F
:102120000020886070470000001002400CB8FF00DB
:10213000FFFFF6FE03494968F02291430143014A3B
:10214000516070470010024004490968F822914329
:10215000C2001143014A11607047000000100240A4
:10216000044949680722120291430143014A516020
:1021700070470000001002400A4AD26A1209120198
:1021800003071B0F1A43074BDA621A4652687B2378
:10219000DB039A430323DB0303400B431A43014B46
:1021A0005A60704700100240034949688908890055
:1021B0000143014A516070470010024010B57D484C
:1021C0000078401C7B490870084600780A287DDBAF
:1021D000002008700921C906098AC807C00F76497E
:1021E0000978490849000143734A11700921C90659
:1021F000098A0222114049084900114008466E49E7
:102200000978914301436C4A11700921C906098A72
:10221000042211408908890011400846664909785E
:1022200091430143644A1170644800784007400FAD
:10223000114609784907490F88427DD0002060493E
:10224000087060480088401C5E4908800846008885
:102250000F28BCDB104600784007400F072848D104
:1022600008460088322807DB012000035649088110
:10227000400008814000088152480088C828A6DB39
:1022800000205049088051480078022188434F4976
:1022900008704A4800784008400047490978C90753
:1022A000C90F084345490870084600780221884351
:1022B000414909788907C90F4900022211400843A2
:1022C0003E49087008460078042100E070E0884329
:1022D000394909784907C90F890004221140084388
:1022E00036490870344909784807400FFDF7B0FFB8
:1022F0005EE000203349088034480078022188439A
:10230000801C324908702D480078400840002A4956
:102310000978C907C90F084328490870084600789A
:1023200002218843244909788907C90F49000222FC
:1023300011400843214900E015E008700846007884
:10234000042188431C4909784907C90F89000422E0
:102350001140084319490870174909784807400F88
:10236000FDF776FF24E00020164908801348007826
:102370004007400F104909784907490F884217D193
:102380000F480078401C0E49087010480078022160
:1023900088430E4908700A480078322808DB00207C
:1023A00007490870044909784807400FFDF750FFB6
:1023B00010BD00004200002008000020090000209D
:1023C00043000020400000202004004806000020B8
:1023D0001A4A904206D001229207904202D0184A2F
:1023E000904205D1026870239A434B881A430260D9
:1023F000144A904206D0026803231B029A430B89B9
:102400001A4302604A68C2620A8882620B4A90429A
:1024100008D00D4A904205D00C4A904202D00C4A96
:10242000904208D14A88102A03D18A7A521C02634A
:1024300001E08A7A0263012242617047002C014068
:1024400000040040001000400040014000440140F2
:1024500000480140FFB5002300244B10CC07E40FD7
:10246000056A8F000126BE40B54305629E00054601
:102470001835AD59E700F326BE40B543099E360135
:10248000039F3E43E700BE4035439E000746183792
:10249000BD51056A8F000A26BE40B543012616438A
:1024A0008F00BE4035430562FFBD38B505460C467A
:1024B00020890090A388628821782846FFF7CAFF08
:1024C000E2882178284600F001F838BD30B54B107D
:1024D0009C00034618331B59CC07250F0C24AC4035
:1024E000A343CC07250F1446AC4023434C10A50052
:1024F00004461834635130BD30B50A460021538874
:10250000602B08D1036810242340102B03D1836A69
:10251000002B00D030BD1178036A8D000124AC403F
:10252000A34303624B109C00034618331B59CC078E
:10253000250F7324AC40A3435488CD072D0FAC4026
:1025400023434C10A500044618346351036A8D00E0
:102550000324AC40A343148A95882C438D00AC40DF
:1025600023430362154B984208D0154B984205D07F
:10257000144B984202D0144B984218D1036A8D0034
:102580000C24AC40A343548AD5882C438D00AC4026
:102590002343036243684D0003242402AC40A34359
:1025A000948AD58A2C434D00AC40234343608D0070
:1025B00003463433D4685C5100BFABE7002C0140C4
:1025C00000400140004401400048014081624261F6
:1025D0007047000004480068002804D002480068E2
:1025E000401E01490860704738000020012804D0CF
:1025F00002280BD004281ED113E08021114A9161DA
:10260000402191610121104A117018E080210D4A8A
:10261000916140210B4A2032118102210A4A117036
:102620000DE08021074A20321181402111810421CF
:10263000054A117003E00021034A117000BF00BF7A
:10264000704700000004004827000020F0B587B064
:1026500004460D460026002700200690206840080A
:10266000400020606068032109038843A96808438B
:102670006060E96868680843296908432168234A5B
:10268000114008432060A06803210902884369695A
:102690000843A06001A8FFF781FC1D48844201D1D6
:1026A000059F00E0039F20680121C903084000281E
:1026B0000AD078002968FDF717FD064678002968DA
:1026C000FDF712FD069109E038462968FDF70CFD7B
:1026D000064638462968FDF707FD06912868410837
:1026E0000698814200D8761C20680121C903084061
:1026F000002808D03007400F0690304605490840B2
:10270000069908430646A68107B0F0BDF3E9FFFF2E
:1027100000380140F0FF00000920C006008A1021A7
:102720000840000900281ED025480078C006C00FC8
:10273000002818D023480078401C22490870084619
:10274000007832283ADD002008700920C006008A8F
:10275000102108400009002830D01948007888432B
:10276000174908702AE00920C006008A1021084095
:10277000000900281FD112480078C006C00F0028A9
:1027800019D110480078401C0E490870084600789E
:10279000322813DD002008700920C006008A1021AD
:1027A00008400009002809D1054800788843103006
:1027B0000349087002E000200249087070470000D9
:1027C000040000204700002010B5FE480078C00734
:1027D000C00F00287ED0FC4800780300FEF722FEE0
:1027E000090628BBFBFAF9F8F7F6F5000020F749CF
:1027F0000860F7490880F348007804218843F149CC
:102800000870F448007804218843F24908700020D9
:10281000F1490870F1490870F1480078012806D1A3
:10282000F0480068002802D10120E7490870DBE287
:10283000E748008800286ED1E948007800280DD1CB
:10284000E0480078C006C00F002803D1E648DF4901
:10285000086011E0E448DD4908600DE0DD480078DB
:102860000007C00F002804D0E0480068D74908607E
:1028700002E0DD48D5490860DD480078062804DA22
:10288000DB480078401CDA4908700120D449087000
:10289000CC480078C006C00F002805D1CD4800788C
:1028A000C007C00F002804D0D2480078C009002813
:1028B00032D0D048007880218843CE490870CE4875
:1028C000007802280BD1C3480078102188431030CB
:1028D000C04900E0CFE30870FDF7A6FE12E0C6484D
:1028E000007803280ED1BB4800782021884320308F
:1028F000B8490870FF209A30C0490880084600880F
:10290000FDF754FF012000030921C9068861032057
:10291000AD4908700EE01DE00120C003B849886190
:10292000A848007804218843001DA64908700220A9
:10293000A5490870A748007804218843A549087074
:10294000AC48007840218843AA490870FF20F53040
:102950009F4908808EE39E48008800287DD1FF2093
:10296000F5309B490880A34800784006C00F002836
:1029700073D0944800784007C00F0028F8D09D48D5
:102980000078402188439B4908709E4800780128C0
:1029900002D0042871D171E00020904908708E485F
:1029A0000078401C8C49087008460078062863DBD4
:1029B00084480078C006C00F00280DD192480078E6
:1029C00010218843904908700DE052E350E343E33F
:1029D00040E20AE2E5E0BBE08B4800781021884342
:1029E00010308949087000207B4908700120C0031D
:1029F0008349203108817348007804218843714954
:102A000008707448007804218843724908706F4840
:102A100000687E4940186D490860774800780228B0
:102A200009D16C480078102188431030694908703A
:102A3000FDF7FAFD14E070480078032810D16548CE
:102A4000007820218843203062490870FF209A30A6
:102A50006A4908800846008800E04AE0FDF7A6FEC3
:102A6000012000030921C906886103205649087026
:102A7000FF20F530564908803AE033E000205649FF
:102A8000087056480078401C544908700846007881
:102A90000A2826DB002008700120C0035849203195
:102AA0000881C0105A4908810020484908604548FB
:102AB000007804218843434908704648007804217F
:102AC00088434449087050480078202188432030CA
:102AD0004D490870002043490860414908703A494F
:102AE000087005E000203C4908703C49087000BFB0
:102AF00000BF36480068002829D10120C0034049A2
:102B000020310881C010424908812E4800780421F4
:102B100088432C4908702F480078042188432D49A8
:102B2000087000202A490880284908602649087052
:102B30002B48007800280AD02D480078062803DAB0
:102B400034482849086002E033482649086091E289
:102B50001F480088002823D10120C003284988612C
:102B60001C48007804218843001D1A490870154844
:102B7000007804218843001D124908701D48007820
:102B8000402188431B4908700020144908701249ED
:102B90000870FF20F5300E49088004200A490870AB
:102BA00068E20B48008800287ED1FF20F5300849F4
:102BB0000880104800784006C00F002874D00148F3
:102BC00000782BE004000020280000200C000020EA
:102BD0001E00002005000020700000207100002071
:102BE000290000202C000020881300001000002085
:102BF00036000020030000202600002000000020F6
:102C00000004004824000020070000209411000068
:102C100020000048983A0000E09304004007C00FED
:102C20000028CBD0F748007840218843F549087048
:102C3000F5480078012802D004287DD147E0002023
:102C4000F2490870F2480078401CF14908700846C3
:102C5000007806283ADB002008700120C003ED4907
:102C60000881ED48007804218843EB490870EB485F
:102C7000007804218843E949087001200003E849ED
:102C80000881E648007840084000401CE34908708D
:102C90000846007820218843E049087008460078FB
:102CA000C006C00F002800E05BE007D008460078AF
:102CB00010218843D9490870FDF738FD0520D9490E
:102CC0000870FF20F530D849088010BD48E000208A
:102CD000CF490870CD480078401CCC4908700846A0
:102CE00000780A281FDB002008700120C003C949B2
:102CF0000881C948007804218843C7490870C7483B
:102D0000007804218843C5490870C848007820210C
:102D100088432030C54908700020C2490870C44962
:102D20000860C4490870BD48007820218843BB4929
:102D300008700846007800E00CE0C006C00F0028CC
:102D400007D00846007810218843B4490870FDF781
:102D5000EDFC05E00020AE490870AC49087000BFEA
:102D600000BFB548006800283ED10120C003A94932
:102D70000881A948007804218843A7490870A7481A
:102D8000007804218843A54908700020AA490860FA
:102D9000A549088001200003A14908810020A1491C
:102DA00008709E480078202188439C490870A148FB
:102DB000007800280AD0A1480078062803DAA04845
:102DC0009B49086002E09F48994908609348007851
:102DD000C006C00F002807D0904800781021884313
:102DE0008E490870FDF7A2FC44E18F480088002856
:102DF0002FD10120C00387492039886192488E492C
:102E00000860864800780421884384490870824815
:102E1000007804218843001D7F49087079480078B4
:102E20004021884377490870002078490870784924
:102E3000087006207B490870FF20F5307A49088029
:102E40007E480078062804DA7C480078401C7B49DC
:102E500008700FE17448008800287DD1FF20F5300C
:102E600071490880674800784006C00F002873D079
:102E7000694800784007C00F00286DD0614800788D
:102E8000402188435F4908705F480078012802D0DC
:102E900004287DD148E000205C4908705C48007837
:102EA000401C5B4908700846007806283BDB5A48FE
:102EB0000078C006C00F002806D15C4800781021B9
:102EC00088435A49087006E0584800781021884322
:102ED00010305649087000204D4908700120C00389
:102EE0004C4908814C480078042188434A490870BD
:102EF0004A480078042188434849087000204E4918
:102F00000860464800788021884380304349087033
:102F10004E48007840084000401C4C49087008208A
:102F200040490870D1E63CE0002039490870374834
:102F30000078401C35490870084600780A2829DBCB
:102F4000002008700120C00332490881C0103449B4
:102F500008810020384900E024E008602E4800780D
:102F6000042188432C4908702C48007804218843A8
:102F70002A4908702D4800782021884320302B49A9
:102F8000087000202A4908602A490870254900E095
:102F900001E0087005E000201D4908701B49087019
:102FA00000BF00BF24480068002854D10120C0039E
:102FB00018490881C0101A4908811748007804216F
:102FC000884315490870154800780421884313493F
:102FD000087000201449088017490860072011492B
:102FE0000870FF20F530104908801248007800284A
:102FF00031D01248007806282ADA11480C490860B6
:1030000029E00000030000202400002071000020BF
:10301000700000202004004804000020050000206B
:1030200020000048280000201E000020070000208B
:103030002C000020290000200C0000203600002079
:10304000983A0000E0930400881300000600002076
:103050000A480B4908600DE00A480078012806D1AB
:1030600007480068002802D105200749087001E0E0
:1030700000E000BF00BF00BF27E60000E0930400AF
:103080002C0000202900002028000020AC3000087F
:1030900000000020880000004014000834310008BF
:1030A00088000020880400005014000899010000E6
:1030B0000000000000000000000000000000000010
:1030C0000000000000000000000000000000000000
:1030D00000000100000000000000000000000000EF
:1030E0003200000000000000000000FF00000000AF
:1030F00000000000000000000000000000000000D0
:1031000000000000000000000000000000000000BF
:1031100000000000000000000000000000000000AF
:10312000000001020304010203040607080900006D
:04313000000000009B
:04000005080000B936
:00000001FF
