:020000040800F2
:1000000010050020CD000008050A0008F9040008CA
:1000100000000000000000000000000000000000E0
:10002000000000000000000000000000490B000874
:100030000000000000000000390A00080D0D000853
:10004000DF00000800000000DF000008DF000008FB
:10005000DF000008DF000008DF000008DF00000804
:1000600000000000DF000008DF000008DF000008DB
:10007000DF000008DF000008DF00000800000000CB
:10008000910D0008AD0E000800000000DF00000820
:10009000DF000008DF000008DF000008DF000008C4
:1000A000DF000008DF000008DF0000083110000852
:1000B000DF000008DF0000080348854600F050F824
:1000C00000480047711B00081005002004488047C5
:1000D00004480047FEE7FEE7FEE7FEE7FEE7FEE72F
:1000E000150D0008B900000830B50B460146002088
:1000F0002022012409E00D46D5409D4205D31D462E
:100100009540491B2546954040191546521E002D25
:10011000F1DC30BD70B500242546002801DA012449
:100120004042002901DA01254942FFF7DDFFAC42D8
:1001300000D04042002C00D0494270BDD2B201E054
:100140000270401C491EFBD270470022F6E710B532
:1001500013460A4604461946FFF7F0FF204610BD35
:10016000064C0125064E05E0E36807CC2B430C3C0A
:1001700098471034B442F7D3FFF7A2FFEC290008E8
:100180000C2A000810B5244800788006C00F00280B
:100190003DD022480078C007C00F002837D1204842
:1001A0000078C007C00F002831D11D480078000733
:1001B000C00F00282BD11B480078022827DB1748E6
:1001C000007840084000401C1449087000F04EF9C7
:1001D0001548008801F092FC7D2000011349088039
:1001E000134800784007C00F00280DD01048007851
:1001F000042188430E49087000200E4908700E48FB
:1002000000680E49086002E001200A49087001F008
:100210003BFA02F0F5F810BD0300002004000020B6
:100220000600002026000020000000201E00002004
:100230000500002028000020300000202C000020B5
:100240000148024908607047AAAA00000030004037
:1002500010B504463D480078032803D1052C0EDA7A
:1002600005240CE039480078022803D1062C06DA70
:10027000062404E035480078012800D100243448E1
:100280000078C009002802D0062C00DA0624032CCE
:1002900021D0052C12D0062C29D1A0012D4908808F
:1002A0000846008800F022F929480078C009002893
:1002B00003D12848008801F021FC44E0FF202130D0
:1002C000244908800846008800F010F92148008879
:1002D00001F014FC37E0C0201E4908800846008861
:1002E00000F004F91B48008801F008FC2BE0FF2017
:1002F0008130184908800020174908701448007898
:100300000821884312490870FF20013013490881F1
:1003100000010881124908814000088140000881DD
:1003200000F05AF8012040030E490881084800787F
:100330008021884306490870084600784021884398
:100340000349087000BF00BF10BD00002600002058
:1003500005000020000000202900002020000048A7
:10036000200400482008004810B5144840680121C6
:10037000C903884311494860104840380068400864
:1003800040000E49403908604B22C9140920C006BC
:1003900001F049FB0120C0020921C9068861002043
:1003A00007490880074908800749088007490880ED
:1003B0000880074908700749086010BD402C0140BB
:1003C0004C0000204E000020500000205200002071
:1003D000560000205C00002010B51B484068012139
:1003E000C9038843184948601748403800684008E6
:1003F00040001549403908604B22C9140920C00645
:1004000001F011FB0120C0020921C90688614000EA
:100410000E49088140000881400008810C4800789E
:10042000400840000A49087000200A4908800A492B
:1004300008800A4908800A4908800880094908702C
:100440000949086010BD0000402C0140200400480C
:10045000040000204C0000204E000020500000202E
:1004600052000020560000205C00002010B5154806
:10047000008800F071F9144800680121084312490E
:1004800008601148403040680121C90308430E4903
:10049000403148600D48007840084000401C0B493E
:1004A000087000200A4908800A4908800A49088023
:1004B0000A4908800A4908800A4908700A49086000
:1004C00010BD000000000020002C014004000020AE
:1004D0004C0000204E000020500000205200002060
:1004E00054000020560000205C00002001490864F0
:1004F00070470000002C014000BFFEE710B500F07F
:100500001DFB0349088000F09FFF00F0E3FE10BDD3
:10051000680000201348406A0121084311494862DD
:1005200000BF1048406A0221084040080028F8D067
:100530000D480E49086003204860FF20393088606C
:1005400000BF0A48C0680949C96802221140490829
:1005500008400028F5D106480449086005480860AD
:100560007047000000100240555500000030004068
:10057000AAAA0000CCCC000010B56F484069012148
:10058000490408436C4948610846406901218904CF
:10059000084369494861084640690121C904084384
:1005A00065494861102201210920C00601F03BFA8B
:1005B000102202210920C00601F035FA1022042180
:1005C0000920C00601F02FFA102208210920C006D8
:1005D00001F029FA102211460920C00601F023FA81
:1005E00010228021554801F01EFA4B220121C90238
:1005F0000920C00601F017FA4B2201210903092046
:10060000C00601F010FA4B22FF2101310920C0067B
:1006100001F009FA4B2201218902494801F003FA4D
:100620004B220121C902464801F0FDF94B2201216C
:100630000903434801F0F7F94B22012149034048DF
:1006400001F0F1F94B22012189033D4801F0EBF95A
:100650004B220121C9033A4801F0E5F94B22402120
:10066000374801F0E0F94B228021354801F0DBF9F1
:100670004B2201214903334801F0D5F9042001F050
:10068000D1FD0120C0032E4920310881401008818E
:10069000401008814010088140100881C0102A498C
:1006A0000881C0000921C906886140102449886179
:1006B0000921C906098AC807C00F244909784908D1
:1006C00049000143214A11700921C906098A022201
:1006D000114049084900114008461C4909789143D6
:1006E00001431A4A11700921C906098A04221140DE
:1006F000890889001140084614490978914301434B
:10070000124A1170114609784807400FFFF7A0FD03
:10071000012040030B4988610D48007840084000E3
:10072000401C0B4908700B480078802188438030BA
:100730000849087010BD0000001002400014004875
:10074000000400480008004820000048080000207D
:10075000030000200400002010B58AB004461D48A4
:1007600080690121C90208431A4988610222C9141B
:100770000920C00601F024F99B220121C9020920A9
:10078000C00601F050F90520C0010890002168461C
:100790008183C183818408A8817107A90E4801F073
:1007A00033FC70216846C18001210181042141810F
:1007B000022181820021C182FF21013101830021B8
:1007C000418303218180049401A9034801F0B0FC16
:1007D0000AB010BD00100240002C01401FB5204897
:1007E00040690121890408431D4948610846C069E0
:1007F000022108431A49C86101221021194801F059
:10080000DFF88B221021174801F00DF901220F218A
:10081000154801F0F7FC002168468180C180012164
:100820000181002141810F21818101A90E4801F040
:1008300058FC0D480068012108430B490860084630
:10084000C068022108430849C86010216846017049
:10085000002141700121817001F0B0F91FBD00003D
:100860000010024000040048000400401FB5164874
:10087000C069102108431449C8611448029000213E
:10088000684681808181C18001A9114801F0BCFBCB
:1008900001220F210E4801F0B5FC112168460170BC
:1008A000042141700121817001F088F90848C06875
:1008B000012108430649C860084600680121084331
:1008C000034908601FBD000000100240E70300005C
:1008D0000010004000B587B0182101A8FFF735FCD3
:1008E000264880690121890308432449886101223F
:1008F00049150920C00601F063F801229102092080
:10090000C00601F05DF8892203214902D00601F0FA
:100910008AF800BF1948C0680121890308431749B4
:10092000C8600846C0680121890388431349C8602C
:1009300000BF4B20C0010190002002900390049062
:1009400006900C20059001A90D4801F09BFC1B218D
:1009500068460170042141700121817001F02EF977
:1009600007480068202108430549086008460068D8
:10097000012108430249086007B000BD0010024091
:100980000038014010B501F0DFF91C480068012172
:1009900008431A49086008460068022108404008D8
:1009A000002827D0112016490860002001F006FA1F
:1009B000002001F019FA0121C904002001F020FAF9
:1009C0000E4800680121090608430C49086000BF71
:1009D0000A480068012149060840400E0028F7D067
:1009E000022001F025FA00BF044840680C210840AD
:1009F0000828F9D1122001F0EBF910BD00100240D7
:100A0000002002400B48806880210840C00900286F
:100A10000FD00848006849020843064908600846A4
:100A200080680321C9020843024988600120C0058B
:100A300088607047001002407047000010B500F059
:100A400039FD334800784006C00F00285DD031489A
:100A50000088002859D12E480078402188432C492D
:100A6000087064202B49088007212B4800F07EFD88
:100A70002A49C880072128481C3000F077FD274903
:100A800048810A465189264A1288264B5A43104605
:100A9000FFF740FB244908602049C988224A1268B0
:100AA000514308462149FFF71FFB2149C8802148CF
:100AB0000078042809D10846C0881F49884204DA12
:100AC000022001F0AFFB012010BD1A480078022877
:100AD0000AD11748C0887D21C900884204DA012064
:100AE00001F0A0FB0120EFE71248007801280AD1AD
:100AF0000F48C0885F21C900884204DA002001F055
:100B000091FB0120E0E70020DEE70120DCE70000A8
:100B1000040000200A000020CA00002088000020F5
:100B200068000020E40C000020000020FF0F0000FF
:100B30009400002027000020A40600000148408BFC
:100B400070470000A0F7FF1F7047000010B517485E
:100B50000078C006C00F002826D014480078102165
:100B600088431249087012A000F0BAFA19480168C7
:100B700019A000F0B5FA1C4801881CA000F0B0FADA
:100B80001948418821A000F0ABFA1748818827A0B6
:100B900000F0A6FA1448C1882CA000F0A1FA12486F
:100BA000018932A000F09CFA10BD00000300002073
:100BB0000D0A323032362E30382E31342C536F66D7
:100BC000742056657273696F6E20302E30370D0AAF
:100BD000000000005C00002046616E2052504D2055
:100BE0003D2025640D0A000094000020414443206C
:100BF000436F7665725F56616C7565202020203DDD
:100C0000202564286D56290D0A0000004144432028
:100C100057617465722050756D7020202020203D32
:100C2000202564286D56290D0A0000004144432008
:100C3000536F6C656E6F69642076616C7665203DDC
:100C4000202564286D56290D0A00000041444320E8
:100C5000547970654320506F776572494E20203D6E
:100C6000202564286D56290D0A00000041444320C8
:100C7000506F776572204443323456202020203D47
:100C8000202564286D56290D0A00000011201D49F9
:100C900008601D4840681C49486008464068486034
:100CA000084640687B21C9038843174948600846C5
:100CB00040680521C9040843134948600846006894
:100CC0000121090608431049086000BF0E4800686A
:100CD0000121490608400028F8D00B4840688008E8
:100CE00080000949486008464068022108430649D7
:100CF000486000BF044840680C2108400828F9D12A
:100D000070470000002002400010024010B501F0C2
:100D10007DFA10BD10B51B48006801210843194930
:100D20000860084640681849084016494860084667
:100D30000068164908401349086008460068012108
:100D4000890488430F490860084640683F21090428
:100D500088430C4948600846C06A00090001C8621F
:100D60000846006BFF215431884306490863084652
:100D7000406B40084000486300208860FFF786FF12
:100D800010BD0000001002400CB8FF08FFFFF6FE87
:100D900010B53948006902210840400800286AD08F
:100DA00036483549086136480078002807D108469A
:100DB000406B344908800120314908705BE03048BD
:100DC0000078012857D100202D4908702A48406B2F
:100DD0002D490880084600882A490988884207DD8D
:100DE0002948008827490988401A2849088013E0C3
:100DF000254800882349098888420ADA2148008862
:100E00000021C943081A2049098840181F49088051
:100E100002E000201D4908801D480078401C1C4944
:100E200008700846007801280AD118490988194A2B
:100E3000514308461849FFF76DF9184908801AE030
:100E400013480078022816D10020114908700F4974
:100E50000988104A514308460F49FFF75BF91049CA
:100E600008800E4800880A46128881180D48FFF74E
:100E700051F90D49086010BD00040040FDFF00005D
:100E8000560000204C0000204E00002050000020A2
:100E9000640000201027000040420F005200002094
:100EA00054000020C02709005C00002010B5524803
:100EB0000069C007C00F00287ED050484E49086125
:100EC0004F480088002804D04D480088401E4C49F7
:100ED00008804C480068002804D04A480068401E3A
:100EE0004849086048480068002804D0464800681F
:100EF000401E4549086045480088002804D0434802
:100F00000088401E4149088041480088002804D0DC
:100F10003F480088401E3E4908803E48006800283F
:100F200004D03C480068401E3A49086000F0CEFDFD
:100F300039480088401C3849088008460088FF214D
:100F40002D31884256DB0020334908803348007831
:100F5000C007C00F002815D031480078401C304928
:100F6000087008460078012803D1C0032D49886124
:100F700013E000202A4908700120C00329492031CC
:100F800008810AE026480078012803D1C0032549DA
:100F9000203108810020224908702048007880070D
:100FA000C00F002803D120480078002817D01F4820
:100FB0000078401C1D4900E01CE0087008460078DD
:100FC000012803D1C0021749886113E000201749A6
:100FD00008700120C0021349203108810AE013483B
:100FE0000078012803D1C0020E4920310881002079
:100FF0000E49087010BD000000100040FEFF000008
:101000000A0000200C000020140000201C0000201A
:101010001E0000202C0000205800002005000020A9
:10102000600000200004004806000020610000204D
:101030002648C069202108404009002845D023489F
:10104000203080882249087008460078282805D07A
:10105000204800780007C00F002836D01D480078CF
:101060000821884308301B490870194801781A483C
:1010700002780078401C184B1870184881541846A4
:101080000078092806DC18460078401E1349085CE1
:1010900029281AD11148407852280AD10F4880785F
:1010A000292806D10B4800781021884310300949BF
:1010B00008700020084908700849887008700548C1
:1010C00000780821884303490870704700380140C0
:1010D000660000200300002065000020F4000020CE
:1010E0000FB410B503A9044B044A029800F026F887
:1010F00010BC08BC04B01847711700088400002019
:1011000030B47446641E2578641CAB4204D3635D1E
:101110005B00E31830BC18471D46F8E702E008C83A
:10112000121F08C1002AFAD170477047002001E061
:1011300001C1121F002AFBD170470000FFB58DB01E
:101140000446002506E025280AD0109A0F999047FA
:10115000641C6D1C20780028F5D1284611B0F0BD24
:1011600000270121484A009700E00743641C2378C8
:101170000846203B98401042F7D120782E2817D1FE
:10118000042007436078641C2A280CD10E98641C44
:1011900002C800910E900BE000990A2251433039A9
:1011A0004018641C00902078014630390929F3D991
:1011B00020780028D1D0642808D0692806D0752866
:1011C0001ED0109A0F9990476D1C5BE00A200E9973
:1011D000019001C90E91002802DA40422D2102E05F
:1011E000390504D52B216A461172012103E0F90764
:1011F00004D02021F7E70BAE0B910DE00021FAE7B8
:101200000A200E99019001C90E91F7E70199FEF7A6
:101210006BFF3031761E31700028F7D103A8801B98
:1012200020300190780701D5009801E0012000905E
:101230000199884201DD401A00E00020002700905B
:1012400006E002A8109AC05D0F9990476D1C7F1CA4
:101250000B988742F5DB04E0109A30200F999047F5
:101260006D1C0099481E00900029F5DC05E03078DF
:10127000109A761C0F9990476D1C0199481E019099
:101280000029F4DC641C65E70928010030B501463B
:101290000020002200238C680125ED072C438C6080
:1012A00000BF8C68E30FDB07521C0F242403A2420B
:1012B00001D0002BF5D18C68E40FE407002C01D19C
:1012C000086C00E0002030BD836A0B4383624261FA
:1012D0007047000000B587B03B48406903214904CE
:1012E0000843394948610846806949150843364929
:1012F0008861C022E0210920C00600F094FBC022D2
:101300000321324800F08FFB314800F079F801A842
:1013100000F064F800200190012069460872002066
:1013200003900590069001A9294800F009F90722C9
:1013300020212748FFF7C8FF072240212448FFF754
:10134000C3FF072280212248FFF7BEFF0722FF21AB
:1013500001311F48FFF7B8FF0722012149021C484D
:10136000FFF7B2FF0722012149041948FFF7ACFF3C
:101370001848806801218905084316498860144887
:10138000FFF784FF0221124800F08EF812488068AF
:1013900001210843104988600D48C06801210843B5
:1013A0000B49C860084680680121084308498860E5
:1013B00000BF07480068C007C00F0028F9D00448E4
:1013C00000F014F807B000BD00100240000400480F
:1013D000002401400027014000000240002101607C
:1013E00001718160C16001614161704781681022B3
:1013F00011438160816804221143816070470000BD
:101400000E49884218D10E49C968421511430C4A49
:10141000D1601146C96842159143094AD160002143
:10142000016041608160C160016141610549016203
:101430000021816201644160704700000024014086
:10144000001002400000FF0F00B58BB01248406949
:101450000121084310494861104800F0C7F81048BE
:101460000090104801900020029006200390002078
:101470000490802005904000069080000790202076
:1014800008900002099000200A906946034800F085
:10149000CDF80BB000BD0000001002400800024073
:1014A00040240140FE000020C26802239A430A4300
:1014B000C26070471C4800680221084040080028AC
:1014C00030D002201849486000201849087013E005
:1014D0001648007840001649095A144800780E2230
:1014E0005043144A8018144A1278520081520F480F
:1014F0000078401C0D4908700C4800780628E7DB8E
:101500000D480078401C0C490870084600780728F0
:1015100008DB0020087009480078402188434030EB
:101520000649087070470000000002406B00002070
:10153000FE000020A00000206A000020040000201F
:1015400010B50B795B030A681A438B681A43CB68A2
:101550001A430B691A434B691A43C368024C234070
:101560001A43C26010BD000003D2FFFFF8B5044665
:101570000E460027002500200090032E00DAF8BD5B
:1015800000271BE0002514E06800215A681C400079
:10159000205A81420BDD6800205A0090681C4000F0
:1015A000205A69006052691C490000986052681C0A
:1015B000C5B2701EA842E7DC781CC7B2B742E1DBB7
:1015C00000200090012707E07800215A00980818B1
:1015D00080B20090781CC7B2B01EB842F4DAB11ED7
:1015E0000098FEF797FD80B2C9E7000010B50446E9
:1015F00020680C4908402060002020606060A060E6
:10160000E0600949611A084608380521FEF76CFDBB
:1016100001460F2088400449496808430249486050
:1016200010BD0000FEFF00000000024010B50022C7
:10163000124C0B68A34203D0114C0B68A34202D199
:1016400003231B034B6202680E4B1A400C6A8B6823
:1016500023430C6923434C6923438C692343CC699E
:1016600023434C6A23438C6A23431A430260CB68AA
:1016700043600B6883604B68C36010BD2854004012
:10168000285800400F80FFFF10B52C480078C00795
:10169000C00F002851D02A48007800284DD0274894
:1016A000007840084000254908702648007820212D
:1016B0008843244908700020234908702348007893
:1016C00008218843214908700020214908702149D8
:1016D0000870214908800120000320490881FEF795
:1016E0007BFE17480078C007C00F00280AD01748B3
:1016F000007804218843001D1449087018480068C8
:10170000184908600D4800784007C00F00280AD02B
:101710000E4800781021884310300C490870124898
:10172000006812490860FF2001300C490881034815
:101730000078042188430149087010BD040000208E
:1017400006000020030000202800002005000020E3
:1017500071000020700000201E00002020000048C2
:101760002C000020300000200C0000201000002081
:10177000C2B2064B1A8100BF044A203AD2698023C4
:101780001A40D209002AF7D07047000020380140E3
:1017900010B57C4800784006C00F00287CD07948FE
:1017A0000078402188437749087007217648FFF781
:1017B000DDFE76490880072173480E30FFF7D6FE1C
:1017C00072494880072170481C30FFF7CFFE6F49EF
:1017D000888007216C482A30FFF7C8FE6B49C88013
:1017E000072169483830FFF7C1FE684908810721A1
:1017F00065484630FFF7BAFE644948810A46518978
:10180000634A1288634B5A431046FEF783FC6249D1
:1018100008605E490988604A1268514308465F497A
:10182000FEF762FC5E490880584949885A4A1268A6
:10183000514308465949FEF757FC594948805349D6
:101840008988554A1268514308465449FEF74CFCB2
:10185000534988804D49C9884F4A12685143084608
:101860004E49FEF741FC4E49C880484909894A4A19
:101870001268514308464949FEF736FC4849088139
:10188000084600884749884207DB474800784008F7
:1018900040004549087007E073E04348007840087D
:1018A0004000401C404908703D48C0883D495A31BD
:1018B000884203DD04203D49087016E03848C0889E
:1018C0007D21C900884203DD0320384908700CE0FF
:1018D0003348C0885F21C900884203DD02203349B4
:1018E000087002E00120314908702D488088CA281C
:1018F00003DB01202E49087002E000202C4908700B
:1019000027484088502803DC01202A4908702AE033
:101910002348408850280DDD21484088962809DC5E
:1019200002202449087024480078400840002249D9
:10193000087018E01A48408896280DDD184840883D
:10194000C82809DC03201B4908701B4800784008A0
:1019500040001949087006E011484088C82802DD97
:10196000042014490870154800782021884320304D
:1019700012490870084600784021884340300F49DA
:10198000087010BD04000020A00000208800002086
:1019900068000020E40C000020000020FF0F000081
:1019A00094000020DC050000060000202600002036
:1019B0002500002024000020050000200300002056
:1019C0007CB5034600200024009401941C6A009416
:1019D0005C6A019420E0CC07E40F002C19D0C410FD
:1019E000A4006D462D594407E60E0724B440A543D4
:1019F000C410A4006E463551C410A4006D462C5985
:101A00004507EE0E1546B5402C43C510AD006E4699
:101A10007451441CE0B249100029DCD1009C1C62C6
:101A2000019D5D627CBDF0B586B0002300240025D9
:101A3000039504950595C0251540AD0902953025FF
:101A400015402D0901950C2515400095009D0C2D84
:101A500003D185880D43858005E0009D082D02D1C6
:101A600085888D4385801DE0CD07ED0F002D16D0B4
:101A70005E000325B5402C439507AD0F5E00B540D1
:101A8000039E354303955F00029DBD40049E2E4397
:101A900004965F00019DBD40059E2E4305965D1C8A
:101AA000EBB249100029DFD18568A543039E354379
:101AB00085600568A543049E35430560C568A54358
:101AC000059E3543C56006B0F0BD000010B500F0BE
:101AD000B9F9084800780007C00F002802D000F0CC
:101AE00037FC05E00448007810218843024908705B
:101AF00010BD00000500002004000020C0281ED0FA
:101B00000146FF39213900290CD0602922D1012159
:101B10000903164A91614900144A20321181490093
:101B2000118121E001210903104A2032118149006D
:101B30000E4A916149000D4A2032118114E00121C1
:101B400009030A4A20321181490011814900074ADC
:101B5000916109E001210903044A20321181490001
:101B600011814900118100BF00BF70470004004887
:101B7000FEF7D0FCFEF706FFFEF7FEFCFEF776FE52
:101B8000FEF7A8FEFEF72AFEFEF7B8FC64200A491D
:101B9000088001E0FEF754FBFEF750FF0028F9D162
:101BA00009E0FEF74DFBFFF785FCFFF7F1FDFEF7BF
:101BB000E9FAFEF7CBFFF4E70A000020817800295C
:101BC00025D0174903221202891802789210920038
:101BD000895802789207D30EFF229A4091434278A7
:101BE0009207120E03789B07DB0E9A4011430C4AB2
:101BF00003231B02D21803789B109B00D15001785D
:101C0000CA06D20E01219140054A116007E0017811
:101C1000CA06D20E01219140014A803211607047FC
:101C200000E100E0FEB504460025002002900027F8
:101C3000002601900090404840680C21084005466D
:101C4000002D04D0042D05D0082D2BD105E03B48F4
:101C500020602AE03948206027E0374840680F219B
:101C6000890408400646344840680321C9030840F7
:101C70000190B00C861C0198002804D130463049F0
:101C8000484300900BE02C48C06A0007000F401C3E
:101C900002902A480299FEF727FA704300900098B4
:101CA000206002E02548206000BF00BF2248406855
:101CB000F021084005462D092248475D2068F8407C
:101CC00060601D48406807210902084005462D0A4A
:101CD0001C48475D6068F840A0601748006B102101
:101CE0000840102802D01548E06001E02068E0605C
:101CF0001148006B8007800F002802D1A068206186
:101D000019E00D48006B8007800F012802D1206880
:101D1000206110E00848006B8007800F022802D184
:101D20008003206107E00448006B8007800F0328D0
:101D300001D102482061FEBD0010024000127A006D
:101D400000093D0072000020194800680121084385
:101D50001749086008464068164908401449486019
:101D600008460068144908401149086008460068A0
:101D70000121890488430E490860084640687F2194
:101D8000C90388430A4948600846C06A000900013F
:101D9000C8620846006B132188430549086308465A
:101DA000406B400840004863002088607047000096
:101DB000001002400CB8FF00FFFFF6FE034949681F
:101DC000F02291430143014A5160704700100240E4
:101DD00004490968F8229143C2001143014A116085
:101DE00070470000001002400449496807221202AF
:101DF00091430143014A51607047000000100240C6
:101E00000A4AD26A1209120103071B0F1A43074B31
:101E1000DA621A4652687B23DB039A430323DB030F
:101E200003400B431A43014B5A60704700100240B5
:101E300003494968890889000143014A5160704794
:101E40000010024010B56B480078401C69490870CA
:101E5000084600780A287ADB002008700921C906A4
:101E6000098AC807C00F6449097849084900014335
:101E7000614A11700921C906098A022211404908E4
:101E80004900114008465C490978914301435A4A88
:101E900011700921C906098A0422114089088900A4
:101EA000114008465449097891430143524A117040
:101EB000524800784007400F114609784907490FFA
:101EC000884277D000204E4908704E480078401C68
:101ED0004C490870084600780A28BCDB1046007898
:101EE0004007400F072833D10846007832287FDBAF
:101EF00000200870414800784008400011460978E9
:101F0000C907C90F08433D490870084600780221F7
:101F10008843114609788907C90F490002221140F8
:101F2000084336490870084600780421884332493E
:101F300009784907C90F89000422114008432F4935
:101F400008702D4909784807400FFEF781F94FE0E6
:101F500000202C4908702948007840084000264994
:101F60000978C907C90F0843244908700846007852
:101F700002218843204909788907C90F49000222B4
:101F8000114008431D490870084600780421884321
:101F9000194909784907C90F8900042211400843EB
:101FA00016490870144909784807400FFEF750F9A0
:101FB0001EE0FFE700201349087010480078400732
:101FC000400F0D4909784907490F884210D10C4844
:101FD0000078401C0A49087008460078322807DB60
:101FE00000200870044909784807400FFEF730F9CF
:101FF00010BD000041000020070000200800002064
:1020000042000020400000201A4A904206D00122DF
:102010009207904202D0184A904205D1026870237C
:102020009A434B881A430260144A904206D00268D1
:1020300003231B029A430B891A4302604A68C26257
:102040000A8882620B4A904208D00D4A904205D01D
:102050000C4A904202D00C4A904208D14A88102A79
:1020600003D18A7A521C026301E08A7A0263012258
:1020700042617047002C0140000400400010004005
:10208000004001400044014000480140FFB50023EA
:1020900000244B10CC07E40F056A8F000126BE40D8
:1020A000B54305629E0005461835AD59E700F32695
:1020B000BE40B543099E3601039F3E43E700BE4044
:1020C00035439E0007461837BD51056A8F000A2622
:1020D000BE40B543012616438F00BE40354305621E
:1020E000FFBD38B505460C4620890090A38862885C
:1020F00021782846FFF7CAFFE2882178284600F0B9
:1021000001F838BD30B54B109C00034618331B59FD
:10211000CC07250F0C24AC40A343CC07250F144655
:10212000AC4023434C10A50004461834635130BD25
:1021300030B50A4600215388602B08D1036810246B
:102140002340102B03D1836A002B00D030BD1178BF
:10215000036A8D000124AC40A34303624B109C0032
:10216000034618331B59CC07250F7324AC40A343F7
:102170005488CD072D0FAC4023434C10A5000446D6
:1021800018346351036A8D000324AC40A343148ABE
:1021900095882C438D00AC4023430362154B984235
:1021A00008D0154B984205D0144B984202D0144BDE
:1021B000984218D1036A8D000C24AC40A343548A82
:1021C000D5882C438D00AC402343036243684D0007
:1021D00003242402AC40A343948AD58A2C434D00A7
:1021E000AC40234343608D0003463433D4685C51D4
:1021F00000BFABE7002C014000400140004401401B
:102200000048014081624261704700000448006854
:10221000002804D002480068401E01490860704749
:1022200038000020012804D002280BD004281ED139
:1022300013E08021114A9161402191610121104AEE
:10224000117018E080210D4A916140210B4A203223
:10225000118102210A4A11700DE08021074A2032C3
:102260001181402111810421054A117003E00021F0
:10227000034A117000BF00BF70470000000400480F
:1022800027000020F0B587B004460D460026002741
:10229000002006902068400840002060606803210C
:1022A00009038843A96808436060E96868680843CF
:1022B000296908432168234A114008432060A06827
:1022C00003210902884369690843A06001A8FFF758
:1022D000A9FC1D48844201D1059F00E0039F2068AE
:1022E0000121C903084000280AD078002968FDF7B9
:1022F000FBFE064678002968FDF7F6FE069109E028
:1023000038462968FDF7F0FE064638462968FDF78D
:10231000EBFE0691286841080698814200D8761C99
:1023200020680121C9030840002808D03007400F69
:102330000690304605490840069908430646A6819E
:1023400007B0F0BDF3E9FFFF00380140F0FF0000E7
:102350000920C006008A10210840000900281ED16B
:1023600025480078C006C00F002818D02348007800
:10237000401C224908700846007832283ADD0020C7
:1023800008700920C006008A1021084000090028B2
:1023900030D1194800788843174908702AE009208D
:1023A000C006008A10210840000900281FD01248EA
:1023B0000078C006C00F002819D110480078401CD2
:1023C0000E49087008460078322813DD0020087096
:1023D0000920C006008A102108400009002809D001
:1023E00005480078884310300349087002E0002057
:1023F00002490870704700000400002046000020D9
:1024000010B5FE480078C007C00F00287ED0FC48F9
:1024100000780300FEF774FE05042662FEFDFC0052
:102420000020F8490860F8490880F4480078042141
:102430008843F2490870F548007808218843F34939
:1024400008700020F2490870F2490870F2480078DC
:10245000012806D1F1480068002802D10120E8498E
:102460000870ABE2E8480088002836D1EA480078D6
:10247000002803D1EA48E34908600DE0E34800780A
:10248000C006C00F002804D0E6480068DD49086097
:1024900002E0E548DB4908600120DF4908700002DE
:1024A0000921C9068861D548007804218843001DA8
:1024B000D2490870D548007808218843D34908706C
:1024C000DA48007840218843D8490870FF20F53069
:1024D000CD4908800220CA4908706FE2CA480088C6
:1024E00000286ED1FF20F530C7490880CF4800781A
:1024F0004006C00F002864D0C04800784007C00FD5
:102500000028F8D0C9480078402100E057E288430D
:10251000C6490870C6480078012802D004287AD13C
:1025200050E00020BB490870B9480078401CB84909
:10253000087008460078062842DB00200870FF205B
:102540000130BC490881AD48007804218843AB497B
:102550000870AE48007808218843AC490870A94843
:102560000068B5490860B5480078022809D1A74835
:102570000078402188434030A4490870FDF7F4FEFC
:1025800012E0AE48007803280ED1A04800788021E0
:10259000884380309D490870FF208130A849088019
:1025A00008460088FDF7A2FF012000030921C906A3
:1025B0008861032092490870FF20F5309249088015
:1025C0003DE03DE000209249087092480078401CB0
:1025D00090490870084600780A2829DB0020087016
:1025E000FF200130934908810001088100208549BE
:1025F0000860824800780421884380490870834835
:10260000007808218843814908700846007803E073
:10261000D3E1B8E03FE00CE002218843801C7B4915
:10262000087000207D4908607B4908707449087073
:1026300005E00020764908707649087000BF00BFA9
:1026400070480068002805D06C480078C006C00FAC
:1026500000281FD0FF200130764908810001088141
:102660006648007804218843644908706748007808
:102670000821884365490870002063490880614942
:1026800008605F49087064480078002802D06D48EF
:102690006249086092E15C48008800282BD1FF2045
:1026A00001300921C906886158480078082188430B
:1026B0000830564908705148007804218843001DAD
:1026C0004E4908705948007840218843574908709E
:1026D000594800687D21490140184A490860042092
:1026E0004749087000204B49087049490870FF208D
:1026F000F5304549088043480068002805D03F4828
:102700000078C006C00F00283CD0FF2001304949A6
:10271000088146480078402188434449087037487A
:10272000007804218843354908703848007808212A
:1027300088433649087000203249086032490880D1
:10274000012000033B49088100202D4908702F48D3
:102750000078802188432D4908702F480078002890
:1027600002D038482D490860284800784006C00F3C
:10277000002807D025480078402188432349087065
:10278000FDF774FE1AE12048008800287ED1FF2062
:10279000F5301D490880254800784006C00F002804
:1027A00074D0164800784007C00F0028F8D01F48A2
:1027B0000078402188431D4908701D480078012891
:1027C00002D004287ED16CE0002012490870104825
:1027D0000078401C0E4908700846007806285FDB28
:1027E00000200870FF20013012490881034800785A
:1027F0000421884301490870044825E004000020B2
:10280000280000200C0000201E00002005000020F1
:102810007000002071000020290000202C00002002
:10282000983A00001000002010270000030000204C
:1028300024000020200000486C000020260000201A
:1028400000000020C02709000078082188435C4967
:102850000870012000035B4908815948007840084E
:102860004000401C564908705748584908600020ED
:1028700057490870524800788021884350490870B1
:10288000084600784006C00F002800E053E007D05B
:10289000084600784021884349490870FDF7E6FD65
:1028A00048E000204B4908704B480078401C4A49DA
:1028B0000870084600780A2821DB00200870FF20F5
:1028C000013000E030E03F490881444800780421AD
:1028D0008843424908703A480078082188433849BB
:1028E00008700846007802218843801C344908702B
:1028F0000020374908703549086039490870304868
:102900000078802188432E490870084600784006E8
:10291000C00F002807D00846007840218843284986
:102920000870FDF7A3FD05E000202A4908702A4938
:10293000087000BF00BF2B480068002805D027485A
:102940000078C006C00F002836D0FF2001301D4996
:1029500008812248007804218843204908701848DB
:102960000078082188431649087000201D49086036
:102970001D490880012000031249088100201449E4
:1029800008700F480078802188430D49087014486A
:102990000078002802D00C480C49086008480078EC
:1029A0004006C00F002807D0054800784021884322
:1029B00003490870FDF75AFD00E000BF00BF10BDDD
:1029C0000500002020000048C02709002C0000203E
:1029D000280000207000002071000020040000206A
:1029E000290000200C0000201E0000200C2A0008F6
:1029F00000000020880000001C110008942A000834
:102A000088000020880400002C11000880010000CC
:102A100000000000000000000000000000000000B6
:102A200000000000000000000000000000000000A6
:102A30000000010000000000000000000000000095
:102A40000000000000000000000000FF0000000087
:102A50000000000000000000000000000000000076
:102A60000000000000000000000000000000000066
:102A70000000000000000000000000000000000056
:102A80000000010203040102030406070809000014
:042A90000000000042
:04000005080000B936
:00000001FF
