:020000040800F2
:1000000010050020CD0000080D0A00082D0500088D
:1000100000000000000000000000000000000000E0
:10002000000000000000000000000000510B00086C
:100030000000000000000000410A0008150D000843
:10004000DF00000800000000DF000008DF000008FB
:10005000DF000008DF000008DF000008DF00000804
:1000600000000000DF000008DF000008DF000008DB
:10007000DF000008DF000008DF00000800000000CB
:10008000990D0008B50E000800000000DF00000810
:10009000DF000008DF000008DF000008DF000008C4
:1000A000DF000008DF000008DF0000086D10000816
:1000B000DF000008DF0000080348854600F050F824
:1000C00000480047911B00081005002004488047A5
:1000D00004480047FEE7FEE7FEE7FEE7FEE7FEE72F
:1000E0001D0D0008B900000830B50B460146002080
:1000F0002022012409E00D46D5409D4205D31D462E
:100100009540491B2546954040191546521E002D25
:10011000F1DC30BD70B500242546002801DA012449
:100120004042002901DA01254942FFF7DDFFAC42D8
:1001300000D04042002C00D0494270BDD2B201E054
:100140000270401C491EFBD270470022F6E710B532
:1001500013460A4604461946FFF7F0FF204610BD35
:10016000064C0125064E05E0E36807CC2B430C3C0A
:1001700098471034B442F7D3FFF7A2FFD82A0008FB
:10018000F82A000810B5244800788006C00F00281F
:100190003DD022480078C007C00F002837D1204842
:1001A0000078C007C00F002831D11D4800784007F3
:1001B000C00F00282BD11B480078022827DB1748E6
:1001C000007840084000401C1449087000F068F9AD
:1001D0001548008801F0A2FC7D2000011349088029
:1001E000134800788007C00F00280DD01048007811
:1001F000022188430E49087000200E4908700E48FD
:1002000000680E49086002E001200A49087001F008
:1002100059FA02F05FF910BD03000020040000202D
:100220000600002026000020000000201E00002004
:100230000500002028000020300000202C000020B5
:100240000148024908607047AAAA00000030004037
:1002500010B504464B480078032803D1052C0EDA6C
:1002600005240CE047480078022803D1062C06DA62
:10027000062404E043480078012800D100244248C5
:1002800000788006C00F002802D0062C00DA062471
:10029000062C03D0052C01D0032C07D13A48007856
:1002A0004006C00F002801D000F0FAF8032C32D02D
:1002B000052C1DD0062C02D0072C60D13EE0FF207B
:1002C000C130324908800846008800F029F92E48DC
:1002D00000788006C00F002803D12C48008801F068
:1002E0001DFC29480078402188432749087046E0D2
:1002F000FF208130254908800846008800F010F969
:100300002248008801F00AFC1F48007840218843F9
:100310001D49087033E0FF2041301C490880084621
:10032000008800F0FDF81948008801F0F7FB164836
:100330000078402188431449087020E01248007872
:1003400040218843403010490870FF20C1300F49D8
:1003500008800F480078042188430D490870012067
:10036000C0030C490881C0100B4908810949088164
:10037000400008814000088100F048F800BF00BF3D
:1003800010BD000026000020050000200000002015
:1003900004000020200400482000004810B5144844
:1003A00040680121C903884311494860104840381A
:1003B0000068400840000E49403908604B22C914CB
:1003C0000920C00601F051FB0120C0020921C90625
:1003D000886100200749088007490880074908808C
:1003E000074908800880074908700749086010BD60
:1003F000402C0140500000205200002054000020FA
:10040000560000205A0000206000002010B51B4854
:1004100040680121C903884318494860174840389B
:100420000068400840001549403908604B22C91453
:100430000920C00601F019FB0120C0020921C906EC
:10044000886140000E490881400008814000088111
:100450000C480078400840000A49087000200A490A
:1004600008800A4908800A4908800A4908800880EB
:10047000094908700949086010BD0000402C01407E
:1004800020040048040000205000002052000020FA
:1004900054000020560000205A0000206000002078
:1004A00010B51548008800F05BF914480068012178
:1004B0000843124908601148403040680121C903CF
:1004C00008430E49403148600D480078400840001C
:1004D000401C0B49087000200A4908800A4908801E
:1004E0000A4908800A4908800A4908800A490870B0
:1004F0000A49086010BD000000000020002C0140E7
:100500000400002050000020520000205400002071
:1005100056000020580000205A00002060000020F3
:100520000149086470470000002C014000BFFEE74D
:1005300010B500F007FB0349088000F0A3FF00F0AE
:10054000E7FE10BD6C0000201348406A01210843FB
:100550001149486200BF1048406A02210840400823
:100560000028F8D00D480E49086003204860FF209D
:100570003930886000BF0A48C0680949C96802224A
:100580001140490808400028F5D106480449086090
:1005900005480860704700000010024055550000F3
:1005A00000300040AAAA0000CCCC000010B565487D
:1005B000406901214904084362494861084640698D
:1005C0000121890408435F494861084640690121C7
:1005D000C90408435B494861102201210920C00673
:1005E00001F043FA102202210920C00601F03DFA71
:1005F000102204210920C00601F037FA1022082138
:100600000920C00601F031FA102211460920C00667
:1006100001F02BFA102280214B4801F026FA4B22E0
:100620000121C9020920C00601F01FFA4B22012155
:1006300009030920C00601F018FA4B2201218902A2
:10064000424801F012FA4B220121C9023F4801F051
:100650000CFA4B22012109033C4801F006FA4B2217
:1006600001214903394801F000FA4B220121890395
:10067000364801F0FAF94B220121C903334801F051
:10068000F4F94B224021314801F0EFF94B2280214F
:100690002E4801F0EAF94B22012149032C4801F0D0
:1006A000E4F9042001F028FE0120800227492031CE
:1006B0000881000108814010088140100881401025
:1006C00008810001088100110921C9068861098A91
:1006D000C807C00F1F4909784908490001431D4A4E
:1006E00011700921C906098A0222114049084900EE
:1006F000114008461749097891430143154A117082
:100700000921C906098A042211408908890011407B
:10071000084610490978914301430E4A117001209F
:1007200040030B4988610C48007840084000401C99
:1007300009490870094800788021884380300749BA
:10074000087010BD0010024000140048000400486A
:1007500000080048080000200300002004000020DA
:1007600010B58AB004461D4880690121C9020843BA
:100770001A4988610222C9140920C00601F042F911
:100780009B220121C9020920C00601F06EF9052053
:10079000C0010890002168468183C183818408A834
:1007A000817107A90E4801F099FC70216846C1804B
:1007B0000121018104214181022181820021C18224
:1007C000FF210131018300214183032181800494B1
:1007D00001A9034801F016FD0AB010BD0010024047
:1007E000002C01401FB520484069012189040843BD
:1007F0001D4948610846C069022108431A49C86179
:1008000001221021194801F0FDF88B221021174810
:1008100001F02BF901220F21154801F05DFD0021A7
:1008200068468180C18001210181002141810F2121
:10083000818101A90E4801F0BEFC0D48006801212C
:1008400008430B4908600846C0680221084308496C
:10085000C86010216846017000214170012181703B
:1008600001F002FA1FBD0000001002400004004821
:10087000000400401FB51648C06910210843144900
:10088000C861144802900021684681808181C1803E
:1008900001A9114801F022FC01220F210E4801F0AC
:1008A0001BFD1121684601700421417001218170F6
:1008B00001F0DAF90848C068012108430649C86018
:1008C0000846006801210843034908601FBD000075
:1008D00000100240E70300000010004000B587B0A0
:1008E000182101A8FFF731FC2648806901218903FE
:1008F000084324498861012249150920C00601F0F6
:1009000081F8012291020920C00601F07BF88922BA
:1009100003214902D00601F0A8F800BF1948C068B9
:100920000121890308431749C8600846C0680121AE
:10093000890388431349C86000BF4B20C001019060
:10094000002002900390049006900C20059001A9CD
:100950000D4801F001FD1B21684601700421417022
:100960000121817001F080F90748006820210843C7
:1009700005490860084600680121084302490860EB
:1009800007B000BD001002400038014010B501F072
:1009900031FA1C480068012108431A4908600846DA
:1009A0000068022108404008002827D0112016497D
:1009B0000860002001F058FA002001F06BFA0121D4
:1009C000C904002001F072FA0E48006801210906EE
:1009D00008430C49086000BF0A4800680121490625
:1009E0000840400E0028F7D0022001F077FA00BF3F
:1009F000044840680C2108400828F9D1122001F071
:100A00003DFA10BD00100240002002400B488068F3
:100A100080210840C00900280FD00848006849021A
:100A2000084306490860084680680321C902084354
:100A3000024988600120C0058860704700100240AC
:100A40007047000010B500F053FD334800784006B1
:100A5000C00F00285ED03148008800285AD12E48A7
:100A60000078402188432C490870FF20F5302B493D
:100A7000088007212A4800F097FD2A49C8800721ED
:100A800027481C3000F090FD264948810A465189CC
:100A9000254A1288254B5A431046FFF73BFB244951
:100AA00008602049C988224A1268514308462149F2
:100AB000FFF71AFB2049C88020480078042809D194
:100AC0000846C0881E49884204DA022001F014FC5E
:100AD000012010BD1948007802280AD11648C088A4
:100AE0007D21C900884204DA012001F005FC0120C3
:100AF000EFE71248007801280AD10F48C0885F212B
:100B0000C900884204DA002001F0F6FB0120E0E78A
:100B10000020DEE70120DCE7040000200A000020BE
:100B2000CE0000208C0000206C000020E40C0000AF
:100B300020000020FF0F0000980000202700002068
:100B4000A40600000148408B70470000A0F7FF1F7B
:100B50007047000010B517480078C006C00F002885
:100B600026D014480078102188431249087012A03A
:100B700000F0D4FA1948016819A000F0CFFA1C4817
:100B800001881CA000F0CAFA1948418821A000F091
:100B9000C5FA1748818827A000F0C0FA1448C18818
:100BA0002CA000F0BBFA1248018932A000F0B6FA7E
:100BB00010BD0000030000200D0A323032362E3006
:100BC000392E30312C536F66742056657273696FFD
:100BD0006E205445535430310D0A0000600000204F
:100BE00046616E2052504D203D2025640D0A0000C4
:100BF0009800002041444320436F7665725F566140
:100C00006C7565202020203D202564286D56290D17
:100C10000A000000414443205761746572205075FA
:100C20006D7020202020203D202564286D56290D40
:100C30000A00000041444320536F6C656E6F696485
:100C40002076616C7665203D202564286D56290D3F
:100C50000A00000041444320547970654320506FDE
:100C6000776572494E20203D202564286D56290D58
:100C70000A00000041444320506F776572204443CE
:100C8000323456202020203D202564286D56290D21
:100C90000A00000011201D4908601D4840681C49D9
:100CA0004860084640684860084640687B21C903A0
:100CB000884317494860084640680521C90408432D
:100CC0001349486008460068012109060843104995
:100CD000086000BF0E48006801214906084000284E
:100CE000F8D00B48406880088000094948600846F1
:100CF0004068022108430649486000BF0448406834
:100D00000C2108400828F9D170470000002002405B
:100D10000010024010B501F0E3FA10BD10B51B48F9
:100D200000680121084319490860084640681849CD
:100D300008401649486008460068164908401349AB
:100D40000860084600680121890488430F4908604B
:100D5000084640683F21090488430C49486008461A
:100D6000C06A00090001C8620846006BFF215431C7
:100D70008843064908630846406B400840004863C2
:100D800000208860FFF786FF10BD000000100240C1
:100D90000CB8FF08FFFFF6FE10B5394800690221C4
:100DA0000840400800286AD036483549086136486E
:100DB0000078002807D10846406B3449088001209C
:100DC000314908705BE030480078012857D1002095
:100DD0002D4908702A48406B2D4908800846008834
:100DE0002A490988884207DD294800882749098857
:100DF000401A2849088013E02548008823490988BB
:100E000088420ADA214800880021C943081A20498B
:100E1000098840181F49088002E000201D49088009
:100E20001D480078401C1C490870084600780128BD
:100E30000AD118490988194A514308461849FFF749
:100E400069F9184908801AE013480078022816D179
:100E50000020114908700F490988104A514308467B
:100E60000F49FFF757F9104908800E4800880A46D5
:100E7000128881180D48FFF74DF90D49086010BD23
:100E800000040040FDFF00005A0000205000002038
:100E900052000020540000206800002010270000AD
:100EA00040420F005600002058000020C0270900D3
:100EB0006000002010B55D480069C007C00F002821
:100EC00077D05B48594908615A480088002804D007
:100ED00058480088401E5749088057480068002835
:100EE00004D055480068401E5349086053480068C4
:100EF000002804D051480068401E504908605048FE
:100F00000088002804D04E480088401E4C490880C4
:100F10004C480088002804D04A480088401E4949AF
:100F2000088049480068002804D047480068401EEF
:100F30004549086045480068002804D043480068D7
:100F4000401E4249086000F0E2FD41480088401C14
:100F50003F49088008460088FF212D31884264DB24
:100F600000203B4908803B4800784006C00F00281D
:100F700009D039480088002808D037480088401E2A
:100F80003549088002E06420334908803148007800
:100F9000C007C00F002816D030480078401C2F49E9
:100FA000087008460078012804D180022C49886125
:100FB00014E03AE000202949087001208002284905
:100FC000203108810AE025480078012803D18002F9
:100FD00023492031088100202049087021480078E9
:100FE000C007C00F002815D01F480078401C1E49BC
:100FF000087008460078012803D1C00218498861AA
:1010000013E00020184908700120C0021449203163
:1010100008810AE014480078012803D1C002104971
:101020002031088100201049087010BD00100040D8
:10103000FEFF00000A0000200C0000201400002029
:101040001C0000201E0000202C0000203400002086
:101050005C00002005000020380000206400002013
:101060000004004806000020650000202648C069F2
:10107000202108404009002845D02348203080889E
:101080002249087008460078282805D020480078B2
:101090000007C00F002836D01D480078082188437B
:1010A00008301B490870194801781A4802780078FE
:1010B000401C184B187018488154184600780928AD
:1010C00006DC18460078401E1349085C29281AD10E
:1010D0001148407852280AD10F488078292806D133
:1010E0000B4800781021884310300949087000200F
:1010F0000849087008498870087005480078082178
:101100008843034908707047003801406A00002096
:101110000300002069000020F80000200FB410B583
:1011200003A9044B044A029800F026F810BC08BC3E
:1011300004B01847B51700088800002030B4744682
:10114000641E2578641CAB4204D3635D5B00E31826
:1011500030BC18471D46F8E702E008C8121F08C156
:10116000002AFAD170477047002001E001C1121F28
:10117000002AFBD170470000FFB58DB00446002562
:1011800006E025280AD0109A0F999047641C6D1C20
:1011900020780028F5D1284611B0F0BD00270121A4
:1011A000484A009700E00743641C23780846203B28
:1011B00098401042F7D120782E2817D104200743F9
:1011C0006078641C2A280CD10E98641C02C8009117
:1011D0000E900BE000990A22514330394018641CEC
:1011E00000902078014630390929F3D92078002869
:1011F000D1D0642808D0692806D075281ED0109A4E
:101200000F9990476D1C5BE00A200E99019001C96F
:101210000E91002802DA40422D2102E0390504D562
:101220002B216A461172012103E0F90704D0202125
:10123000F7E70BAE0B910DE00021FAE70A200E99BB
:10124000019001C90E91F7E70199FEF74DFF30318A
:10125000761E31700028F7D103A8801B2030019042
:10126000780701D5009801E001200090019988429B
:1012700001DD401A00E000200027009006E002A8EF
:10128000109AC05D0F9990476D1C7F1C0B98874288
:10129000F5DB04E0109A30200F9990476D1C0099FF
:1012A000481E00900029F5DC05E03078109A761C85
:1012B0000F9990476D1C0199481E01900029F4DC9C
:1012C000641C65E70928010030B5014600200022B2
:1012D00000238C680125ED072C438C6000BF8C68CF
:1012E000E30FDB07521C0F242403A24201D0002B82
:1012F000F5D18C68E40FE407002C01D1086C00E004
:10130000002030BD836A0B43836242617047000056
:1013100000B587B03B484069032149040843394977
:101320004861084680694915084336498861C022EA
:10133000E0210920C00600F098FBC02203213248BA
:1013400000F093FB314800F079F801A800F064F850
:10135000002001900120694608720020039005904A
:10136000069001A9294800F009F907222021274801
:10137000FFF7C8FF072240212448FFF7C3FF0722D9
:1013800080212248FFF7BEFF0722FF2101311F48BD
:10139000FFF7B8FF0722012149021C48FFF7B2FFFF
:1013A0000722012149041948FFF7ACFF184880685B
:1013B000012189050843164988601448FFF784FF16
:1013C0000221124800F08EF812488068012108437B
:1013D000104988600D48C068012108430B49C86066
:1013E00008468068012108430849886000BF074813
:1013F0000068C007C00F0028F9D0044800F014F8B6
:1014000007B000BD00100240000400480024014065
:10141000002701400000024000210160017181604D
:10142000C160016141617047816810221143816090
:101430008168042211438160704700000E49884290
:1014400018D10E49C968421511430C4AD1601146A2
:10145000C96842159143094AD16000210160416089
:101460008160C160016141610549016200218162C1
:1014700001644160704700000024014000100240F8
:101480000000FF0F00B58BB01248406901210843EE
:1014900010494861104800F0C7F810480090104803
:1014A00001900020029006200390002004908020EC
:1014B00005904000069080000790202008900002D0
:1014C000099000200A906946034800F0CDF80BB05F
:1014D00000BD00000010024008000240402401400E
:1014E00002010020C26802239A430A43C260704787
:1014F0001C480068022108404008002830D0022023
:101500001849486000201849087013E01648007810
:1015100040001649095A144800780E225043144AD4
:101520008018144A1278520081520F480078401CEB
:101530000D4908700C4800780628E7DB0D48007854
:10154000401C0C49087008460078072808DB00207A
:1015500008700948007840218843403006490870E7
:1015600070470000000002406F00002002010020D0
:10157000A40000206E0000200400002010B50B79AC
:101580005B030A681A438B681A43CB681A430B69DA
:101590001A434B691A43C368024C23401A43C26082
:1015A00010BD000003D2FFFFF8B504460E46002729
:1015B000002500200090032E00DAF8BD00271BE074
:1015C000002514E06800215A681C4000205A81421E
:1015D0000BDD6800205A0090681C4000205A69000A
:1015E0006052691C490000986052681CC5B2701EA8
:1015F000A842E7DC781CC7B2B742E1DB00200090CC
:10160000012707E07800215A0098081880B200905E
:10161000781CC7B2B01EB842F4DAB11E0098FEF7CB
:1016200079FD80B2C9E7000010B5044620680C4976
:1016300008402060002020606060A060E0600949F0
:10164000611A084608380521FEF74EFD01460F20B5
:1016500088400449496808430249486010BD0000B9
:10166000FEFF00000000024010B50022124C0B6883
:10167000A34203D0114C0B68A34202D103231B03E6
:101680004B6202680E4B1A400C6A8B6823430C694C
:1016900023434C6923438C692343CC6923434C6A1D
:1016A00023438C6A23431A430260CB6843600B6870
:1016B00083604B68C36010BD285400402858004028
:1016C0000F80FFFF10B52D480078C007C00F00281D
:1016D00053D02B480078C007C00F00284DD02748B2
:1016E00000784008400025490870264800782021ED
:1016F0008843244908700020234908702348007853
:10170000042188432149087000202149087021499B
:101710000870214908800120000320490881FEF754
:1017200075FE17480078C007C00F00280AD0174878
:10173000007802218843801C14490870184800680A
:10174000184908600D4800784007C00F00280AD0EB
:101750000E4800780821884308300C490870124868
:101760000068124908600120C0031149088103483C
:101770000078042188430149087010BD040000204E
:1017800006000020030000202800002005000020A3
:1017900075000020740000201E000020200000487A
:1017A0002C000020300000200C0000201000002041
:1017B00020040048C2B2064B1A8100BF044A203AF6
:1017C000D26980231A40D209002AF7D0704700005E
:1017D0002038014010B57C4800784006C00F002832
:1017E0007CD07948007840218843774908700721E8
:1017F0007648FFF7D9FE76490880072173480E30F6
:10180000FFF7D2FE72494880072170481C30FFF76D
:10181000CBFE6F49888007216C482A30FFF7C4FE51
:101820006B49C880072169483830FFF7BDFE684919
:101830000881072165484630FFF7B6FE64494881B4
:101840000A465189634A1288634B5A431046FEF791
:1018500061FC624908605E490988604A1268514328
:1018600008465F49FEF740FC5E49088058494988B0
:101870005A4A1268514308465949FEF735FC5949FE
:10188000488053498988554A12685143084654494B
:10189000FEF72AFC534988804D49C9884F4A12688F
:1018A000514308464E49FEF71FFC4E49C88048493F
:1018B00009894A4A1268514308464949FEF714FC0F
:1018C00048490881084600884749884207DB47485D
:1018D0000078400840004549087007E073E043483D
:1018E000007840084000401C404908703D48C088CE
:1018F0003D495A31884203DD04203D49087016E015
:101900003848C0887D21C900884203DD032038495A
:1019100008700CE03348C0885F21C900884203DDAD
:1019200002203349087002E00120314908702D4837
:101930008088CA2803DB01202E49087002E00020BD
:101940002C490870274840883C2803DC01202A499C
:1019500008702AE0234840883C280DDD2148408853
:10196000962809DC022024490870244800784008A1
:1019700040002249087018E01A48408896280DDD7A
:1019800018484088C82809DC03201B4908701B48F8
:101990000078400840001949087006E01148408866
:1019A000C82802DD04201449087015480078202159
:1019B0008843203012490870084600784021884347
:1019C00040300F49087010BD04000020A400002022
:1019D0008C0000206C000020E40C0000200000209F
:1019E000FF0F000098000020DC050000060000202A
:1019F00026000020250000202400002005000020F3
:101A0000030000207CB503460020002400940194CC
:101A10001C6A00945C6A019420E0CC07E40F002C5F
:101A200019D0C410A4006D462D594407E60E0724B2
:101A3000B440A543C410A4006E463551C410A400A0
:101A40006D462C594507EE0E1546B5402C43C51082
:101A5000AD006E467451441CE0B249100029DCD13F
:101A6000009C1C62019D5D627CBDF0B586B00023C8
:101A700000240025039504950595C0251540AD0962
:101A80000295302515402D0901950C25154000952E
:101A9000009D0C2D03D185880D43858005E0009DB8
:101AA000082D02D185888D4385801DE0CD07ED0F7F
:101AB000002D16D05E000325B5402C439507AD0FD1
:101AC0005E00B540039E354303955F00029DBD4017
:101AD000049E2E4304965F00019DBD40059E2E434B
:101AE00005965D1CEBB249100029DFD18568A5433E
:101AF000039E354385600568A543049E3543056014
:101B0000C568A543059E3543C56006B0F0BD10B558
:101B100000F0EEF900F086FC10BD00000146FF3930
:101B2000413900291AD040290BD0802921D14901FF
:101B3000164A91614900154A2032118149001181EC
:101B400021E001210903114A2032118149000F4A85
:101B5000916149000D4A2032118114E001210903ED
:101B60000A4A20321181490011814900074A9161D6
:101B700009E001210903054A203211814900118140
:101B80004900118100BF00BF7047000000040048F9
:101B9000FEF7DAFCFEF7FAFEFEF708FDFEF76AFE36
:101BA000FEF79CFEFEF71EFEFEF7C2FCFF20F5309E
:101BB0002549088001E0FEF743FBFEF743FF0028BC
:101BC000F9D13FE0FEF73CFBFFF792FCFFF702FE86
:101BD0001E4800784006C00F002801D1FEF7D2FA57
:101BE0001B48008800282BD1FF20C13019490880EC
:101BF00000201949087015480078042188431349CA
:101C000008700120C00315490881C01014490881DB
:101C1000124908814000088140000881FEF7F6FB68
:101C20000A4800782021884308490870084600784F
:101C300010218843054908700120400309490881A3
:101C4000FEF788FFBEE700000A0000200500002024
:101C50003800002000000020290000202004004857
:101C600020000048200800488178002925D0174925
:101C70000322120289180278921092008958027881
:101C80009207D30EFF229A40914342789207120E98
:101C900003789B07DB0E9A4011430C4A03231B0277
:101CA000D21803789B109B00D1500178CA06D20E3F
:101CB00001219140054A116007E00178CA06D20E61
:101CC00001219140014A80321160704700E100E03B
:101CD000FEB5044600250020029000270026019052
:101CE0000090404840680C2108400546002D04D073
:101CF000042D05D0082D2BD105E03B4820602AE0BB
:101D00003948206027E0374840680F21890408409F
:101D10000646344840680321C90308400190B00CCE
:101D2000861C0198002804D1304630494843009071
:101D30000BE02C48C06A0007000F401C02902A48A4
:101D40000299FEF7D1F9704300900098206002E0FC
:101D50002548206000BF00BF22484068F0210840AD
:101D600005462D092248475D2068F84060601D48FF
:101D7000406807210902084005462D0A1C48475DB6
:101D80006068F840A0601748006B102108401028D8
:101D900002D01548E06001E02068E0601148006B67
:101DA0008007800F002802D1A068206119E00D484B
:101DB000006B8007800F012802D12068206110E0AD
:101DC0000848006B8007800F022802D18003206141
:101DD00007E00448006B8007800F032801D1024808
:101DE0002061FEBD0010024000127A0000093D0093
:101DF000760000201948006801210843174908604F
:101E0000084640681649084014494860084600687A
:101E100014490840114908600846006801218904F6
:101E200088430E490860084640687F21C9038843FB
:101E30000A4948600846C06A00090001C8620846AD
:101E4000006B13218843054908630846406B40082E
:101E50004000486300208860704700000010024086
:101E60000CB8FF00FFFFF6FE03494968F0229143DA
:101E70000143014A5160704700100240044909685B
:101E8000F8229143C2001143014A116070470000DB
:101E9000001002400449496807221202914301439D
:101EA000014A516070470000001002400A4AD26A9D
:101EB0001209120103071B0F1A43074BDA621A4675
:101EC00052687B23DB039A430323DB0303400B436A
:101ED0001A43014B5A607047001002400349496899
:101EE000890889000143014A51607047001002408F
:101EF00010B574480078401C724908700846007894
:101F00000A287DDB002008700921C906098AC80754
:101F1000C00F6D4909784908490001436A4A1170A8
:101F20000921C906098A02221140490849001140C5
:101F300008466549097891430143634A11700921B4
:101F4000C906098A042211408908890011400846FF
:101F50005D490978914301435B4A11705B48007801
:101F60004007400F114609784907490F88427DD044
:101F700000205749087057480088401C5549088080
:101F8000084600880F28BCDB104600784007400F49
:101F9000072844D108460088322807DB01200003C7
:101FA0004D49088140000881400008814948008867
:101FB000FF21F5318842A4DB0020464908804348D0
:101FC00000784008400040490978C907C90F084314
:101FD0003E49087008460078022188433A4909784A
:101FE0008907C90F49000222114008433749087088
:101FF000084600780421884333490978490700E0FE
:102000005EE0C90F89000422114008432F4908707F
:102010002D4909784807400FFEF71AF950E00020D3
:102020002C49088029480078400840002649097852
:10203000C907C90F084325490870084600780221DE
:102040008843214909788907C90F490002221140B4
:1020500008431E49087008460078042188431A493D
:1020600009784907C90F8900042200E00AE01140FD
:10207000084316490870144909784807400FFEF7CD
:10208000E7F81DE000201349088010480078400759
:10209000400F0D4909784907490F884210D10C4873
:1020A0000078401C0A49087008460078322807DB8F
:1020B00000200870044909784807400FFEF7C8F867
:1020C00010BD00004600002007000020080000208E
:1020D0004700002044000020200400481A4A904293
:1020E00006D001229207904202D0184A904205D1B0
:1020F000026870239A434B881A430260144A904244
:1021000006D0026803231B029A430B891A4302601C
:102110004A68C2620A8882620B4A904208D00D4A1D
:10212000904205D00C4A904202D00C4A904208D10D
:102130004A88102A03D18A7A521C026301E08A7A03
:102140000263012242617047002C014000040040FC
:1021500000100040004001400044014000480140A0
:10216000FFB5002300244B10CC07E40F056A8F0055
:102170000126BE40B54305629E0005461835AD599F
:10218000E700F326BE40B543099E3601039F3E4358
:10219000E700BE4035439E0007461837BD51056A2B
:1021A0008F000A26BE40B543012616438F00BE406D
:1021B00035430562FFBD38B505460C4620890090C1
:1021C000A388628821782846FFF7CAFFE288217831
:1021D000284600F001F838BD30B54B109C0003468E
:1021E00018331B59CC07250F0C24AC40A343CC0754
:1021F000250F1446AC4023434C10A5000446183468
:10220000635130BD30B50A4600215388602B08D198
:10221000036810242340102B03D1836A002B00D0C5
:1022200030BD1178036A8D000124AC40A3430362E2
:102230004B109C00034618331B59CC07250F732401
:10224000AC40A3435488CD072D0FAC4023434C1022
:10225000A500044618346351036A8D000324AC4082
:10226000A343148A95882C438D00AC40234303621A
:10227000154B984208D0154B984205D0144B984204
:1022800002D0144B984218D1036A8D000C24AC4044
:10229000A343548AD5882C438D00AC40234303626A
:1022A00043684D0003242402AC40A343948AD58A9A
:1022B0002C434D00AC40234343608D000346343330
:1022C000D4685C5100BFABE7002C014000400140E6
:1022D00000440140004801408162426170470000B3
:1022E00004480068002804D002480068401E0149E4
:1022F000086070473C000020012804D002280BD061
:1023000004281ED113E08021114A9161402191617E
:102310000121104A117018E080210D4A916140217D
:102320000B4A2032118102210A4A11700DE08021EE
:10233000074A20321181402111810421054A117080
:1023400003E00021034A117000BF00BF7047000086
:102350000004004827000020F0B587B004460D4671
:1023600000260027002006902068400840002060DA
:102370006068032109038843A96808436060E9682D
:1023800068680843296908432168234A11400843C3
:102390002060A06803210902884369690843A0609E
:1023A00001A8FFF795FC1D48844201D1059F00E07C
:1023B000039F20680121C903084000280AD0780043
:1023C0002968FDF791FE064678002968FDF78CFE26
:1023D000069109E038462968FDF786FE064638462C
:1023E0002968FDF781FE0691286841080698814218
:1023F00000D8761C20680121C9030840002808D0B5
:102400003007400F069030460549084006990843BA
:102410000646A68107B0F0BDF3E9FFFF0038014092
:10242000F0FF00000920C006008A102108400009C2
:1024300000281ED125480078C006C00F002818D0FB
:1024400023480078401C224908700846007832284A
:102450003ADD002008700920C006008A10210840DB
:102460000009002830D119480078884317490870BE
:102470002AE00920C006008A10210840000900282F
:102480001FD012480078C006C00F002819D110488C
:102490000078401C0E49087008460078322813DD89
:1024A000002008700920C006008A10210840000999
:1024B000002809D005480078884310300349087087
:1024C00002E000200249087070470000040000206C
:1024D0004B00002010B5FE480078C007C00F002850
:1024E0007DD0FC4800780300FEF728FE050426A4F2
:1024F000FEFDFC000020F8490860F8490880F44817
:10250000007804218843F2490870F54800780421D6
:102510008843F34908700020F2490870F2490870B6
:10252000F2480078012806D1F1480068002802D15D
:102530000120E8490870B3E2E8480088002878D113
:10254000EA480078002813D1E1480078C006C00F9F
:10255000002803D1E748E049086002E0E548DE4989
:102560000860DD480068E3494018E34908600DE071
:10257000DB4800780007C00F002804D0DF4800685F
:10258000D549086002E0DE48D34908600120D749F8
:102590000870CF480078C006C00F00282BD1D9485A
:1025A0000078022809D1CE480078102188431030E5
:1025B000CB490870FDF7F2FE14E0D24800780328FA
:1025C00010D1C7480078202188432030C4490870C2
:1025D000FF20C130CC4908800846008800E060E256
:1025E000FDF79EFF012000030921C9068861032031
:1025F000B84908700DE00120C003C4498861B4489F
:10260000007804218843001DB14908700220B149B7
:102610000870B348007804218843B1490870BC4869
:10262000007840218843BA490870FF20F530AB4953
:10263000088035E2A948008800287DD1FF20F530C8
:10264000A6490880B24800784006C00F002873D021
:102650009F4800784007C00F0028F8D0AC480078A9
:1026600040218843AA490870AA480078012802D06E
:1026700004286ED16EE000209B49087099480078CC
:10268000401C9849087008460078062860DB90488E
:102690000078C006C00F002806D19F48007810219E
:1026A00088439D49087006E09B48007810218843C4
:1026B00010309949087000208A4908700120C00331
:1026C000924920310881824800780421884380495A
:1026D00008708348007804218843814908707E4847
:1026E000006802E0DBE1C0E096E08C4940187A49DE
:1026F000086084480078022809D1794800781021C0
:102700008843103076490870FDF748FE12E07D4896
:10271000007803280ED172480078202188432030A9
:102720006F490870FF20C13077490880084600884B
:10273000FDF7F6FE012000E047E000030921C9068D
:102740008861032063490870FF20F53063490880E1
:102750003AE033E000206349087063480078401C89
:1027600061490870084600780A2826DB00200870B6
:102770000120C003654920310881C01068490881E3
:102780000020554908605248007804218843504988
:1027900008705348007804218843514908705E4806
:1027A00000782021884320305B4908700020504980
:1027B00008604E4908704749087005E00020494903
:1027C00008704949087000BF00BF434800680028EE
:1027D00021D10120C0034D4920310881C01050494A
:1027E00008813B48007804218843394908703C48F7
:1027F0000078042188433A4908700020374908804E
:10280000354908603349087038480078002802D0FC
:1028100044483749086043E130480088002823D104
:102820000120C003394988612D480078042188437C
:10283000001D2B4908702648007804218843001D9C
:102840002349087032480078402188433049087095
:1028500000202549087023490870FF20F5301F49E2
:10286000088004201B4908701AE11C4800880028D1
:102870007ED1FF20F53019490880254800784006B0
:10288000C00F002874D0124800784007C00F0028FD
:10289000F8D01F480078402188431D4908701D4822
:1028A0000078012802D0042874D174E000200E4979
:1028B00008700C480078401C0A49087008460078E7
:1028C000062866DB002008700120C0030F492BE0BA
:1028D00004000020280000200C0000201E00002022
:1028E0000500002074000020750000202900002051
:1028F0002C000020983A0000340000201000002036
:10290000881300002600002000000020000400487A
:102910000300002024000020060000209411000085
:1029200020000048E0930400203108815D480078D1
:10293000042188435B4908705B4800780421884380
:102940005949087001200003584908815648007809
:1029500040084000401C54490870554855490860DB
:10296000002055490870504800782021884300E035
:1029700059E04D49087008460078C006C00F00288D
:1029800007D0084600781021884347490870FDF7B2
:1029900087FD47E040E0002048490870484800783B
:1029A000401C47490870084600780A281FDB0020B1
:1029B00008700120C003434908813A480078042187
:1029C00088433849087038480078042188433649DC
:1029D00008703D4800782021884320303A4908702B
:1029E00000203549087033490860384908702E487E
:1029F0000078202188432C49087008460078C006DA
:102A0000C00F002807D008460078102188432649C7
:102A10000870FDF745FD05E00020284908702849A9
:102A2000087000BF00BF2A480068002836D1012086
:102A3000C003244908811B480078042188431949B0
:102A4000087019480078042188431749087000204D
:102A50001F4908601F4908800120000313490881AD
:102A600000201549087010480078202188430E493D
:102A7000087016480078002802D00D480D490860FB
:102A800009480078C006C00F002807D00648007823
:102A90001021884304490870FDF702FD00E000BFE3
:102AA00000BF10BD040000200500002020000048E9
:102AB000E09304002C000020280000207400002077
:102AC0007500002020040048060000202900002096
:102AD0000C0000201E000020F82A00080000002042
:102AE0008C00000058110008842B00088C00002086
:102AF0008404000068110008C0010000000000000C
:102B000000000000000000000000000000000000C5
:102B100000000000000000000000000000000100B4
:102B200000000000000000000000000000000000A5
:102B30000000000000000000000000FF0000000096
:102B40000000000000000000000000000000000085
:102B50000000000000000000000000000000000075
:102B60000000000000000000000000000000000065
:102B70000000010203040102030406070809000023
:042B80000000000051
:04000005080000B936
:00000001FF
