:020000040800F2
:10000000C0040020CD00000821060008D10200082D
:1000100000000000000000000000000000000000E0
:10002000000000000000000000000000650600085D
:100030000000000000000000550600083907000815
:10004000DF00000800000000DF000008DF000008FB
:10005000DF000008DF000008DF000008DF00000804
:100060000000000029020008DF000008DF0000088F
:10007000DF000008DF000008DF00000800000000CB
:10008000BD070008D908000800000000DF000008D4
:10009000DF000008DF000008DF000008DF000008C4
:1000A000DF000008DF000008DF000008DF000008B4
:1000B000DF000008DF0000080348854600F080F8F4
:1000C0000048004731140008C0040020044880475D
:1000D00004480047FEE7FEE7FEE7FEE7FEE7FEE72F
:1000E00041070008B900000830B50B460146002062
:1000F0002022012409E00D46D5409D4205D31D462E
:100100009540491B2546954040191546521E002D25
:10011000F1DC30BD70B500242546002801DA012449
:100120004042002901DA01254942FFF7DDFFAC42D8
:1001300000D04042002C00D0494270BDD2B201E054
:100140000270401C491EFBD270470022F6E710B532
:1001500013460A4604461946FFF7F0FF204610BD35
:10016000F0B51FB40646002082B005464024019138
:1001700000901BE0019922460F46304600F042F8FD
:10018000049A059B801A994110D3104619462246BD
:1001900000F028F8361A8F410197224601200021ED
:1001A000009F00F01FF838184D4100902046641E53
:1001B0000028DFDC019B00982946324607B0F0BDDD
:1001C000064C0125064E05E0E36807CC2B430C3CAA
:1001D00098471034B442F7D3FFF772FF881A00082B
:1001E000A81A000810B5202A04DB0146203A9140E5
:1001F000002010BD914020239C1A0346E340194380
:10020000904010BD10B5202A04DB0846203AD040AB
:10021000002110BD0B46D340D0402024A21A9140AB
:100220000843194610BD00001C4800680221084020
:100230004008002830D002201849486000201849A2
:10024000087013E01648007840001649095A14480F
:1002500000780E225043144A8018144A1278520033
:1002600081520F480078401C0D4908700C480078F6
:100270000528E7DB0D480078401C0C49087008464B
:100280000078072808DB0020087009480078402122
:100290008843403006490870704700000000024063
:1002A00041000020B20000206C000020400000202F
:1002B000040000200148024908607047AAAA000013
:1002C000003000400149086470470000002C0140E4
:1002D00000BFFEE710B500F0BFF90349088000F049
:1002E0003BFD00F08BFC10BD3800002010B54448E9
:1002F0004069012149040843414948610846406971
:100300000121890408433E494861084640690121AA
:10031000C90408433A494861102201210920C00656
:1003200000F0ADFE102202210920C00600F0A7FE59
:10033000102204210920C00600F0A1FE102211465F
:100340000920C00600F09BFE102220210920C006D3
:1003500000F095FE102280212A4800F090FE4B22EA
:100360000121C9020920C00600F089FE4B220121AB
:1003700009030920C00600F082FE4B2201218902F8
:10038000214800F07CFE4B220121C9021E4800F0EA
:1003900076FE4B22012109031B4800F070FE4B2220
:1003A00001214903184800F06AFE4B22012189030C
:1003B000154800F064FE4B220121C903124800F0E9
:1003C0005EFE4B2201214903104800F058FE012037
:1003D000C0030D4920310881401008814010088178
:1003E00040100881401008818000084920310881B0
:1003F00080100749088140100349886110BD000042
:1004000000100240001400480004004800080048A2
:10041000200000481FB52048406901218904084395
:100420001D4948610846C069022108431A49C8614C
:1004300001221021194800F0EFFD8B2210211748EE
:1004400000F01DFE01220F21154801F0FBF90021EB
:1004500068468180C18001210181002141810F21F5
:10046000818101A90E4801F0C6F90D4800680121FB
:1004700008430B4908600846C06802210843084940
:10048000C86010216846017000214170012181700F
:1004900000F0E8FF1FBD000000100240000400480B
:1004A000000400401FB51648C069102108431449D4
:1004B000C861144802900021684681808181C18012
:1004C00001A9114801F02AF901220F210E4801F07B
:1004D000B9F9112168460170042141700121817030
:1004E00000F0C0FF0848C068012108430649C86001
:1004F0000846006801210843034908601FBD000049
:1005000000100240E70300000010004000B587B073
:10051000182101A8FFF719FE1F48806901218903EE
:1005200008431D498861012249150920C00600F0D1
:1005300073FD012291020920C00600F06DFD8922A1
:1005400003214902D00600F09AFD00BF1248C0689E
:100550000121890308431049C8600846C068012189
:10056000890388430C49C86000BF4B20C00101903B
:10057000002002900390049006900C20059001A9A1
:10058000064801F06FF90548006801210843034956
:10059000086007B000BD00000010024000380140B4
:1005A00010B501F03DF81C480068012108431A49C4
:1005B000086008460068022108404008002827D04B
:1005C000112016490860002001F064F8002001F0B5
:1005D00077F80121C904002001F07EF80E48006878
:1005E0000121090608430C49086000BF0A48006859
:1005F000012149060840400E0028F7D0022001F0F2
:1006000083F800BF044840680C2108400828F9D14D
:10061000122001F049F810BD0010024000200240F5
:100620000B48806880210840C00900280FD0084886
:1006300000684902084306490860084680680321AB
:10064000C9020843024988600120C00588607047DC
:1006500000100240704700000148408B70470000C6
:10066000A0F7FF1F7047000010B508480088002859
:100670000BD17D200001054908800548006842082B
:100680000348016803A000F05BF910BD06000020DC
:1006900010000020436F756E74203D20256C642C83
:1006A000204379636C655F496E646578203D202541
:1006B0006C640D0A0000000011201D4908601D48EF
:1006C00040681C49486008464068486008464068E1
:1006D0007B21C903884317494860084640680521C3
:1006E000C904084313494860084600680121090607
:1006F00008431049086000BF0E4800680121490600
:1007000008400028F8D00B4840688008800009495C
:10071000486008464068022108430649486000BF17
:10072000044840680C2108400828F9D170470000AF
:10073000002002400010024010B501F087F810BD03
:1007400010B51B4800680121084319490860084694
:10075000406818490840164948600846006816492C
:10076000084013490860084600680121890488434D
:100770000F490860084640683F21090488430C4936
:1007800048600846C06A00090001C8620846006B5C
:10079000FF2154318843064908630846406B4008EE
:1007A0004000486300208860FFF786FF10BD00000E
:1007B000001002400CB8FF08FFFFF6FE10B53948E4
:1007C000006902210840400800286AD036483549AF
:1007D000086136480078002807D10846406B344944
:1007E00008800120314908705BE03048007801281A
:1007F00057D100202D4908702A48406B2D490880A8
:10080000084600882A490988884207DD2948008867
:1008100027490988401A2849088013E0254800889C
:100820002349098888420ADA214800880021C943FF
:10083000081A2049098840181F49088002E0002052
:100840001D4908801D480078401C1C490870084656
:10085000007801280AD118490988194A51430846E5
:100860001849FFF757FC184908801AE01348007828
:10087000022816D10020114908700F490988104A32
:10088000514308460F49FFF745FC104908800E48C0
:1008900000880A46128881180D48FFF73BFC0D4975
:1008A000086010BD00040040FDFF00002E00002085
:1008B0002400002026000020280000203400002012
:1008C0001027000040420F002A0000202C000020CA
:1008D000C02709003000002010B514480069C00787
:1008E000C00F002821D01248104908611148008823
:1008F000002804D00F480088401E0E4908800E488A
:100900000068002804D00C480068401E0A490860AE
:100910000A480068002804D008480068401E0749BB
:10092000086000F0FEFB00F0D1FD10BD001000409B
:10093000FEFF000006000020080000200C00002040
:100940000FB410B503A9044B044A029800F018F83C
:1009500010BC08BC04B01847F90F00085400002070
:1009600002E008C8121F08C1002AFAD17047704778
:10097000002001E001C1121F002AFBD170470000D6
:10098000FFB58FB00F460446002606E025280AD0A2
:10099000129A11999047641C761C20780028F5D192
:1009A000304613B0F0BD00250121814A009500E0DA
:1009B0000543641C23780846203B98401042F7D139
:1009C00020782E2815D1042005436078641C2A283D
:1009D0000AD101CF641C00900BE000990A22514318
:1009E00030394018641C00902078014630390929BC
:1009F000F3D920786C280ED004DC4C2813D06A2858
:100A000012D104E074280ED07A280DD10BE0012019
:100A10004005054307E00121090562780D43824244
:100A200001D16D18641C641C2078692843D006DC51
:100A30000028B5D063280BD0642804D13BE073288C
:100A40000FD075285DD0129A11999047761CADE0B1
:100A50003878694608720020487202A80190012087
:100A600003E0386801900020C0433F1D69070CD5A2
:100A7000002500E06D1C00998D420FDA8542F9DBFC
:100A80000199495D0029F5D108E0002500E06D1CC1
:100A90008542FCDB0199495D0029F8D1761907E010
:100AA000019801990078491C0191129A1199904777
:100AB0006D1EF5D27AE0002001900A216802400FF5
:100AC0000E91022809D001CFC11700290ADA0A467F
:100AD0000021404291412D2207E0FF1DFF08FF0049
:100AE00003CFF2E72A0504D52B226B461A720122A6
:100AF00003E0EA070ED02022F7E70C920BAA0B9234
:100B000018E00A200E9000216802400F019102288F
:100B100002D001CF0022F0E7FF1DFF08FF0003CF46
:100B2000F8E7019B0E9AFFF71BFB0B9B5B1E303215
:100B30000B931A7002460A43F3D10B9803A9081AC3
:100B400020300190680701D401200090009901989D
:100B5000814203DD08460199401A00E0002000258B
:100B6000009006E002A8129A405D119990476D1C12
:100B7000761C0C988542F5DB04E0129A302011991E
:100B80009047761C0099481E00900029F5DC08E08B
:100B90000B980B990078491C0B91129A1199904768
:100BA000761C0199481E01900029F1DC641CF4E6D2
:100BB0000928010030B501460020002200238C687E
:100BC0000125ED072C438C6000BF8C68E30FDB0729
:100BD000521C0F242403A24201D0002BF5D18C68B3
:100BE000E40FE407002C01D1086C00E0002030BDC8
:100BF000836A0B43836242617047000000B587B08F
:100C0000364840690321490408433449486108468D
:100C100080694915084331498861C022114609207D
:100C2000C00600F02CFAC02203212D4800F027FA5C
:100C30002C4800F06DF801A800F058F80020019051
:100C4000012069460872002003900590069001A9D2
:100C5000244800F0C7F8072240212248FFF7C8FFC8
:100C6000072280211F48FFF7C3FF0722FF21013120
:100C70001C48FFF7BDFF0722012149021948FFF771
:100C8000B7FF0722012149041648FFF7B1FF1648B4
:100C90008068012189050843134988601148FFF7DE
:100CA00089FF02210F4800F097F80E48C068012123
:100CB00008430C49C8600846806801210843094977
:100CC000886000BF07480068C007C00F0028F9D03F
:100CD000044800F013F807B000BD00000010024007
:100CE0000004004800240140002701400021016069
:100CF00001718160C16001614161704781681022AA
:100D000011438160816804221143816070470000B3
:100D10000E49884218D10E49C968421511430C4A40
:100D2000D1601146C96842159143094AD16000213A
:100D3000016041608160C1600161416105490162FA
:100D4000002181620164416070470000002401407D
:100D5000001002400000FF0F00B58DB01A48406936
:100D60000121084318494861184800F0F7F818486D
:100D70000290184803900020049005200590002060
:100D80000690802007904000089080000990202065
:100D90000A9000020B9000200C9002A90B4800F072
:100DA000FDF809216846017101214171817101A895
:100DB00000F058FB054808388068012108430349C2
:100DC000083988600DB000BD0010024008000240E4
:100DD00040240140B2000020C26802239A430A4323
:100DE000C260704710B50B795B030A681A438B68C1
:100DF0001A43CB681A430B691A434B691A43C368F9
:100E0000024C23401A43C26010BD000003D2FFFF12
:100E100000B51D480078002804D0012816D002280B
:100E200030D11FE00021084600F0B8FD174901202D
:100E300000F07EFD1648174908600120124908702D
:100E400015480068401C144908601BE0002101207F
:100E500000F0A4FD7D20C0000E49086002200A4970
:100E600008700FE00949012000F062FD0B480949B4
:100E7000086000200449087007480068401C0649C3
:100E8000086000BF00BF00BD20000020204E000011
:100E9000307500000C000020100000204871000098
:100EA0000920C006008A202108404009002823D1DB
:100EB000274800788006C00F00281DD125480078FB
:100EC000401C244908700846007832283FDD002085
:100ED00008700920C006008A202108404009002827
:100EE00035D11B480078884320301949087001200B
:100EF000C002194988612AE00920C006008A202121
:100F000008404009002822D0114800788006C00F10
:100F100000281CD00F480078401C0E490870084675
:100F20000078322813DD002008700920C006008AEE
:100F3000202108404009002809D00548007888434E
:100F4000034908700120C00203492031088170471D
:100F5000040000201F0000200004004810B50446D3
:100F600020680C4908402060002020606060A0607C
:100F7000E0600949611A084608380521FFF7B4F80E
:100F800001460F20884004494968084302494860E7
:100F900010BD0000FEFF00000000024010B500225E
:100FA000124C0B68A34203D0114C0B68A34202D130
:100FB00003231B034B6202680E4B1A400C6A8B68BA
:100FC00023430C6923434C6923438C692343CC6935
:100FD00023434C6A23438C6A23431A430260CB6841
:100FE00043600B6883604B68C36010BD28540040A9
:100FF000285800400F80FFFFC2B2064B1A8100BF85
:10100000044A203AD26980231A40D209002AF7D034
:1010100070470000203801407CB5034600200024C2
:10102000009401941C6A00945C6A019420E0CC074F
:10103000E40F002C19D0C410A4006D462D594407AC
:10104000E60E0724B440A543C410A4006E463551F3
:10105000C410A4006D462C594507EE0E1546B54048
:101060002C43C510AD006E467451441CE0B24910CB
:101070000029DCD1009C1C62019D5D627CBDF0B545
:1010800086B0002300240025039504950595C0250E
:101090001540AD090295302515402D0901950C2507
:1010A00015400095009D0C2D03D185880D4385804A
:1010B00005E0009D082D02D185888D4385801DE0C7
:1010C000CD07ED0F002D16D05E000325B5402C4353
:1010D0009507AD0F5E00B540039E354303955F0055
:1010E000029DBD40049E2E4304965F00019DBD40BD
:1010F000059E2E4305965D1CEBB249100029DFD1F9
:101100008568A543039E354385600568A543049E15
:1011100035430560C568A543059E3543C56006B0E7
:10112000F0BD10B500F0ECF800F008F800F096F80B
:1011300000F04CFCFFF7B4FE10BD000010B54248B3
:1011400000788007C00F00286DD10920C006008AF2
:10115000022108404008002865D13C480078C007BB
:10116000C00F00285FD03A480078401C384908700A
:1011700008460078322866DD002008700920C00685
:10118000008A02210840400800285CD12E480078DF
:101190008843801C2C4908702E480078401C2D493B
:1011A000087008460078022801DD002008702948F0
:1011B0000078002804D001280FD0022825D118E09B
:1011C000FF2041302449088008460088FFF77AF85C
:1011D0002148008800F0F0F824E0A0201E49088093
:1011E00008460088FFF76EF81B48008800F0E4F816
:1011F00018E000201849088008460088FFF762F8C8
:101200001548008800F0D8F80CE0FF204130124962
:10121000088008460088FFF755F80F48008800F05E
:10122000CBF800BF0FE00020094908700920C00674
:10123000008A022108404008002804D002480078B3
:1012400088430149087010BD0300002004000020FD
:101250001C000020020000200000002000B52448EF
:1012600000784007C00F002830D10920C006008A4E
:10127000042108408008002828D11E480078401C1E
:101280001C4908700846007832282FDD00200870BD
:101290000920C006008A042108408008002825D1C2
:1012A000134800788843001D1149087012480078DF
:1012B0004007C00F002804D11049012000F038FB7E
:1012C00014E00021084600F033FB0FE0002009493C
:1012D00008700920C006008A042108408008002800
:1012E00004D00348007888430149087000BD00001D
:1012F000030000201D00002004000020204E0000FC
:1013000000B52A480078C007C00F00283CD109204A
:10131000C006008AC007C00F002835D124480078D5
:10132000401C234908700846007832283CDD002024
:1013300008700920C006008AC007C00F002833D1FA
:101340001A48007840084000401C184908701948A5
:101350000078C007C00F00280BD11648007840085D
:101360004000401C134908700021012000F016FBCA
:101370001AE010480078400840000E49087000212B
:10138000084600F00BFB0FE0002009490870092017
:10139000C006008AC007C00F002805D003480078A7
:1013A000400840000149087000BD00000300002013
:1013B0001B0000200400002000281ED0A0280FD011
:1013C0000146FF394139002922D101210903174A79
:1013D00091614900154A203211814900118122E0B2
:1013E00001210903114A2032118149000F4A9161FC
:1013F00049000E4A2032118115E0012109030B4AF0
:1014000020321181490011814900084A91610AE0A6
:1014100001210903054A91614900044A20321181E2
:101420004900118100BF00BF704700000004004860
:10143000FFF7B6F8FEF75AFFFFF734F8FFF766F844
:10144000FEF7E8FFFEF746FF09E0FEF733FF04482A
:101450000068002801D1FFF7DBFCFFF705F9F4E78E
:101460000C0000208178002925D0174903221202A0
:101470008918027892109200895802789207D30E48
:10148000FF229A40914342789207120E03789B07FD
:10149000DB0E9A4011430C4A03231B02D218037837
:1014A0009B109B00D1500178CA06D20E01219140B9
:1014B000054A116007E00178CA06D20E0121914069
:1014C000014A80321160704700E100E000B5094830
:1014D00000784007C00F00280BD00748006800289C
:1014E00007D10021084600F023FA0021084600F049
:1014F00055FA00BD0400002008000020FEB5044697
:10150000002500200290002700260190009040480E
:1015100040680C2108400546002D04D0042D05D05C
:10152000082D2BD105E03B4820602AE03948206097
:1015300027E0374840680F218904084006463448B0
:1015400040680321C90308400190B00C861C019833
:10155000002804D130463049484300900BE02C4825
:10156000C06A0007000F401C02902A480299FEF74B
:10157000BBFD704300900098206002E02548206089
:1015800000BF00BF22484068F021084005462D09F1
:101590002248475D2068F84060601D484068072188
:1015A0000902084005462D0A1C48475D6068F8405E
:1015B000A0601748006B10210840102802D0154881
:1015C000E06001E02068E0601148006B8007800F58
:1015D000002802D1A068206119E00D48006B800747
:1015E000800F012802D12068206110E00848006BBC
:1015F0008007800F022802D18003206107E00448A1
:10160000006B8007800F032801D102482061FEBDD6
:101610000010024000127A0000093D004200002044
:1016200019480068012108431749086008464068C6
:1016300016490840144948600846006814490840A3
:1016400011490860084600680121890488430E4951
:101650000860084640687F21C90388430A494860FA
:101660000846C06A00090001C8620846006B1321E1
:101670008843054908630846406B400840004863BA
:101680000020886070470000001002400CB8FF0086
:10169000FFFFF6FE03494968F02291430143014AE6
:1016A000516070470010024004490968F8229143D4
:1016B000C2001143014A116070470000001002404F
:1016C000044949680722120291430143014A5160CB
:1016D00070470000001002400A4AD26A1209120143
:1016E00003071B0F1A43074BDA621A4652687B2323
:1016F000DB039A430323DB0303400B431A43014BF1
:101700005A607047001002400349496889088900FF
:101710000143014A51607047001002401A4A90424A
:1017200006D001229207904202D0184A904205D179
:10173000026870239A434B881A430260144A90420D
:1017400006D0026803231B029A430B891A430260E6
:101750004A68C2620A8882620B4A904208D00D4AE7
:10176000904205D00C4A904202D00C4A904208D1D7
:101770004A88102A03D18A7A521C026301E08A7ACD
:101780000263012242617047002C014000040040C6
:10179000001000400040014000440140004801406A
:1017A000FFB5002300244B10CC07E40F056A8F001F
:1017B0000126BE40B54305629E0005461835AD5969
:1017C000E700F326BE40B543099E3601039F3E4322
:1017D000E700BE4035439E0007461837BD51056AF5
:1017E0008F000A26BE40B543012616438F00BE4037
:1017F00035430562FFBD38B505460C46208900908B
:10180000A388628821782846FFF7CAFFE2882178FA
:10181000284600F001F838BD30B54B109C00034657
:1018200018331B59CC07250F0C24AC40A343CC071D
:10183000250F1446AC4023434C10A5000446183431
:10184000635130BD81624261704700000448006806
:10185000002804D002480068401E01490860704713
:1018600014000020F0B587B004460D46002600277E
:101870000020069020684008400020606068032136
:1018800009038843A96808436060E96868680843F9
:10189000296908432168234A114008432060A06851
:1018A00003210902884369690843A06001A8FFF782
:1018B00025FE1D48844201D1059F00E0039F20685A
:1018C0000121C903084000280AD078002968FEF7E2
:1018D0000BFC064678002968FEF706FC069109E035
:1018E00038462968FEF700FC064638462968FEF7A8
:1018F000FBFB0691286841080698814200D8761CB7
:1019000020680121C9030840002808D03007400F93
:101910000690304605490840069908430646A681C8
:1019200007B0F0BDF3E9FFFF00380140F0FF000011
:10193000002810D1134A127804239A43114B1A70CD
:101940000022114B1A600122D203104B1A8192100F
:101950000F4B1A8115E00B4A127804239A43121D8B
:10196000084B1A70084A11600122D203074B203B32
:101970009A619210064B203B9A61064A8A18064BE0
:101980001A6070470400002008000020200400486E
:1019900020080048C02709000C000020002807D1BB
:1019A0000122D202074B1A81D200074B1A8108E0AC
:1019B0000122D2020923DB069A61D200024B203BAE
:1019C0009A61704720000048200400480920C006A2
:1019D000008A102108400009002823D127480078F8
:1019E000C006C00F00281DD125480078401C24499E
:1019F00008700846007832283FDD00200870092072
:101A0000C006008A102108400009002835D11B4873
:101A1000007888431030194908700120C003194923
:101A200088612AE00920C006008A102108400009C8
:101A3000002822D011480078C006C00F00281CD012
:101A40000F480078401C0E4908700846007832287C
:101A500013DD002008700920C006008A102108400C
:101A60000009002809D00548007888430349087018
:101A70000120C00303492031088170470400002081
:101A80001E00002000040048A81A000800000020E2
:101A90005800000060090008001B000858000020E2
:101AA0006804000070090008000002000000000047
:101AB0000000000000000000000000000000000026
:101AC0000000FF0000000000000000000000000017
:101AD0000000000000000000000000000000000006
:101AE00000000000000000000000000000000102F3
:101AF00003040102030406070809000000000000B7
:04000005080000B936
:00000001FF
