:020000040800F2
:1000000048040020CD00000869060008BD02000871
:1000100000000000000000000000000000000000E0
:100020000000000000000000000000009F06000823
:1000300000000000000000009D060008690700089D
:10004000DF00000800000000DF000008DF000008FB
:10005000DF000008DF000008DF000008DF00000804
:1000600000000000DF000008DF000008DF000008DB
:10007000DF000008DF000008DF00000800000000CB
:10008000ED0700080909000800000000DF00000873
:10009000DF000008DF000008DF000008DF000008C4
:1000A000DF000008DF000008DF000008DF000008B4
:1000B000DF000008DF0000080348854600F050F824
:1000C00000480047D10F000848040020044880473A
:1000D00004480047FEE7FEE7FEE7FEE7FEE7FEE72F
:1000E00071070008B900000830B50B460146002032
:1000F0002022012409E00D46D5409D4205D31D462E
:100100009540491B2546954040191546521E002D25
:10011000F1DC30BD70B500242546002801DA012449
:100120004042002901DA01254942FFF7DDFFAC42D8
:1001300000D04042002C00D0494270BDD2B201E054
:100140000270401C491EFBD270470022F6E710B532
:1001500013460A4604461946FFF7F0FF204610BD35
:10016000064C0125064E05E0E36807CC2B430C3C0A
:1001700098471034B442F7D3FFF7A2FFB016000837
:10018000D01600080148024908607047AAAA00007A
:100190000030004010B51B4840680121C903884366
:1001A0001849486017484038006840084000154921
:1001B000403908604B22C9140920C00600F041FDF7
:1001C0000120C0020921C906886140000E4908814A
:1001D00040000881400008810C4800784008400039
:1001E0000A49087000200A4908800A4908800A491B
:1001F00008800A4908800880094908700949086090
:1002000010BD0000402C01402004004804000020E4
:100210001C0000201E0000202000002022000020E2
:10022000260000202800002010B51748008800F0A4
:10023000D3F81648006801210843144908601348A0
:10024000403040680121C9030843104940314860EB
:100250000D48008800F080FE0D48007840084000FE
:10026000401C0B49087000200A4908800A49088090
:100270000A4908800A4908800A4908800A49087022
:100280000A49086010BD000000000020002C014059
:10029000040000201C0000201E0000202000002080
:1002A000220000202400002026000020280000203A
:1002B0000149086470470000002C014000BFFEE7C0
:1002C00010B5414840690121490408433E4948614D
:1002D000084640690121890408433B4948610846B2
:1002E00040690121C90408433749486110220121AE
:1002F0000920C00600F0A5FC102202210920C0063A
:1003000000F09FFC102204210920C00600F099FC97
:10031000102211460920C00600F093FC1022202173
:100320000920C00600F08DFC10228021274800F033
:1003300088FC4B220121C9020920C00600F081FC83
:100340004B2201218902224800F07BFC4B22012133
:10035000C9021F4800F075FC4B22012109031C480B
:1003600000F06FFC4B2201214903194800F069FCA1
:100370004B2201218903164800F063FC4B22012126
:10038000C903134800F05DFC4B22012149031148C9
:1003900000F057FC0120C0030D49203108814010B6
:1003A00008814010088140100881401008818000B9
:1003B00008492031088180100921C9068861401050
:1003C0000349886110BD000000100240001400487D
:1003D000000400480008004810B58AB004461D48D3
:1003E00080690121C90208431A4988610222C9149F
:1003F0000920C00600F0F2FB9B220121C90209205E
:10040000C00600F01EFC0520C001089000216846CF
:100410008183C183818408A8817107A90E4800F0F7
:100420003FFF70216846C180012101810421418183
:10043000022181820021C182FF210131018300213B
:10044000418303218180049401A9034800F0BCFF8B
:100450000AB010BD00100240002C01401FB520481A
:1004600040690121890408431D4948610846C06963
:10047000022108431A49C86101221021194800F0DD
:10048000ADFB8B221021174800F0DBFB01220F216E
:10049000154801F003F8002168468180C1800121E0
:1004A0000181002141810F21818101A90E4800F0C5
:1004B00064FF0D480068012108430B4908600846A5
:1004C000C068022108430849C860102168460170CD
:1004D000002141700121817000F08AFD1FBD0000E4
:1004E0000010024000040048000400401FB51648F8
:1004F000C069102108431449C861144802900021C2
:10050000684681808181C18001A9114800F0C8FE40
:1005100001220F210E4800F0C1FF11216846017031
:10052000042141700121817000F062FD0848C0681B
:10053000012108430649C8600846006801210843B4
:10054000034908601FBD000000100240E7030000DF
:100550000010004000B587B0182101A8FFF7F5FD95
:100560001F4880690121890308431D4988610122D0
:1005700049150920C00600F031FB01229102092033
:10058000C00600F02BFB892203214902D00600F0AF
:1005900058FB00BF1248C068012189030843104975
:1005A000C8600846C0680121890388430C49C860B7
:1005B00000BF4B20C00101900020029003900490E6
:1005C00006900C20059001A9064800F077FF054829
:1005D0000068012108430349086007B000BD00001E
:1005E000001002400038014010B500F0DBFD1C484F
:1005F0000068012108431A49086008460068022182
:1006000008404008002827D0112016490860002023
:1006100000F002FE002000F015FE0121C9040020B8
:1006200000F01CFE0E4800680121090608430C4931
:10063000086000BF0A480068012149060840400ED2
:100640000028F7D0022000F021FE00BF04484068D7
:100650000C2108400828F9D1122000F0E7FD10BD58
:1006600000100240002002400B48806880210840B2
:10067000C00900280FD0084800684902084306490D
:100680000860084680680321C9020843024988605F
:100690000120C00588607047001002407047704715
:1006A00010B50A480078C007C00F00280CD00848D1
:1006B0000088002808D17D20C00005490880054831
:1006C000016805A000F054F910BD000004000020EE
:1006D000060000202800002046414E2052504D20A8
:1006E0003D2025640D0A000011201D4908601D48A9
:1006F00040681C49486008464068486008464068B1
:100700007B21C90388431749486008464068052192
:10071000C9040843134948600846006801210906D6
:1007200008431049086000BF0E48006801214906CF
:1007300008400028F8D00B4840688008800009492C
:10074000486008464068022108430649486000BFE7
:10075000044840680C2108400828F9D1704700007F
:10076000002002400010024010B500F09BFE10BDBA
:1007700010B51B4800680121084319490860084664
:1007800040681849084016494860084600681649FC
:10079000084013490860084600680121890488431D
:1007A0000F490860084640683F21090488430C4906
:1007B00048600846C06A00090001C8620846006B2C
:1007C000FF2154318843064908630846406B4008BE
:1007D0004000486300208860FFF786FF10BD0000DE
:1007E000001002400CB8FF08FFFFF6FE10B53948B4
:1007F000006902210840400800286AD0364835497F
:10080000086136480078002807D10846406B344913
:1008100008800120314908705BE0304800780128E9
:1008200057D100202D4908702A48406B2D49088077
:10083000084600882A490988884207DD2948008837
:1008400027490988401A2849088013E0254800886C
:100850002349098888420ADA214800880021C943CF
:10086000081A2049098840181F49088002E0002022
:100870001D4908801D480078401C1C490870084626
:10088000007801280AD118490988194A51430846B5
:100890001849FFF73FFC184908801AE01348007810
:1008A000022816D10020114908700F490988104A02
:1008B000514308460F49FFF72DFC104908800E48A8
:1008C00000880A46128881180D48FFF723FC0D495D
:1008D000086010BD00040040FDFF0000260000205D
:1008E0001C0000201E000020200000202C00002002
:1008F0001027000040420F002200002024000020AA
:10090000C02709002800002010B514480069C0075E
:10091000C00F002821D012481049086111480088F2
:10092000002804D00F480088401E0E4908800E4859
:100930000068002804D00C480068401E0A4908607E
:100940000A480068002804D008480068401E07498B
:10095000086000F0C8F900F07FFB10BD00100040F7
:10096000FEFF000006000020080000200C00002010
:100970000FB410B503A9044B044A029800F018F80C
:1009800010BC08BC04B01847BD0B00084000002094
:1009900002E008C8121F08C1002AFAD17047704748
:1009A000002001E001C1121F002AFBD170470000A6
:1009B000FFB58DB00446002506E025280AD0109A20
:1009C0000F999047641C6D1C20780028F5D12846AB
:1009D00011B0F0BD00270121484A009700E007430D
:1009E000641C23780846203B98401042F7D12078B9
:1009F0002E2817D1042007436078641C2A280CD1C4
:100A00000E98641C02C800910E900BE000990A2217
:100A1000514330394018641C009020780146303929
:100A20000929F3D920780028D1D0642808D0692872
:100A300006D075281ED0109A0F9990476D1C5BE068
:100A40000A200E99019001C90E91002802DA404255
:100A50002D2102E0390504D52B216A4611720121AE
:100A600003E0F90704D02021F7E70BAE0B910DE06E
:100A70000021FAE70A200E99019001C90E91F7E7CB
:100A80000199FFF731FB3031761E31700028F7D124
:100A900003A8801B20300190780701D5009801E061
:100AA000012000900199884201DD401A00E00020F9
:100AB0000027009006E002A8109AC05D0F999047A9
:100AC0006D1C7F1C0B988742F5DB04E0109A3020E8
:100AD0000F9990476D1C0099481E00900029F5DC85
:100AE00005E03078109A761C0F9990476D1C01999B
:100AF000481E01900029F4DC641C65E70928010008
:100B00000920C006008A202108404009002823D17E
:100B1000274800788006C00F00281DD1254800789E
:100B2000401C244908700846007832283FDD002028
:100B300008700920C006008A2021084040090028CA
:100B400035D11B48007888432030194908700120AE
:100B5000C002194988612AE00920C006008A2021C4
:100B600008404009002822D0114800788006C00FB4
:100B700000281CD00F480078401C0E490870084619
:100B80000078322813DD002008700920C006008A92
:100B9000202108404009002809D0054800788843F2
:100BA000034908700120C0020349203108817047C1
:100BB000040000201B00002000040048C2B2064BC5
:100BC0001A8100BF044A203AD26980231A40D20910
:100BD000002AF7D070470000203801407CB503465A
:100BE00000200024009401941C6A00945C6A019423
:100BF00020E0CC07E40F002C19D0C410A4006D46EF
:100C00002D594407E60E0724B440A543C410A400A0
:100C10006E463551C410A4006D462C594507EE0EA2
:100C20001546B5402C43C510AD006E467451441CAA
:100C3000E0B249100029DCD1009C1C62019D5D627C
:100C40007CBDF0B586B000230024002503950495F3
:100C50000595C0251540AD090295302515402D0993
:100C600001950C2515400095009D0C2D03D185881C
:100C70000D43858005E0009D082D02D185888D43B8
:100C800085801DE0CD07ED0F002D16D05E000325F9
:100C9000B5402C439507AD0F5E00B540039E35432C
:100CA00003955F00029DBD40049E2E4304965F00A5
:100CB000019DBD40059E2E4305965D1CEBB249107B
:100CC0000029DFD18568A543039E3543856005680B
:100CD000A543049E35430560C568A543059E35437D
:100CE000C56006B0F0BD10B500F0ECF800F008F8F3
:100CF00000F096F800F07EFCFFF702FF10BD000048
:100D000010B5424800788007C00F00286DD1092037
:100D1000C006008A022108404008002865D13C48EE
:100D20000078C007C00F00285FD03A480078401C08
:100D30003849087008460078322866DD00200870BF
:100D40000920C006008A02210840400800285CD122
:100D50002E4800788843801C2C4908702E48007863
:100D6000401C2D49087008460078022801DD00204B
:100D7000087029480078002804D001280FD00228E4
:100D800025D118E0FF20413024490880084600881A
:100D9000FFF78EFA2148008800F0DEF824E0A0205A
:100DA0001E49088008460088FFF782FA1B48008821
:100DB00000F0D2F818E000201849088008460088A2
:100DC000FFF776FA1548008800F0C6F80CE0FF201F
:100DD00041301249088008460088FFF769FA0F4839
:100DE000008800F0B9F800BF0FE000200949087042
:100DF0000920C006008A022108404008002804D0CB
:100E00000248007888430149087010BD03000020A3
:100E10000400002018000020020000200000002034
:100E200000B5244800784007C00F002830D10920C1
:100E3000C006008A042108408008002828D11E48E6
:100E40000078401C1C4908700846007832282FDDC5
:100E5000002008700920C006008A0421084080088C
:100E6000002825D1134800788843001D11490870D7
:100E7000124800784007C00F002804D11049012013
:100E800000F082FB14E00021084600F07DFB0FE03B
:100E90000020094908700920C006008A0421084082
:100EA0008008002804D0034800788843014908706E
:100EB00000BD0000030000201900002004000020F5
:100EC000204E000010B521480078C007C00F002850
:100ED0002BD10920C006008AC007C00F002824D1EA
:100EE0001B480078401C1A490870084600783228D0
:100EF0002BDD002008700920C006008AC007C00F43
:100F0000002822D11148007840084000401C0F49B9
:100F1000087010480078C007C00F002802D1FFF702
:100F200083F912E0FFF736F90FE000200849087056
:100F30000920C006008AC007C00F002805D003485A
:100F40000078400840000149087010BD03000020EF
:100F5000170000200400002000281ED0A0280FD079
:100F60000146FF394139002922D101210903174ADD
:100F700091614900154A203211814900118122E016
:100F800001210903114A2032118149000F4A916160
:100F900049000E4A2032118115E0012109030B4A54
:100FA00020321181490011814900084A91610AE00B
:100FB00001210903054A91614900044A2032118147
:100FC0004900118100BF00BF7047000000040048C5
:100FD000FFF70AFBFFF774F9FFF788FAFFF7BAFA91
:100FE000FFF73CFA03E0FFF7CDF8FFF759FBFAE70C
:100FF0008178002925D01749032212028918027826
:1010000092109200895802789207D30EFF229A40DC
:10101000914342789207120E03789B07DB0E9A40A9
:1010200011430C4A03231B02D21803789B109B0028
:10103000D1500178CA06D20E01219140054A1160B3
:1010400007E00178CA06D20E01219140014A8032A0
:101050001160704700E100E000B5074800784007E4
:10106000C00F002807D005480068002803D10021E0
:10107000084600F089FA00BD0400002008000020A6
:10108000FEB50446002500200290002700260190AE
:101090000090404840680C2108400546002D04D0CF
:1010A000042D05D0082D2BD105E03B4820602AE017
:1010B0003948206027E0374840680F2189040840FC
:1010C0000646344840680321C90308400190B00C2B
:1010D000861C0198002804D13046304948430090CE
:1010E0000BE02C48C06A0007000F401C02902A4801
:1010F0000299FEF7F9FF704300900098206002E02B
:101100002548206000BF00BF22484068F021084009
:1011100005462D092248475D2068F84060601D485B
:10112000406807210902084005462D0A1C48475D12
:101130006068F840A0601748006B10210840102834
:1011400002D01548E06001E02068E0601148006BC3
:101150008007800F002802D1A068206119E00D48A7
:10116000006B8007800F012802D12068206110E009
:101170000848006B8007800F022802D1800320619D
:1011800007E00448006B8007800F032801D1024864
:101190002061FEBD0010024000127A0000093D00EF
:1011A0002D000020194800680121084317490860F4
:1011B00008464068164908401449486008460068D7
:1011C0001449084011490860084600680121890453
:1011D00088430E490860084640687F21C903884358
:1011E0000A4948600846C06A00090001C86208460A
:1011F000006B13218843054908630846406B40088B
:1012000040004863002088607047000000100240E2
:101210000CB8FF00FFFFF6FE03494968F022914336
:101220000143014A516070470010024004490968B7
:10123000F8229143C2001143014A11607047000037
:1012400000100240044949680722120291430143F9
:10125000014A516070470000001002400A4AD26AF9
:101260001209120103071B0F1A43074BDA621A46D1
:1012700052687B23DB039A430323DB0303400B43C6
:101280001A43014B5A6070470010024003494968F5
:10129000890889000143014A5160704700100240EB
:1012A0001A4A904206D001229207904202D0184A70
:1012B000904205D1026870239A434B881A4302601A
:1012C000144A904206D0026803231B029A430B89FA
:1012D0001A4302604A68C2620A8882620B4A9042DC
:1012E00008D00D4A904205D00C4A904202D00C4AD8
:1012F000904208D14A88102A03D18A7A521C02638C
:1013000001E08A7A0263012242617047002C0140A9
:101310000004004000100040004001400044014033
:1013200000480140FFB5002300244B10CC07E40F18
:10133000056A8F000126BE40B54305629E00054642
:101340001835AD59E700F326BE40B543099E360176
:10135000039F3E43E700BE4035439E0007461837D3
:10136000BD51056A8F000A26BE40B54301261643CB
:101370008F00BE4035430562FFBD38B505460C46BB
:1013800020890090A388628821782846FFF7CAFF49
:10139000E2882178284600F001F838BD30B54B10BE
:1013A0009C00034618331B59CC07250F0C24AC4076
:1013B000A343CC07250F1446AC4023434C10A50093
:1013C00004461834635130BD30B50A4600215388B5
:1013D000602B08D1036810242340102B03D1836AAB
:1013E000002B00D030BD1178036A8D000124AC4081
:1013F000A34303624B109C00034618331B59CC07D0
:10140000250F7324AC40A3435488CD072D0FAC4067
:1014100023434C10A500044618346351036A8D0021
:101420000324AC40A343148A95882C438D00AC4020
:1014300023430362154B984208D0154B984205D0C0
:10144000144B984202D0144B984218D1036A8D0075
:101450000C24AC40A343548AD5882C438D00AC4067
:101460002343036243684D0003242402AC40A3439A
:10147000948AD58A2C434D00AC40234343608D00B1
:1014800003463433D4685C5100BFABE7002C014005
:101490000040014000440140004801408162426137
:1014A0007047000004480068002804D00248006823
:1014B000401E01490860704710000020F0B587B059
:1014C00004460D46002600270020069020684008AC
:1014D000400020606068032109038843A96808432D
:1014E0006060E96868680843296908432168234AFD
:1014F000114008432060A0680321090288436969FC
:101500000843A06001A8FFF7BBFD1D48844201D13C
:10151000059F00E0039F20680121C90308400028BF
:101520000AD078002968FEF7DFFD064678002968B2
:10153000FEF7DAFD069109E038462968FEF7D4FD8A
:10154000064638462968FEF7CFFD0691286841080F
:101550000698814200D8761C20680121C903084002
:10156000002808D03007400F069030460549084053
:10157000069908430646A68107B0F0BDF3E9FFFFD0
:1015800000380140F0FF0000002810D1134A127803
:1015900004239A43114B1A700022114B1A60012246
:1015A000D203104B1A8192100F4B1A8115E00B4A8F
:1015B000127804239A43121D084B1A70084A1160CE
:1015C0000122D203074B203B9A619210064B203B2D
:1015D0009A61064A8A18064B1A6070470400002078
:1015E000080000202004004820080048C027090007
:1015F0000C0000200920C006008A102108400009C4
:10160000002823D127480078C006C00F00281DD12C
:1016100025480078401C2449087008460078322884
:101620003FDD002008700920C006008A1021084014
:101630000009002835D11B4800788843103019492B
:1016400008700120C003194988612AE00920C006FA
:10165000008A102108400009002822D01148007893
:10166000C006C00F00281CD00F480078401C0E494F
:10167000087008460078322813DD00200870092021
:10168000C006008A102108400009002809D005483A
:1016900000788843034908700120C00303492031C2
:1016A00008817047040000201A0000200004004850
:1016B000D016000800000020440000009009000837
:1016C000141700084400002004040000A0090008CA
:1016D0000000020000000000000000000000000008
:1016E000000000000000FF000000000000000000FB
:1016F00000000000000000000000000000000000EA
:1017000000010203040102030406070809000000A7
:0417100000000000D5
:04000005080000B936
:00000001FF
