:020000040800F2
:10000000E8040020CD000008C1080008B50300087E
:1000100000000000000000000000000000000000E0
:10002000000000000000000000000000050A0008B9
:100030000000000000000000F5080008990B00080F
:10004000DF00000800000000DF000008DF000008FB
:10005000DF000008DF000008DF000008DF00000804
:1000600000000000DF000008DF000008DF000008DB
:10007000DF000008DF000008DF00000800000000CB
:100080001D0C0008390D000800000000DF0000080A
:10009000DF000008DF000008DF000008DF000008C4
:1000A000DF000008DF000008DF000008B50D0008D1
:1000B000DF000008DF0000080348854600F050F824
:1000C00000480047B9180008E804002004488047A9
:1000D00004480047FEE7FEE7FEE7FEE7FEE7FEE72F
:1000E000A10B0008B900000830B50B4601460020FE
:1000F0002022012409E00D46D5409D4205D31D462E
:100100009540491B2546954040191546521E002D25
:10011000F1DC30BD70B500242546002801DA012449
:100120004042002901DA01254942FFF7DDFFAC42D8
:1001300000D04042002C00D0494270BDD2B201E054
:100140000270401C491EFBD270470022F6E710B532
:1001500013460A4604461946FFF7F0FF204610BD35
:10016000064C0125064E05E0E36807CC2B430C3C0A
:1001700098471034B442F7D3FFF7A2FF8821000854
:10018000A821000810B50F480078C007C00F00284C
:1001900014D10D480078C007C00F00280ED10A48BE
:1001A00000780007C00F002808D1064800784008F2
:1001B0004000401C0349087000F0B2F801F018F943
:1001C00010BD000004000020050000200148024985
:1001D00008607047AAAA00000030004010B504462D
:1001E00026480078022803D1052C06DA052404E00D
:1001F00022480078012800D10024032C1CD0052CB3
:100200000ED0062C24D1FF2041301D49088008461D
:10021000008800F0C9F81A48008801F013FB2AE0B2
:10022000A020174908800846008800F0BDF814484F
:10023000008801F007FB1EE00020114908800846F5
:10024000008800F0B1F80E48008801F0FBFA12E0D7
:10025000FF2041300A490880012000030949088134
:10026000400008814000088100F010F801204003A0
:100270000549088100BF00BF10BD0000220000201A
:1002800000000020200400482008004810B51B484A
:1002900040680121C903884318494860174840381D
:1002A0000068400840001549403908604B22C914D5
:1002B0000920C00601F017FA0120C0020921C90671
:1002C000886140000E490881400008814000088193
:1002D0000C480078400840000A49087000200A498C
:1002E00008800A4908800A4908800A49088008806D
:1002F000094908700949086010BD0000402C014000
:1003000020040048040000203400002036000020B3
:10031000380000203A0000203E000020400000206D
:1003200010B51748008800F075F9164800680121DB
:100330000843144908601348403040680121C9034C
:1003400008431049403148600D48008801F07AFAAE
:100350000D48007840084000401C0B490870002000
:100360000A4908800A4908800A4908800A49088021
:100370000A4908800A4908700A49086010BD00004F
:1003800000000020002C0140040000203400002068
:1003900036000020380000203A0000203C000020F9
:1003A0003E00002040000020014908647047000022
:1003B000002C014000BFFEE710B500F01DFB034913
:1003C000088000F0F5FE00F039FE10BD4800002066
:1003D0001348406A012108431149486200BF104890
:1003E000406A0221084040080028F8D00D480E4914
:1003F000086003204860FF203930886000BF0A4849
:10040000C0680949C968022211404908084000280B
:10041000F5D10648044908600548086070470000A7
:10042000001002405555000000300040AAAA00000C
:10043000CCCC000010B56F48406901214904084345
:100440006C494861084640690121890408436949AB
:100450004861084640690121C9040843654948616B
:10046000102201210920C00601F03DF910220221CD
:100470000920C00601F037F9102204210920C00626
:1004800001F031F9102208210920C00601F02BF9F2
:10049000102211460920C00601F025F91022802102
:1004A000554801F020F94B220121C9020920C0065C
:1004B00001F019F94B22012109030920C00601F0BE
:1004C00012F94B22FF2101310920C00601F00BF97E
:1004D0004B2201218902494801F005F94B220121F3
:1004E000C902464801F0FFF84B22012109034348A5
:1004F00001F0F9F84B2201214903404801F0F3F8DB
:100500004B22012189033D4801F0EDF84B220121E6
:10051000C9033A4801F0E7F84B224021374801F07F
:10052000E2F84B228021354801F0DDF84B22012111
:100530004903334801F0D7F801204003304988616E
:100540003048007840084000401C2E4908702E4872
:1005500000788021884380302B490870042001F006
:10056000E5FC0120C00325492031088140100881A5
:10057000401008814010088140100881C0102349B4
:100580000881C0000921C906886140101B498861A3
:100590000921C906098AC807C00F1D4909784908F9
:1005A000490001431A4A11700921C906098A022229
:1005B00011404908490011400846154909789143FE
:1005C0000143134A11700921C906098A0422114006
:1005D00089088900114008460D4909789143014373
:1005E0000B4A1170114609784807400FFFF7F6FDD6
:1005F00010BD000000100240001400480004004834
:1006000000080048030000200400002020000048EB
:100610000700002010B58AB004461D4880690121FA
:10062000C90208431A4988610222C9140920C00678
:1006300001F026F89B220121C9020920C00601F021
:1006400052F80520C0010890002168468183C183CB
:10065000818408A8817107A90E4801F059FB702117
:100660006846C180012101810421418102218182EA
:100670000021C182FF210131018300214183032137
:100680008180049401A9034801F0D6FB0AB010BD93
:1006900000100240002C01401FB520484069012194
:1006A000890408431D4948610846C069022108437E
:1006B0001A49C86101221021194800F0E1FF8B227C
:1006C0001021174801F00FF801220F21154801F001
:1006D0001DFC002168468180C1800121018100212B
:1006E00041810F21818101A90E4801F07EFB0D4857
:1006F0000068012108430B4908600846C0680221D0
:1007000008430849C8601021684601700021417003
:100710000121817001F0F6F81FBD000000100240B9
:1007200000040048000400401FB51648C0691021AD
:1007300008431449C861144802900021684681802A
:100740008181C18001A9114801F0E2FA01220F2143
:100750000E4801F0DBFB1121684601700421417055
:100760000121817001F0CEF80848C06801210843DA
:100770000649C8600846006801210843034908602B
:100780001FBD000000100240E70300000010004001
:1007900000B587B0182101A8FFF7D7FC264880696B
:1007A0000121890308432449886101224915092050
:1007B000C00600F065FF012291020920C00600F08A
:1007C0005FFF892203214902D00600F08CFF00BFA1
:1007D0001948C0680121890308431749C8600846C1
:1007E000C0680121890388431349C86000BF4B20BA
:1007F000C0010190002002900390049006900C200C
:10080000059001A90D4801F0BDFB1B216846017050
:10081000042141700121817001F074F807480068DB
:100820002021084305490860084600680121084363
:100830000249086007B000BD0010024000380140C6
:1008400010B501F025F91C480068012108431A4938
:10085000086008460068022108404008002827D0A8
:10086000112016490860002001F04CF9002001F029
:100870005FF90121C904002001F066F90E48006803
:100880000121090608430C49086000BF0A480068B6
:10089000012149060840400E0028F7D0022001F04F
:1008A0006BF900BF044840680C2108400828F9D1C2
:1008B000122001F031F910BD00100240002002406A
:1008C0000B48806880210840C00900280FD00848E4
:1008D0000068490208430649086008468068032109
:1008E000C9020843024988600120C005886070473A
:1008F000001002407047000010B500F08FFC334834
:1009000000784006C00F00285DD0314800880028DC
:1009100059D12E480078402188432C490870642022
:100920002B49088007212B4800F0D4FC2A49C880B5
:10093000072128481C3000F0CDFC274948810A4691
:100940005189264A1288264B5A431046FFF7E2FB8C
:10095000244908602049C988224A12685143084640
:100960002149FFF7C1FB2149C880214800780428AC
:1009700009D10846C0881F49884204DA022001F0E4
:10098000D5FA012010BD1A48007802280AD117486C
:10099000C0887D21C900884204DA012001F0C6FA2E
:1009A0000120EFE71248007801280AD10F48C088DB
:1009B000AF218900884204DA002001F0B7FA012053
:1009C000E0E70020DEE70120DCE700000400002073
:1009D00008000020A2000020600000204800002045
:1009E000E40C00001C000020FF0F00006C00002041
:1009F00023000020A40600000148408B704700003F
:100A0000A0F7FF1F7047000010B5154800880028A8
:100A100025D11448007810218843124908707D20A0
:100A200000010F49088010A000F01CFA144801686A
:100A300014A000F017FA1748418817A000F012FA26
:100A4000144881881CA000F00DFA1248C18822A029
:100A500000F008FA0F48018927A000F003FA10BD42
:100A600008000020030000200D0A536F6674205612
:100A7000657273696F6E20312E30300D0A000000F0
:100A80004000002046616E2052504D203D202564DC
:100A90000D0A00006C00002041444320576174653A
:100AA000722050756D7020202020203D2025642864
:100AB0006D56290D0A00000041444320536F6C65B8
:100AC0006E6F69642076616C7665203D2025642810
:100AD0006D56290D0A000000414443205479706589
:100AE0004320506F776572494E20203D20256428B1
:100AF0006D56290D0A00000041444320506F776570
:100B000072204443323456202020203D2025642882
:100B10006D56290D0A00000011201D4908601D486E
:100B200040681C494860084640684860084640687C
:100B30007B21C9038843174948600846406805215E
:100B4000C9040843134948600846006801210906A2
:100B500008431049086000BF0E480068012149069B
:100B600008400028F8D00B484068800880000949F8
:100B7000486008464068022108430649486000BFB3
:100B8000044840680C2108400828F9D1704700004B
:100B9000002002400010024010B501F0BBF910BD6A
:100BA00010B51B4800680121084319490860084630
:100BB00040681849084016494860084600681649C8
:100BC00008401349086008460068012189048843E9
:100BD0000F490860084640683F21090488430C49D2
:100BE00048600846C06A00090001C8620846006BF8
:100BF000FF2154318843064908630846406B40088A
:100C00004000486300208860FFF786FF10BD0000A9
:100C1000001002400CB8FF08FFFFF6FE10B539487F
:100C2000006902210840400800286AD0364835494A
:100C3000086136480078002807D10846406B3449DF
:100C400008800120314908705BE0304800780128B5
:100C500057D100202D4908702A48406B2D49088043
:100C6000084600882A490988884207DD2948008803
:100C700027490988401A2849088013E02548008838
:100C80002349098888420ADA214800880021C9439B
:100C9000081A2049098840181F49088002E00020EE
:100CA0001D4908801D480078401C1C4908700846F2
:100CB000007801280AD118490988194A5143084681
:100CC0001849FFF727FA184908801AE013480078F6
:100CD000022816D10020114908700F490988104ACE
:100CE000514308460F49FFF715FA104908800E488E
:100CF00000880A46128881180D48FFF70BFA0D4943
:100D0000086010BD00040040FDFF00003E00002010
:100D1000340000203600002038000020440000206D
:100D20001027000040420F003A0000203C00002045
:100D3000C02709004000002010B518480069C0070E
:100D4000C00F002828D016481449086115480088AB
:100D5000002804D013480088401E12490880124819
:100D60000068002804D010480068401E0E49086042
:100D70000E480068002804D00C480068401E0B494B
:100D800008600B480088002804D009480088401EED
:100D90000749088000F0F9FC10BD00000010004079
:100DA000FEFF0000080000200C00002010000020C2
:100DB000180000202648C06920210840400900286A
:100DC00045D02348203080882249087008460078A2
:100DD000282805D0204800780007C00F002836D00A
:100DE0001D4800780821884308301B4908701948BD
:100DF00001781A4802780078401C184B187018487F
:100E0000815418460078092806DC18460078401EF0
:100E10001349085C29281AD11148407852280AD170
:100E20000F488078292806D10B4800781021884384
:100E30001030094908700020084908700849887076
:100E400008700548007808218843034908707047F6
:100E5000003801404600002003000020450000202B
:100E6000CC0000200FB410B503A9044B044A02982B
:100E700000F018F810BC08BC04B01847451400086E
:100E80005C00002002E008C8121F08C1002AFAD145
:100E900070477047002001E001C1121F002AFBD1FA
:100EA00070470000FFB58DB00446002506E02528F8
:100EB0000AD0109A0F999047641C6D1C2078002866
:100EC000F5D1284611B0F0BD00270121484A00970E
:100ED00000E00743641C23780846203B98401042FA
:100EE000F7D120782E2817D1042007436078641C9E
:100EF0002A280CD10E98641C02C800910E900BE0B9
:100F000000990A22514330394018641C009020781F
:100F1000014630390929F3D920780028D1D0642836
:100F200008D0692806D075281ED0109A0F999047CE
:100F30006D1C5BE00A200E99019001C90E910028FA
:100F400002DA40422D2102E0390504D52B216A4600
:100F50001172012103E0F90704D02021F7E70BAE5D
:100F60000B910DE00021FAE70A200E99019001C9CA
:100F70000E91F7E70199FFF7B7F83031761E31701F
:100F80000028F7D103A8801B20300190780701D5F5
:100F9000009801E0012000900199884201DD401A8B
:100FA00000E000200027009006E002A8109AC05D33
:100FB0000F9990476D1C7F1C0B988742F5DB04E06E
:100FC000109A30200F9990476D1C0099481E009090
:100FD0000029F5DC05E03078109A761C0F999047CF
:100FE0006D1C0199481E01900029F4DC641C65E722
:100FF0000928010030B501460020002200238C683A
:101000000125ED072C438C6000BF8C68E30FDB07E4
:10101000521C0F242403A24201D0002BF5D18C686E
:10102000E40FE407002C01D1086C00E0002030BD83
:10103000836A0B43836242617047000000B587B04A
:101040003B4840690321490408433949486108463F
:1010500080694915084336498861C022E02109208A
:10106000C00600F040FBC0220321324800F03BFBE9
:10107000314800F079F801A800F064F800200190F0
:10108000012069460872002003900590069001A98E
:10109000294800F009F9072220212748FFF7C8FF57
:1010A000072240212448FFF7C3FF0722802122485E
:1010B000FFF7BEFF0722FF2101311F48FFF7B8FFEE
:1010C0000722012149021C48FFF7B2FF0722012134
:1010D00049041948FFF7ACFF1848806801218905C9
:1010E0000843164988601448FFF784FF022112481C
:1010F00000F08EF81248806801210843104988608A
:101100000D48C068012108430B49C8600846806843
:10111000012108430849886000BF07480068C007EC
:10112000C00F0028F9D0044800F014F807B000BD43
:101130000010024000040048002401400027014044
:10114000000002400021016001718160C160016105
:1011500041617047816810221143816081680422D7
:1011600011438160704700000E49884218D10E4932
:10117000C968421511430C4AD1601146C96842152D
:101180009143094AD1600021016041608160C160E2
:101190000161416105490162002181620164416090
:1011A0007047000000240140001002400000FF0FC3
:1011B00000B58BB0124840690121084310494861CD
:1011C000104800F0C7F81048009010480190002027
:1011D000029006200390002004908020059040009B
:1011E00006908000079020200890000209900020BF
:1011F0000A906946034800F0CDF80BB000BD00002E
:10120000001002400800024040240140D6000020A7
:10121000C26802239A430A43C26070471C480068B0
:10122000022108404008002830D0022018494860B8
:1012300000201849087013E016480078400016494D
:10124000095A144800780E225043144A8018144A50
:101250001278520081520F480078401C0D490870E6
:101260000C4800780628E7DB0D480078401C0C4944
:10127000087008460078072808DB00200870094835
:1012800000784021884340300649087070470000CC
:10129000000002404B000020D60000207800002013
:1012A0004A0000200400002010B50B795B030A6897
:1012B0001A438B681A43CB681A430B691A434B696C
:1012C0001A43C368024C23401A43C26010BD000099
:1012D00003D2FFFFF8B504460E4600270025002084
:1012E0000090032E00DAF8BD00271BE0002514E073
:1012F0006800215A681C4000205A81420BDD6800BA
:10130000205A0090681C4000205A69006052691CF5
:10131000490000986052681CC5B2701EA842E7DC04
:10132000781CC7B2B742E1DB00200090012707E03C
:101330007800215A0098081880B20090781CC7B233
:10134000B01EB842F4DAB11E0098FEF7E3FE80B298
:10135000C9E7000010B5044620680C490840206029
:10136000002020606060A060E0600949611A0846C2
:1013700008380521FEF7B8FE01460F2088400449D1
:10138000496808430249486010BD0000FEFF0000A4
:101390000000024010B50022124C0B68A34203D09B
:1013A000114C0B68A34202D103231B034B6202685A
:1013B0000E4B1A400C6A8B6823430C6923434C691B
:1013C00023438C692343CC6923434C6A23438C6AAF
:1013D00023431A430260CB6843600B6883604B6809
:1013E000C36010BD28540040285800400F80FFFF04
:1013F00010B511480078002804D00120C0020F4920
:10140000886104E00120C0020C49203108810C48A9
:101410000078C007C00F00280DD007480078C0072B
:10142000C00F002805D1044800780007C00F00282D
:1014300001D0FEF72BFF10BD05000020000400487E
:1014400004000020C2B2064B1A8100BF044A203AB1
:10145000D26980231A40D209002AF7D070470000D1
:101460002038014010B5784800784006C00F0028A9
:101470007CD0754800784021884373490870072163
:101480007248FFF727FF7249088007216F480E3026
:10149000FFF720FF6E49488007216C481C30FFF79A
:1014A00019FF6B498880072168482A30FFF712FF2F
:1014B0006749C880072165483830FFF70BFF64494A
:1014C0000881072161484630FFF704FF60494881E1
:1014D0000A4651895F4A12885F4B5A431046FEF70D
:1014E00019FE5E4908605A4909885C4A12685143EE
:1014F00008465B49FEF7F8FD5A4908805449498877
:10150000564A1268514308465549FEF7EDFD5549C4
:1015100048804F498988514A1268514308465049CA
:10152000FEF7E2FD4F4988804949C9884B4A126855
:10153000514308464A49FEF7D7FD4A49C880444905
:101540000989464A1268514308464549FEF7CCFDD1
:1015500044490881084600884349884207DB4348DC
:101560000078400840004149087007E06AE03F48C1
:10157000007840084000401C3C4908703948C08849
:10158000AF21C900884203DD0320394908700CE00F
:101590003448C088AF218900884203DD02203449E5
:1015A000087002E00120324908702E480089314954
:1015B000884206DB2D480078082188432B490870B3
:1015C00006E02A4800780821884308302749087037
:1015D00024488088CA2803DB01202749087002E0DC
:1015E0000020254908701F4840880A2807DB1D484D
:1015F0004088352803DC01202049087022E0194882
:101600004088352807DB17484088872803DC0220FC
:101610001A49087016E013484088872807DB1148EC
:101620004088BB2803DC0320144908700AE00D48F9
:101630004088BB2803DB04201049087002E000202A
:101640000E49087010BD0000040000207800002042
:101650006000002048000020E40C00001C00002076
:10166000FF0F00006C000020DC05000005000020DA
:10167000220000200208000021000020200000209D
:101680007CB5034600200024009401941C6A009459
:101690005C6A019420E0CC07E40F002C19D0C41040
:1016A000A4006D462D594407E60E0724B440A54317
:1016B000C410A4006E463551C410A4006D462C59C8
:1016C0004507EE0E1546B5402C43C510AD006E46DD
:1016D0007451441CE0B249100029DCD1009C1C620A
:1016E000019D5D627CBDF0B586B00023002400251D
:1016F000039504950595C0251540AD090295302543
:1017000015402D0901950C2515400095009D0C2DC7
:1017100003D185880D43858005E0009D082D02D109
:1017200085888D4385801DE0CD07ED0F002D16D0F7
:101730005E000325B5402C439507AD0F5E00B54014
:10174000039E354303955F00029DBD40049E2E43DA
:1017500004965F00019DBD40059E2E4305965D1CCD
:10176000EBB249100029DFD18568A543039E3543BC
:1017700085600568A543049E35430560C568A5439B
:10178000059E3543C56006B0F0BD10B500F0FEF90A
:1017900000F004F800F09AFC10BD000000B52548E8
:1017A00000784007C00F002831D10920C006008A08
:1017B00008210840C008002829D11F480078401C93
:1017C0001D49087008460078322831DD0020087075
:1017D0000920C006008A08210840C008002827D137
:1017E0001448007804218843001D124908701348EA
:1017F00000784007C00F002804D11149012000F0F3
:1018000027FC15E00021084600F022FC10E0002033
:10181000094908700920C006008A08210840C0084C
:10182000002805D003480078042188430149087046
:1018300000BD000003000020300000200400002054
:10184000204E000000281ED0A0280FD00146FF39EE
:101850004139002922D101210903164A9161490029
:10186000144A203211814900118121E0012109032C
:10187000104A2032118149000E4A916149000D4AF7
:101880002032118114E0012109030A4A203211811A
:10189000490011814900074A916109E001210903CA
:1018A000044A20321181490011814900118100BF91
:1018B00000BF704700040048FEF78AFDFEF7C0FF36
:1018C000FEF7B8FDFEF730FFFEF762FFFEF7E4FE1D
:1018D000FEF772FD64200A49088001E0FEF776FCFD
:1018E000FFF70AF80028F9D109E0FEF76FFCFFF7CF
:1018F00095FCFFF7B7FDFEF745FCFFF785F8F4E729
:10190000080000208178002925D0174903221202FF
:101910008918027892109200895802789207D30EA3
:10192000FF229A40914342789207120E03789B0758
:10193000DB0E9A4011430C4A03231B02D218037892
:101940009B109B00D1500178CA06D20E0121914014
:10195000054A116007E00178CA06D20E01219140C4
:10196000014A80321160704700E100E0FEB5044694
:10197000002500200290002700260190009040489A
:1019800040680C2108400546002D04D0042D05D0E8
:10199000082D2BD105E03B4820602AE03948206023
:1019A00027E0374840680F2189040840064634483C
:1019B00040680321C90308400190B00C861C0198BF
:1019C000002804D130463049484300900BE02C48B1
:1019D000C06A0007000F401C02902A480299FEF7D7
:1019E00083FB704300900098206002E0254820604F
:1019F00000BF00BF22484068F021084005462D097D
:101A00002248475D2068F84060601D484068072113
:101A10000902084005462D0A1C48475D6068F840E9
:101A2000A0601748006B10210840102802D015480C
:101A3000E06001E02068E0601148006B8007800FE3
:101A4000002802D1A068206119E00D48006B8007D2
:101A5000800F012802D12068206110E00848006B47
:101A60008007800F022802D18003206107E004482C
:101A7000006B8007800F032801D102482061FEBD62
:101A80000010024000127A0000093D004C000020C6
:101A90001948006801210843174908600846406852
:101AA000164908401449486008460068144908402F
:101AB00011490860084600680121890488430E49DD
:101AC0000860084640687F21C90388430A49486086
:101AD0000846C06A00090001C8620846006B13216D
:101AE0008843054908630846406B40084000486346
:101AF0000020886070470000001002400CB8FF0012
:101B0000FFFFF6FE03494968F02291430143014A71
:101B1000516070470010024004490968F82291435F
:101B2000C2001143014A11607047000000100240DA
:101B3000044949680722120291430143014A516056
:101B400070470000001002400A4AD26A12091201CE
:101B500003071B0F1A43074BDA621A4652687B23AE
:101B6000DB039A430323DB0303400B431A43014B7C
:101B70005A6070470010024003494968890889008B
:101B80000143014A516070470010024010B55C48A3
:101B90000078401C5A490870084600780A2877DB0C
:101BA000002008700921C906098AC807C00F5549D5
:101BB0000978490849000143524A11700921C906B0
:101BC000098A0222114049084900114008464D493E
:101BD0000978914301434B4A11700921C906098ACA
:101BE00004221140890889001140084645490978B6
:101BF00091430143434A1170434800784007400F26
:101C0000114609784907490F884274D03F48007847
:101C1000401C3E490870084600780A286EDB1046D2
:101C20000078C007C00F002833D0084600781E286F
:101C300064DB0020087034480078400840001146FA
:101C40000978C907C90F08432F490870084600786A
:101C500002218843114609788907C90F49000222E9
:101C60001140084328490870084600780421884339
:101C7000244909784907C90F890004221140084303
:101C8000214908701F4909784807400FFEF7A6FA56
:101C900034E000201D4908701B48007840084000CF
:101CA00018490978C907C90F084317490870084639
:101CB000007802218843134909788907C90F490030
:101CC0000222114008431049087008460078042198
:101CD00088430C4909784907C90F8900042211403B
:101CE000084309490870074909784807400FFEF77B
:101CF00075FA03E0FFE700200449087010BD0000FA
:101D00002D00002006000020070000202C000020ED
:101D10001A4A904206D001229207904202D0184AF5
:101D2000904205D1026870239A434B881A4302609F
:101D3000144A904206D0026803231B029A430B897F
:101D40001A4302604A68C2620A8882620B4A904261
:101D500008D00D4A904205D00C4A904202D00C4A5D
:101D6000904208D14A88102A03D18A7A521C026311
:101D700001E08A7A0263012242617047002C01402F
:101D800000040040001000400040014000440140B9
:101D900000480140FFB5002300244B10CC07E40F9E
:101DA000056A8F000126BE40B54305629E000546C8
:101DB0001835AD59E700F326BE40B543099E3601FC
:101DC000039F3E43E700BE4035439E000746183759
:101DD000BD51056A8F000A26BE40B5430126164351
:101DE0008F00BE4035430562FFBD38B505460C4641
:101DF00020890090A388628821782846FFF7CAFFCF
:101E0000E2882178284600F001F838BD30B54B1043
:101E10009C00034618331B59CC07250F0C24AC40FB
:101E2000A343CC07250F1446AC4023434C10A50018
:101E300004461834635130BD30B50A46002153883A
:101E4000602B08D1036810242340102B03D1836A30
:101E5000002B00D030BD1178036A8D000124AC4006
:101E6000A34303624B109C00034618331B59CC0755
:101E7000250F7324AC40A3435488CD072D0FAC40ED
:101E800023434C10A500044618346351036A8D00A7
:101E90000324AC40A343148A95882C438D00AC40A6
:101EA00023430362154B984208D0154B984205D046
:101EB000144B984202D0144B984218D1036A8D00FB
:101EC0000C24AC40A343548AD5882C438D00AC40ED
:101ED0002343036243684D0003242402AC40A34320
:101EE000948AD58A2C434D00AC40234343608D0037
:101EF00003463433D4685C5100BFABE7002C01408B
:101F000000400140004401400048014081624261BC
:101F10007047000004480068002804D002480068A8
:101F2000401E01490860704724000020012804D0A9
:101F300002280BD004281BD111E080210F4A9161A7
:101F40004021916101210E4A117015E080210B4A58
:101F50009161402191610221094A11700CE08021B8
:101F6000064A9161402191610421054A117003E004
:101F70000021034A117000BF00BF704700040048F1
:101F800023000020F0B587B004460D460026002748
:101F9000002006902068400840002060606803210F
:101FA00009038843A96808436060E96868680843D2
:101FB000296908432168234A114008432060A0682A
:101FC00003210902884369690843A06001A8FFF75B
:101FD000CDFC1D48844201D1059F00E0039F20688D
:101FE0000121C903084000280AD078002968FEF7BB
:101FF0007BF8064678002968FEF776F8069109E036
:1020000038462968FEF770F8064638462968FEF714
:102010006BF80691286841080698814200D8761C22
:1020200020680121C9030840002808D03007400F6C
:102030000690304605490840069908430646A681A1
:1020400007B0F0BDF3E9FFFF00380140F0FF0000EA
:10205000002812D1174A127804239A43154B1A709C
:102060000022154B1A600122D203144B1A81D2119F
:10207000134B1A8112011A811AE00E4A12780423B6
:102080009A43121D0B4B1A700B4A11600122D203A6
:102090000A4B203B9A61D2110923DB069A61094A57
:1020A0008A18094B1A60012212030923DB069A6180
:1020B00070470000040000200C00002020040048AD
:1020C00020000048C0270900100000200920C00699
:1020D000008A102108400009002823D127480078F1
:1020E000C006C00F00281DD125480078401C244997
:1020F00008700846007832283FDD0020087009206B
:10210000C006008A102108400009002835D11B486C
:10211000007888431030194908700120C00319491C
:1021200088612AE00920C006008A102108400009C1
:10213000002822D011480078C006C00F00281CD00B
:102140000F480078401C0E49087008460078322875
:1021500013DD002008700920C006008A1021084005
:102160000009002809D00548007888430349087011
:102170000120C0030349203108817047040000207A
:102180003100002000040048A821000800000020C1
:1021900060000000840E0008082200086000002093
:1021A00088040000940E00084001000000000000B8
:1021B000000000000000000000000000000000001F
:1021C000000000000000000000000100000000000E
:1021D000000000FF00000000000000000000000000
:1021E00000000000000000000000000000000000EF
:1021F00000000000000000000102030401020304CB
:082200000607080900000000B8
:04000005080000B936
:00000001FF
