:020000040800F2
:1000000048040020CD00000871070008E90400083A
:1000100000000000000000000000000000000000E0
:10002000000000000000000000000000A70700081A
:100030000000000000000000A507000829080008D3
:10004000DF00000800000000DF000008DF000008FB
:10005000DF000008DF000008DF000008DF00000804
:1000600000000000DF000008DF000008DF000008DB
:10007000DF000008DF000008DF00000800000000CB
:10008000AD080008F109000800000000DF000008CA
:10009000DF000008DF000008DF000008DF000008C4
:1000A000DF000008DF000008DF000008DF000008B4
:1000B000DF000008DF0000080348854600F0A6F9CD
:1000C0000048004779110008480400200448804790
:1000D00004480047FEE7FEE7FEE7FEE7FEE7FEE72F
:1000E00031080008B900000830B50B460146002071
:1000F0002022012409E00D46D5409D4205D31D462E
:100100009540491B2546954040191546521E002D25
:10011000F1DC30BDF0B51FB488B00B99099800240C
:1001200048400999C00F490049080991C0070B9937
:100130000090490049080B9109990898A646084380
:100140001CD00B990A98084318D009980124400044
:10015000420D4800410D099824050003000B20437F
:1001600009900B980003000B20430B9050181C497A
:100170004018002201901446104605E00020014678
:100180000DB0F0BD032801DA034600E003239C46CE
:10019000C11A0AAE0AE05F0008ADED5B4F00F75BE5
:1001A0007D430027AA187C41491C5B1E6145F2DD96
:1001B000410004AB5A522104120C0A43240C401C87
:1001C0000828DFDB019802900099704601910090A9
:1001D000059B049A0799069800F0C6F8D0E700003E
:1001E0000DFCFFFFF0B50C465C4085B0E40FE40762
:1001F00003944C00002664085900944649080246BE
:100200000296224321D062460A431ED06200570D57
:100210004A000E032303550D012402462C492405F0
:10022000781B1B0B360B4018234326436146009076
:100230001C46501AB44103D30098401C009002E0C1
:10024000921800985B41002803DA0020014605B0AF
:10025000F0BD0020012109050746864611E06446ED
:100260001D46141BB54106D36546521BB341744667
:1002700007430C43A646CD07400849082843921877
:100280005B4105460D43EAD11046184313D0604642
:10029000194650407140084306D06046101AB341D9
:1002A00006D20122002306E000220123DB0702E040
:1002B0000122D2435310009874460105381C614155
:1002C000029C039D0019694100F041F8BFE700005E
:1002D000FD0300000EB505490291002100910A4678
:1002E0000B46019100F040F803B000BD330400005C
:1002F0004A0009030123090B1B051943094B10B5DB
:10030000520D9A4201DA002010BD064B34339A4256
:1003100003DC9A1A00F00AF810BD0349511888400E
:1003200010BD0000FF030000CDFBFFFF10B5202A29
:1003300004DB0846203AD040002110BD0B46D340D4
:10034000D0402024A21A91400843194610BD10B590
:10035000002B08DA0024401C614192185B411A43CB
:1003600001D14008400010BDF0B51FB482B0054671
:100370000C0003D0084600F073FB02E000F070FBB5
:100380002030024600902146284600F051F8049B98
:10039000059A04460F4618431143084314D01846E3
:1003A00010431BD0009840210A1A18460599FFF700
:1003B000BDFF05460E46009A0599049800F038F8EE
:1003C000084305D0012004E02046394607B0F0BDBF
:1003D0000020C11705430E432C43374300990E9864
:1003E0006305401A7905E40A00220C43FD0A0A302D
:1003F00002D500200146E9E70105101969410C9C6E
:100400000D9D00196941FFF7A2FFDFE7064C0125AA
:10041000064E05E0E36807CC2B430C3C98471034AC
:10042000B442F7D3FFF74CFE6415000884150008AA
:1004300010B5202A04DB0146203A9140002010BD6F
:10044000914020239C1A0346E3401943904010BD7D
:1004500010B5114840680121C90388430E4948601E
:100460000D4840380068400840000B49403908609A
:100470004B22C9140920C00600F061FC0120C00213
:100480000921C906886140000449088140000881AB
:100490004000088110BD0000402C014020040048AD
:1004A00010B50C48008800F0ADF80B480068012139
:1004B0000843094908600848403040680121C903E1
:1004C00008430549403148600248008800F018FEA2
:1004D00010BD000000000020002C0140014908640C
:1004E00070470000002C014000BFFEE710B54148F6
:1004F00040690121490408433E4948610846406972
:100500000121890408433B494861084640690121AB
:10051000C904084337494861102201210920C00657
:1005200000F00DFC102202210920C00600F007FC9B
:10053000102204210920C00600F001FC10221146FF
:100540000920C00600F0FBFB102220210920C00674
:1005500000F0F5FB10228021274800F0F0FB4B2231
:100560000121C9020920C00600F0E9FB4B2201214C
:100570008902224800F0E3FB4B220121C9021F48F7
:1005800000F0DDFB4B22012109031C4800F0D7FBE2
:100590004B2201214903194800F0D1FB4B220121D4
:1005A0008903164800F0CBFB4B220121C9031348F5
:1005B00000F0C5FB4B2201214903114800F0BFFBAD
:1005C0000120C0030D4920310881401008814010EE
:1005D00008814010088140100881800008492031BE
:1005E000088180100921C90688614010034988618B
:1005F00010BD000000100240001400480004004834
:100600000008004810B58AB004461D4880690121E1
:10061000C90208431A4988610222C9140920C00688
:1006200000F05AFB9B220121C9020920C00600F0FC
:1006300086FB0520C0010890002168468183C183A4
:10064000818408A8817107A90E4800F071FE70210D
:100650006846C180012101810421418102218182FA
:100660000021C182FF210131018300214183032147
:100670008180049401A9034800F09CFE0AB010BDDB
:1006800000100240002C01401FB51648C06910211F
:1006900008431449C86114480290002168468180CB
:1006A0008181C18001A9114800F042FE01220F2181
:1006B0000E4800F0E9FE11216846017004214170E6
:1006C0000121817000F062FD0848C06801210843E3
:1006D0000649C860084600680121084303490860CC
:1006E0001FBD000000100240E703000000100040A2
:1006F00010B500F09FFD1C480068012108431A490D
:10070000086008460068022108404008002827D0F9
:10071000112016490860002000F0C6FD002000F0FE
:10072000D9FD0121C904002000F0E0FD0E48006859
:100730000121090608430C49086000BF0A48006807
:10074000012149060840400E0028F7D0022000F0A1
:10075000E5FD00BF044840680C2108400828F9D195
:10076000122000F0ABFD10BD00100240002002403E
:100770000B48806880210840C00900280FD0084835
:10078000006849020843064908600846806803215A
:10079000C9020843024988600120C005886070478B
:1007A000001002407047704711201D4908601D4825
:1007B00040681C49486008464068486008464068F0
:1007C0007B21C903884317494860084640680521D2
:1007D000C904084313494860084600680121090616
:1007E00008431049086000BF0E480068012149060F
:1007F00008400028F8D00B4840688008800009496C
:10080000486008464068022108430649486000BF26
:10081000044840680C2108400828F9D170470000BE
:10082000002002400010024010B500F031FE10BD63
:1008300010B51B48006801210843194908600846A3
:10084000406818490840164948600846006816493B
:10085000084013490860084600680121890488435C
:100860000F490860084640683F21090488430C4945
:1008700048600846C06A00090001C8620846006B6B
:10088000FF2154318843064908630846406B4008FD
:100890004000486300208860FFF786FF10BD00001D
:1008A000001002400CB8FF08FFFFF6FEF8B5424802
:1008B000006902210840400800287BD03F483E499B
:1008C00008613F480078002807D10846006C3D4980
:1008D000086001203A4908706CE039480078012826
:1008E00068D13548006C38490860084600683549C9
:1008F0000968884207D93448006832490968401AB3
:100900003249086013E0304800682E49096888427F
:100910000AD22C4800682949891C081A2A49096802
:1009200040182A49086002E0002028490860284849
:100930000078401C2649087008460078012807D135
:10094000224801682348FFF7CFFB234908602EE0C7
:100950001F48007802282AD100201D4908701B4832
:1009600001681C48FFF7C0FB1C4908601A48016871
:100970000120FFF7B9FB0546184801680120FFF781
:10098000B3FB2C182046FFF7A5FC154A03C21448F8
:100990000CC800201349FFF725FC04460022124B27
:1009A000FFF7B8FB0646FFF7A3FC104908600020DC
:1009B00003490870F8BD000000040040FDFF00007E
:1009C0002C000020180000201C0000202000002027
:1009D0003C0000200024F400240000202800002017
:1009E000300000200000F03F00004E4038000020A2
:1009F00010B50F480069C007C00F002816D00D4879
:100A00000B4908610C480088002804D00A48008877
:100A1000401E0949088009480088002804D007487A
:100A20000088401E0549088000F0DBF910BD000079
:100A300000100040FEFF000006000020080000201B
:100A40000FB410B503A9044B044A029800F02EF825
:100A500010BC08BC04B01847B90C000840000020C6
:100A60002021020C01D010211046020A01D01046AC
:100A70000839020901D01046091F820801D010462A
:100A8000891E420801D0881E7047081A704702E08C
:100A900008C8121F08C1002AFAD170477047002009
:100AA00001E001C1121F002AFBD17047FFB58DB0D4
:100AB0000446002506E025280AD0109A0F99904791
:100AC000641C6D1C20780028F5D1284611B0F0BDBB
:100AD00000270121484A009700E00743641C23785F
:100AE0000846203B98401042F7D120782E2817D195
:100AF000042007436078641C2A280CD10E98641CDB
:100B000002C800910E900BE000990A22514330393F
:100B10004018641C00902078014630390929F3D927
:100B200020780028D1D0642808D0692806D07528FC
:100B30001ED0109A0F9990476D1C5BE00A200E9909
:100B4000019001C90E91002802DA40422D2102E0F5
:100B5000390504D52B216A461172012103E0F907FA
:100B600004D02021F7E70BAE0B910DE00021FAE74E
:100B70000A200E99019001C90E91F7E70199FFF73C
:100B8000B3FA3031761E31700028F7D103A8801BEC
:100B900020300190780701D5009801E001200090F5
:100BA0000199884201DD401A00E0002000270090F2
:100BB00006E002A8109AC05D0F9990476D1C7F1C3B
:100BC0000B988742F5DB04E0109A30200F9990478C
:100BD0006D1C0099481E00900029F5DC05E0307876
:100BE000109A761C0F9990476D1C0199481E019030
:100BF0000029F4DC641C65E7092801000920C0060F
:100C0000008A202108404009002823D12748007885
:100C10008006C00F00281DD125480078401C2449BB
:100C200008700846007832283FDD0020087009204F
:100C3000C006008A202108404009002835D11B4801
:100C4000007888432030194908700120C0021949F2
:100C500088612AE00920C006008A20210840400956
:100C6000002822D0114800788006C00F00281CD030
:100C70000F480078401C0E4908700846007832285A
:100C800013DD002008700920C006008A20210840DA
:100C90004009002809D005480078884303490870B6
:100CA0000120C00203492031088170470400002060
:100CB0001400002000040048C2B2064B1A8100BF95
:100CC000044A203AD26980231A40D209002AF7D078
:100CD00070470000203801407CB503460020002406
:100CE000009401941C6A00945C6A019420E0CC0793
:100CF000E40F002C19D0C410A4006D462D594407F0
:100D0000E60E0724B440A543C410A4006E46355136
:100D1000C410A4006D462C594507EE0E1546B5408B
:100D20002C43C510AD006E467451441CE0B249100E
:100D30000029DCD1009C1C62019D5D627CBDF0B588
:100D400086B0002300240025039504950595C02551
:100D50001540AD090295302515402D0901950C254A
:100D600015400095009D0C2D03D185880D4385808D
:100D700005E0009D082D02D185888D4385801DE00A
:100D8000CD07ED0F002D16D05E000325B5402C4396
:100D90009507AD0F5E00B540039E354303955F0098
:100DA000029DBD40049E2E4304965F00019DBD4000
:100DB000059E2E4305965D1CEBB249100029DFD13C
:100DC0008568A543039E354385600568A543049E59
:100DD00035430560C568A543059E3543C56006B02B
:100DE000F0BD10B500F00CF900F008F800F096F82E
:100DF00000F05AFBFFF702FF10BD000010B542489B
:100E000000788007C00F00286DD10920C006008A35
:100E1000022108404008002865D13C480078C007FE
:100E2000C00F00285FD03A480078401C384908704D
:100E300008460078322866DD002008700920C006C8
:100E4000008A02210840400800285CD12E48007822
:100E50008843801C2C4908702E480078401C2D497E
:100E6000087008460078022801DD00200870294833
:100E70000078002804D001280FD0022825D118E0DE
:100E8000FF2041302449088008460088FFF726FBF0
:100E90002148008800F034F924E0A0201E49088091
:100EA00008460088FFF71AFB1B48008800F028F965
:100EB00018E000201849088008460088FFF70EFB5C
:100EC0001548008800F01CF90CE0FF204130124961
:100ED000088008460088FFF701FB0F48008800F0F3
:100EE0000FF900BF0FE00020094908700920C00673
:100EF000008A022108404008002804D002480078F7
:100F000088430149087010BD030000200400002040
:100F1000110000200200002000000020314800786D
:100F20004007C00F00284BD10920C006008A0421C9
:100F300008408008002843D12B480078401C2A49EB
:100F400008700846007832284ADD00200870092021
:100F5000C006008A042108408008002840D12148AA
:100F600000788843001D1F4908702048007840071A
:100F7000C00F002811D11D48007804218843001DAE
:100F80001A4908701A481B4908800120C0031A49F1
:100F9000886180101949886122E014480078042192
:100FA0008843124908700020124908800120C003BC
:100FB00011492031088180101049203108810FE04B
:100FC0000020094908700920C006008A0421084051
:100FD0008008002804D0034800788843014908703D
:100FE00070470000030000201200002004000020D1
:100FF000A861000008000020000400480008004824
:1010000010B52F480078C007C00F002846D109202E
:10101000C006008AC007C00F00283FD129480078C9
:10102000401C2849087008460078322846DD002018
:1010300008700920C006008AC007C00F00283DD1F3
:101040001F48007840084000401C1D4908701E4899
:101050000078C007C00F002810D1FFF721FA1A4806
:10106000007840084000401C174908700846007886
:10107000C107C90F15A0FFF7E3FC1FE0FFF7E8F970
:1010800011480078400840000F4908700846007871
:10109000C107C90F0DA0FFF7D3FC0FE000200949DD
:1010A00008700920C006008AC007C00F002805D0BC
:1010B00003480078400840000149087010BD000056
:1010C00003000020100000200400002025642055AB
:1010D00053415254205072696E74662074686520C2
:1010E00043206C696272617279207072696E7466F5
:1010F0002066756E6374696F6E2E200D0A00000005
:1011000000281ED0A0280FD00146FF394139002900
:1011100022D101210903174A91614900154A203261
:1011200011814900118122E001210903114A203275
:10113000118149000F4A916149000E4A2032118104
:1011400015E0012109030B4A203211814900118168
:101150004900084A91610AE001210903054A9161A9
:101160004900044A203211814900118100BF00BFAB
:101170007047000000040048FFF7BAFAFFF7B6F91D
:10118000FFF782FA01E000F035F8FCE781780029EA
:1011900025D0174903221202891802789210920072
:1011A000895802789207D30EFF229A4091434278E1
:1011B0009207120E03789B07DB0E9A4011430C4AEC
:1011C00003231B02D21803789B109B00D150017897
:1011D000CA06D20E01219140054A116007E001784C
:1011E000CA06D20E01219140014A80321160704737
:1011F00000E100E00B4800784007C00F002810D045
:101200000948008800280CD106480078042188434A
:10121000044908700120C003044908818010044972
:1012200008817047040000200800002020040048C6
:101230002008004819480068012108431749086040
:101240000846406816490840144948600846006846
:1012500014490840114908600846006801218904C2
:1012600088430E490860084640687F21C9038843C7
:101270000A4948600846C06A00090001C862084679
:10128000006B13218843054908630846406B4008FA
:101290004000486300208860704700000010024052
:1012A0000CB8FF00FFFFF6FE03494968F0229143A6
:1012B0000143014A51607047001002400449096827
:1012C000F8229143C2001143014A116070470000A7
:1012D0000010024004494968072212029143014369
:1012E000014A516070470000001002400A4AD26A69
:1012F0001209120103071B0F1A43074BDA621A4641
:1013000052687B23DB039A430323DB0303400B4335
:101310001A43014B5A607047001002400349496864
:10132000890889000143014A51607047001002405A
:101330001A4A904206D001229207904202D0184ADF
:10134000904205D1026870239A434B881A43026089
:10135000144A904206D0026803231B029A430B8969
:101360001A4302604A68C2620A8882620B4A90424B
:1013700008D00D4A904205D00C4A904202D00C4A47
:10138000904208D14A88102A03D18A7A521C0263FB
:1013900001E08A7A0263012242617047002C014019
:1013A00000040040001000400040014000440140A3
:1013B0000048014030B50A4600215388602B08D10F
:1013C000036810242340102B03D1836A002B00D024
:1013D00030BD1178036A8D000124AC40A343036241
:1013E0004B109C00034618331B59CC07250F732460
:1013F000AC40A3435488CD072D0FAC4023434C1081
:10140000A500044618346351036A8D000324AC40E0
:10141000A343148A95882C438D00AC402343036278
:10142000154B984208D0154B984205D0144B984262
:1014300002D0144B984218D1036A8D000C24AC40A2
:10144000A343548AD5882C438D00AC4023430362C8
:1014500043684D0003242402AC40A343948AD58AF8
:101460002C434D00AC40234343608D00034634338E
:10147000D4685C5100BFABE7002C01400040014044
:101480000044014000480140816242617047000011
:1014900004480068002804D002480068401E014942
:1014A000086070470C0000200920C006008A102147
:1014B00008400009002823D127480078C006C00F43
:1014C00000281DD125480078401C24490870084692
:1014D000007832283FDD002008700920C006008A0D
:1014E000102108400009002835D11B4800788843A6
:1014F0001030194908700120C003194988612AE099
:101500000920C006008A102108400009002822D0C6
:1015100011480078C006C00F00281CD00F48007882
:10152000401C0E49087008460078322813DD002060
:1015300008700920C006008A102108400009002810
:1015400009D0054800788843034908700120C0038A
:101550000349203108817047040000201300002057
:10156000000400488415000800000020440000002A
:101570008E0A0008C815000844000020040400007A
:101580009E0A00084001000000000000000000006A
:10159000000000000000000000000000000000004B
:1015A000000000000000000000000000000000003B
:1015B000000000000000000000000000000000002B
:0815C000000000000000000023
:04000005080000B936
:00000001FF
