:020000040800F2
:10000000D0040020CD0000085D070008B5020008FC
:1000100000000000000000000000000000000000E0
:10002000000000000000000000000000A107000820
:1000300000000000000000009107000835090008DA
:10004000DF00000800000000DF000008DF000008FB
:10005000DF000008DF000008DF000008DF00000804
:100060000000000085010008DF000008DF00000834
:10007000DF000008DF000008DF00000800000000CB
:10008000B9090008D50A000800000000DF000008D8
:10009000DF000008DF000008DF000008DF000008C4
:1000A000DF000008DF000008DF000008510B000837
:1000B000DF000008DF0000080348854600F050F824
:1000C0000048004725180008D00400200448804755
:1000D00004480047FEE7FEE7FEE7FEE7FEE7FEE72F
:1000E0003D090008B900000830B50B460146002064
:1000F0002022012409E00D46D5409D4205D31D462E
:100100009540491B2546954040191546521E002D25
:10011000F1DC30BD70B500242546002801DA012449
:100120004042002901DA01254942FFF7DDFFAC42D8
:1001300000D04042002C00D0494270BDD2B201E054
:100140000270401C491EFBD270470022F6E710B532
:1001500013460A4604461946FFF7F0FF204610BD35
:10016000064C0125064E05E0E36807CC2B430C3C0A
:1001700098471034B442F7D3FFF7A2FFFC1E0008E3
:100180001C1F00081C480068022108404008002885
:1001900030D002201849486000201849087013E048
:1001A0001648007840001649095A144800780E2273
:1001B0005043144A8018144A1278520081520F4852
:1001C0000078401C0D4908700C4800780528E7DBD2
:1001D0000D480078401C0C49087008460078072834
:1001E00008DB00200870094800784021884340302F
:1001F00006490870704700000000024047000020D8
:10020000C0000020700000204600002004000020F4
:100210000148024908607047AAAA00000030004067
:1002200010B51748008800F043F91648006801210E
:100230000843144908601348403040680121C9034D
:1002400008431049403148600D48008801F0AEFA7B
:100250000D48007840084000401C0B490870002001
:100260000A4908800A4908800A4908800A49088022
:100270000A4908800A4908700A49086010BD000050
:1002800000000020002C014004000020300000206D
:10029000320000203400002036000020380000200A
:1002A0003A0000203C00002001490864704700002B
:1002B000002C014000BFFEE710B500F06BFA0349C7
:1002C000088000F03FFE00F087FD10BD44000020D4
:1002D0001348406A012108431149486200BF104891
:1002E000406A0221084040080028F8D00D480E4915
:1002F000086003204860FF203930886000BF0A484A
:10030000C0680949C968022211404908084000280C
:10031000F5D10648044908600548086070470000A8
:10032000001002405555000000300040AAAA00000D
:10033000CCCC000010B5574840690121490408435E
:1003400054494861084640690121890408435149DC
:100350004861084640690121C90408434D49486184
:10036000102201210920C00601F079F81022022193
:100370000920C00601F073F8102204210920C006EC
:1003800001F06DF8102211460920C00601F067F84F
:10039000102220210920C00601F061F810228021DE
:1003A0003D4801F05CF84B220121C9020920C0063A
:1003B00001F055F84B22012109030920C00601F084
:1003C0004EF84B22FF2101310920C00601F047F809
:1003D0004B2201218902314801F041F84B220121D1
:1003E000C9022E4801F03BF84B22012109032B489A
:1003F00001F035F84B2201214903284801F02FF87C
:100400004B2201218903254801F029F84B220121C3
:10041000C903224801F023F84B2240211F4801F074
:100420001EF84B2280211D4801F019F84B220121B2
:1004300049031B4801F013F8012040031849886163
:100440001848007840084000401C164908701648BB
:1004500000788021884380301349087080200F493C
:100460002031088140200881400208814010088125
:10047000401008814010088140100881C0100B49CD
:100480000881C0000921C9068861401003498861BC
:1004900010BD000000100240001400480004004895
:1004A000000800480300002004000020200000484D
:1004B00010B58AB004461D4880690121C90208436D
:1004C0001A4988610222C9140920C00600F094FF6D
:1004D0009B220121C9020920C00600F0C0FF0520AF
:1004E000C0010890002168468183C183818408A8E7
:1004F000817107A90E4801F0F1FA70216846C180A8
:100500000121018104214181022181820021C182D6
:10051000FF21013101830021418303218180049463
:1005200001A9034801F06EFB0AB010BD00100240A3
:10053000002C01401FB5204840690121890408436F
:100540001D4948610846C069022108431A49C8612B
:1005500001221021194800F04FFF8B22102117486B
:1005600000F07DFF01220F21154801F0B5FB0021AD
:1005700068468180C18001210181002141810F21D4
:10058000818101A90E4801F016FB0D480068012188
:1005900008430B4908600846C0680221084308491F
:1005A000C8601021684601700021417001218170EE
:1005B00001F050F91FBD0000001002400004004887
:1005C000000400401FB51648C069102108431449B3
:1005D000C861144802900021684681808181C180F1
:1005E00001A9114801F07AFA01220F210E4801F009
:1005F00073FB112168460170042141700121817053
:1006000001F028F90848C068012108430649C8607C
:100610000846006801210843034908601FBD000027
:1006200000100240E70300000010004000B587B052
:10063000182101A8FFF789FD264880690121890357
:10064000084324498861012249150920C00600F0A9
:10065000D3FE012291020920C00600F0CDFE8922BE
:1006600003214902D00600F0FAFE00BF1948C06815
:100670000121890308431749C8600846C068012161
:10068000890388431349C86000BF4B20C001019013
:10069000002002900390049006900C20059001A980
:1006A0000D4801F029FB1B216846017004214170AF
:1006B0000121817001F0CEF807480068202108432D
:1006C000054908600846006801210843024908609E
:1006D00007B000BD001002400038014010B501F025
:1006E0007FF91C480068012108431A490860084640
:1006F0000068022108404008002827D01120164930
:100700000860002001F0A6F9002001F0B9F90121EC
:10071000C904002001F0C0F90E4800680121090653
:1007200008430C49086000BF0A48006801214906D7
:100730000840400E0028F7D0022001F0C5F900BFA4
:10074000044840680C2108400828F9D1122001F023
:100750008BF910BD00100240002002400B48806859
:1007600080210840C00900280FD0084800684902CD
:10077000084306490860084680680321C902084307
:10078000024988600120C00588607047001002405F
:10079000704700000148408B70470000A0F7FF1F22
:1007A0007047000010B515480088002825D114486E
:1007B000007810218843124908707D2000010F49FC
:1007C000088010A000F01CFA1448016814A000F082
:1007D00017FA1748018817A000F012FA1448418848
:1007E0001CA000F00DFA1248818822A000F008FA3F
:1007F0000F48C18827A000F003FA10BD06000020B2
:10080000030000200D0A536F6674205665727369E9
:100810006F6E20312E30300D0A0000003C000020A9
:1008200046616E2052504D203D2025640D0A000087
:100830006600002041444320576174657220507562
:100840006D7020202020203D202564286D56290D24
:100850000A00000041444320536F6C656E6F696469
:100860002076616C7665203D202564286D56290D23
:100870000A00000041444320547970654320506FC2
:10088000776572494E20203D202564286D56290D3C
:100890000A00000041444320506F776572204443B2
:1008A000323456202020203D202564286D56290D05
:1008B0000A00000011201D4908601D4840681C49BD
:1008C0004860084640684860084640687B21C90384
:1008D000884317494860084640680521C904084311
:1008E0001349486008460068012109060843104979
:1008F000086000BF0E480068012149060840002832
:10090000F8D00B48406880088000094948600846D4
:100910004068022108430649486000BF0448406817
:100920000C2108400828F9D170470000002002403F
:100930000010024010B501F0D3F910BD10B51B48EE
:1009400000680121084319490860084640681849B1
:10095000084016494860084600681649084013498F
:100960000860084600680121890488430F4908602F
:10097000084640683F21090488430C4948600846FE
:10098000C06A00090001C8620846006BFF215431AB
:100990008843064908630846406B400840004863A6
:1009A00000208860FFF786FF10BD000000100240A5
:1009B0000CB8FF08FFFFF6FE10B5394800690221A8
:1009C0000840400800286AD0364835490861364852
:1009D0000078002807D10846406B34490880012080
:1009E000314908705BE030480078012857D1002079
:1009F0002D4908702A48406B2D4908800846008818
:100A00002A490988884207DD29480088274909883A
:100A1000401A2849088013E025480088234909889E
:100A200088420ADA214800880021C943081A20496F
:100A3000098840181F49088002E000201D490880ED
:100A40001D480078401C1C490870084600780128A1
:100A50000AD118490988194A514308461849FFF72D
:100A600059FB184908801AE013480078022816D16B
:100A70000020114908700F490988104A514308465F
:100A80000F49FFF747FB104908800E4800880A46C7
:100A9000128881180D48FFF73DFB0D49086010BD15
:100AA00000040040FDFF00003A000020300000205C
:100AB00032000020340000204000002010270000F9
:100AC00040420F003600002038000020C0270900F7
:100AD0003C00002010B518480069C007C00F00286E
:100AE00028D016481449086115480088002804D009
:100AF00013480088401E12490880124800680028E8
:100B000004D010480068401E0E4908600E48006876
:100B1000002804D00C480068401E0B4908600B48B0
:100B20000088002804D009480088401E0749088032
:100B300000F0E7FC10BD000000100040FEFF0000C8
:100B400006000020080000200C00002014000020F7
:100B50002648C069202108404009002845D0234884
:100B6000203080882249087008460078282805D05F
:100B7000204800780007C00F002836D01D480078B4
:100B80000821884308301B490870194801781A4821
:100B900002780078401C184B187018488154184689
:100BA0000078092806DC18460078401E1349085CC6
:100BB00029281AD11148407852280AD10F48807844
:100BC000292806D10B4800781021884310300949A4
:100BD00008700020084908700849887008700548A6
:100BE00000780821884303490870704700380140A5
:100BF000420000200300002041000020B600002039
:100C00000FB410B503A9044B044A029800F018F879
:100C100010BC08BC04B0184741120008580000205E
:100C200002E008C8121F08C1002AFAD170477047B5
:100C3000002001E001C1121F002AFBD17047000013
:100C4000FFB58DB00446002506E025280AD0109A8D
:100C50000F999047641C6D1C20780028F5D1284618
:100C600011B0F0BD00270121484A009700E007437A
:100C7000641C23780846203B98401042F7D1207826
:100C80002E2817D1042007436078641C2A280CD131
:100C90000E98641C02C800910E900BE000990A2285
:100CA000514330394018641C009020780146303997
:100CB0000929F3D920780028D1D0642808D06928E0
:100CC00006D075281ED0109A0F9990476D1C5BE0D6
:100CD0000A200E99019001C90E91002802DA4042C3
:100CE0002D2102E0390504D52B216A46117201211C
:100CF00003E0F90704D02021F7E70BAE0B910DE0DC
:100D00000021FAE70A200E99019001C90E91F7E738
:100D10000199FFF7E9F93031761E31700028F7D1DB
:100D200003A8801B20300190780701D5009801E0CE
:100D3000012000900199884201DD401A00E0002066
:100D40000027009006E002A8109AC05D0F99904716
:100D50006D1C7F1C0B988742F5DB04E0109A302055
:100D60000F9990476D1C0099481E00900029F5DCF2
:100D700005E03078109A761C0F9990476D1C019908
:100D8000481E01900029F4DC641C65E70928010075
:100D900030B501460020002200238C680125ED07B4
:100DA0002C438C6000BF8C68E30FDB07521C0F24C0
:100DB0002403A24201D0002BF5D18C68E40FE40794
:100DC000002C01D1086C00E0002030BD836A0B4389
:100DD000836242617047000000B587B039484069BE
:100DE0000321490408433749486108468069491589
:100DF000084334498861C02211460920C00600F02A
:100E00002EFBC0220321304800F029FB2F4800F0C0
:100E100075F801A800F060F80020019001206946F3
:100E20000872002003900590069001A9274800F061
:100E300005F9072240212548FFF7C8FF0722802136
:100E40002248FFF7C3FF0722FF2101311F48FFF7A8
:100E5000BDFF0722012149021C48FFF7B7FF072207
:100E6000012149041948FFF7B1FF194880680121A1
:100E700089050843164988601448FFF789FF022155
:100E8000124800F08FF81348806801210843114987
:100E900088600E48C068012108430C49C8600846B4
:100EA0008068012108430949886000BF074800683D
:100EB000C007C00F0028F9D0044800F015F807B0AB
:100EC00000BD000000100240000400480024014062
:100ED0000027014000000240002101600171816093
:100EE000C1600161416170478168102211438160D6
:100EF0008168042211438160704700000E498842D6
:100F000018D10E49C968421511430C4AD1601146E7
:100F1000C96842159143094AD160002101604160CE
:100F20008160C16001614161054901620021816206
:100F3000016441607047000000240140001002403D
:100F40000000FF0F00B58BB0124840690121084333
:100F500010494861104800F025F9104800901048E9
:100F60000190002002900520039000200490802032
:100F70000590400006908000079020200890000215
:100F8000099000200A906946034800F02BF90BB045
:100F900000BD000000100240080002404024014053
:100FA000C0000020C26802239A430A43C26070470F
:100FB0001C480068022108404008002830D0022068
:100FC0001849486000201849087013E01648007856
:100FD00040001649095A144800780E225043144A1A
:100FE0008018144A1278520081520F480078401C31
:100FF0000D4908700C4800780528E7DB0D4800789B
:10100000401C0C49087008460078072808DB0020BF
:10101000087009480078402188434030064908702C
:10102000704700000000024047000020C000002080
:1010300070000020460000200400002010B50B794D
:101040005B030A681A438B681A43CB681A430B691F
:101050001A434B691A43C368024C23401A43C260C7
:1010600010BD000003D2FFFFF8B504460E4600276E
:10107000002500200090032E00DAF8BD00271BE0B9
:10108000002514E06800215A681C4000205A814263
:101090000BDD6800205A0090681C4000205A69004F
:1010A0006052691C490000986052681CC5B2701EED
:1010B000A842E7DC781CC7B2B742E1DB0020009011
:1010C000012707E07800215A0098081880B20090A4
:1010D000781CC7B2B01EB842F4DAB11E0098FFF710
:1010E00019F880B2C9E700000920C006008A202153
:1010F00008404009002823D1274800788006C00F07
:1011000000281DD125480078401C24490870084655
:10111000007832283FDD002008700920C006008AD0
:10112000202108404009002835D11B480078884319
:101130002030194908700120C002194988612AE04D
:101140000920C006008A202108404009002822D03A
:10115000114800788006C00F00281CD00F48007886
:10116000401C0E49087008460078322813DD002024
:1011700008700920C006008A202108404009002884
:1011800009D0054800788843034908700120C0024F
:101190000349203108817047040000202C00002002
:1011A0000004004810B5044620680C49084020603F
:1011B000002020606060A060E0600949611A084674
:1011C00008380521FEF790FF01460F2088400449AA
:1011D000496808430249486010BD0000FEFF000056
:1011E0000000024010B50022124C0B68A34203D04D
:1011F000114C0B68A34202D103231B034B6202680C
:101200000E4B1A400C6A8B6823430C6923434C69CC
:1012100023438C692343CC6923434C6A23438C6A60
:1012200023431A430260CB6843600B6883604B68BA
:10123000C36010BD28540040285800400F80FFFFB5
:10124000C2B2064B1A8100BF044A203AD2698023F9
:101250001A40D209002AF7D0704700002038014018
:1012600010B55A4800784006C00F00287AD0574879
:101270000078402188435549087007215448FFF7FA
:10128000F3FE54490880072151480E30FFF7ECFE69
:101290005049488007214E481C30FFF7E5FE4D4974
:1012A000888007214A482A30FFF7DEFE4949C88076
:1012B000072147483830FFF7D7FE464908810A46DC
:1012C0001189454A1288454B5A431046FEF722FFC2
:1012D000434908603F490988414A1268514308461A
:1012E0004049FEF701FF404908803A4949883C4A95
:1012F0001268514308463B49FEF7F6FE3A494880DA
:1013000034498988364A1268514308463549FEF700
:10131000EBFE354988802F49C988314A126851430C
:1013200008463049FEF7E0FE2F49C880274800787C
:10133000C007C00F00280DD10846C0882B4988423D
:1013400008DB2248007840084000401C1F49087014
:10135000FEF766FF24484088CA2804DB01202449A0
:10136000087003E031E00020214908701E48008821
:101370000A2807DB1C480088352803DC01201D49AA
:10138000087022E018480088352807DB16480088D6
:10139000872803DC02201749087016E012480088ED
:1013A000872807DB10480088BB2803DC032011498D
:1013B00008700AE00C480088BB2803DB04200D49B4
:1013C000087002E000200B49087010BD04000020E6
:1013D000700000205C00002044000020E40C0000AD
:1013E00018000020FF0F00006600002039080000F0
:1013F0001D0000201C0000207CB5034600200024B6
:10140000009401941C6A00945C6A019420E0CC076B
:10141000E40F002C19D0C410A4006D462D594407C8
:10142000E60E0724B440A543C410A4006E4635510F
:10143000C410A4006D462C594507EE0E1546B54064
:101440002C43C510AD006E467451441CE0B24910E7
:101450000029DCD1009C1C62019D5D627CBDF0B561
:1014600086B0002300240025039504950595C0252A
:101470001540AD090295302515402D0901950C2523
:1014800015400095009D0C2D03D185880D43858066
:1014900005E0009D082D02D185888D4385801DE0E3
:1014A000CD07ED0F002D16D05E000325B5402C436F
:1014B0009507AD0F5E00B540039E354303955F0071
:1014C000029DBD40049E2E4304965F00019DBD40D9
:1014D000059E2E4305965D1CEBB249100029DFD115
:1014E0008568A543039E354385600568A543049E32
:1014F00035430560C568A543059E3543C56006B004
:10150000F0BD10B500F0ECF800F008F800F096F827
:1015100000F096FCFFF7E8FD10BD000010B5424852
:1015200000788007C00F00286DD10920C006008A0E
:10153000022108404008002865D13C480078C007D7
:10154000C00F00285FD03A480078401C3849087026
:1015500008460078322866DD002008700920C006A1
:10156000008A02210840400800285CD12E480078FB
:101570008843801C2C4908702E480078401C2D4957
:10158000087008460078022801DD0020087029480C
:101590000078002804D001280FD0022825D118E0B7
:1015A000FF2041302449088008460088FEF77CFE71
:1015B0002148008800F0FAF824E0A0201E490880A5
:1015C00008460088FEF770FE1B48008800F0EEF821
:1015D00018E000201849088008460088FEF764FEDD
:1015E0001548008800F0E2F80CE0FF204130124975
:1015F000088008460088FEF757FE0F48008800F074
:10160000D5F800BF0FE00020094908700920C00686
:10161000008A022108404008002804D002480078CF
:1016200088430149087010BD030000200400002019
:1016300029000020020000200000002000B52448FE
:1016400000784007C00F002830D10920C006008A6A
:10165000042108408008002828D11E480078401C3A
:101660001C4908700846007832282FDD00200870D9
:101670000920C006008A042108408008002825D1DE
:10168000134800788843001D1149087012480078FB
:101690004007C00F002804D11049012000F092FB40
:1016A00014E00021084600F08DFB0FE000200949FE
:1016B00008700920C006008A04210840800800281C
:1016C00004D00348007888430149087000BD000039
:1016D000030000202A00002004000020204E00000B
:1016E0002D480078C007C00F002843D10920C0064C
:1016F000008AC007C00F00283CD128480078401C51
:101700002649087008460078322843DD002008701A
:101710000920C006008AC007C00F00283AD11E4821
:10172000007840084000401C1B4908701C480078A5
:10173000C00900280DD01A48007880218843184934
:1017400008700120400317490881C010164908811C
:1017500020E01348007880218843803010490870C9
:10176000012040030F4920398861C0100E492039FB
:1017700088610FE00020094908700920C006008A2E
:10178000C007C00F002805D003480078400840007B
:101790000149087070470000030000202800002065
:1017A00004000020200800482004004800281ED023
:1017B000A0280FD00146FF394139002922D101214B
:1017C0000903174A91614900154A203211814900E5
:1017D000118122E001210903114A203211814900BF
:1017E0000F4A916149000E4A2032118115E0012112
:1017F00009030B4A20321181490011814900084A2E
:1018000091610AE001210903054A91614900044AF6
:10181000203211814900118100BF00BF70470000D4
:1018200000040048FEF754FDFEF758FFFEF782FD66
:10183000FEF7C8FEFEF7FAFEFEF77CFEFEF73CFD63
:1018400007E0FEF7E5FCFFF7B3FBFFF709FDFEF746
:10185000A9FFF6E78178002925D017490322120253
:101860008918027892109200895802789207D30E54
:10187000FF229A40914342789207120E03789B0709
:10188000DB0E9A4011430C4A03231B02D218037843
:101890009B109B00D1500178CA06D20E01219140C5
:1018A000054A116007E00178CA06D20E0121914075
:1018B000014A80321160704700E100E0FEB5044645
:1018C000002500200290002700260190009040484B
:1018D00040680C2108400546002D04D0042D05D099
:1018E000082D2BD105E03B4820602AE039482060D4
:1018F00027E0374840680F218904084006463448ED
:1019000040680321C90308400190B00C861C01986F
:10191000002804D130463049484300900BE02C4861
:10192000C06A0007000F401C02902A480299FEF787
:10193000DBFB704300900098206002E025482060A7
:1019400000BF00BF22484068F021084005462D092D
:101950002248475D2068F84060601D4840680721C4
:101960000902084005462D0A1C48475D6068F8409A
:10197000A0601748006B10210840102802D01548BD
:10198000E06001E02068E0601148006B8007800F94
:10199000002802D1A068206119E00D48006B800783
:1019A000800F012802D12068206110E00848006BF8
:1019B0008007800F022802D18003206107E00448DD
:1019C000006B8007800F032801D102482061FEBD13
:1019D0000010024000127A0000093D00480000207B
:1019E0001948006801210843174908600846406803
:1019F00016490840144948600846006814490840E0
:101A000011490860084600680121890488430E498D
:101A10000860084640687F21C90388430A49486036
:101A20000846C06A00090001C8620846006B13211D
:101A30008843054908630846406B400840004863F6
:101A40000020886070470000001002400CB8FF00C2
:101A5000FFFFF6FE03494968F02291430143014A22
:101A6000516070470010024004490968F822914310
:101A7000C2001143014A116070470000001002408B
:101A8000044949680722120291430143014A516007
:101A900070470000001002400A4AD26A120912017F
:101AA00003071B0F1A43074BDA621A4652687B235F
:101AB000DB039A430323DB0303400B431A43014B2D
:101AC0005A6070470010024003494968890889003C
:101AD0000143014A51607047001002401A4A904287
:101AE00006D001229207904202D0184A904205D1B6
:101AF000026870239A434B881A430260144A90424A
:101B000006D0026803231B029A430B891A43026022
:101B10004A68C2620A8882620B4A904208D00D4A23
:101B2000904205D00C4A904202D00C4A904208D113
:101B30004A88102A03D18A7A521C026301E08A7A09
:101B40000263012242617047002C01400004004002
:101B500000100040004001400044014000480140A6
:101B6000FFB5002300244B10CC07E40F056A8F005B
:101B70000126BE40B54305629E0005461835AD59A5
:101B8000E700F326BE40B543099E3601039F3E435E
:101B9000E700BE4035439E0007461837BD51056A31
:101BA0008F000A26BE40B543012616438F00BE4073
:101BB00035430562FFBD38B505460C4620890090C7
:101BC000A388628821782846FFF7CAFFE288217837
:101BD000284600F001F838BD30B54B109C00034694
:101BE00018331B59CC07250F0C24AC40A343CC075A
:101BF000250F1446AC4023434C10A500044618346E
:101C0000635130BD30B50A4600215388602B08D19E
:101C1000036810242340102B03D1836A002B00D0CB
:101C200030BD1178036A8D000124AC40A3430362E8
:101C30004B109C00034618331B59CC07250F732407
:101C4000AC40A3435488CD072D0FAC4023434C1028
:101C5000A500044618346351036A8D000324AC4088
:101C6000A343148A95882C438D00AC402343036220
:101C7000154B984208D0154B984205D0144B98420A
:101C800002D0144B984218D1036A8D000C24AC404A
:101C9000A343548AD5882C438D00AC402343036270
:101CA00043684D0003242402AC40A343948AD58AA0
:101CB0002C434D00AC40234343608D000346343336
:101CC000D4685C5100BFABE7002C014000400140EC
:101CD00000440140004801408162426170470000B9
:101CE00004480068002804D002480068401E0149EA
:101CF0000860704720000020F0B587B004460D460C
:101D00000026002700200690206840084000206040
:101D10006068032109038843A96808436060E96893
:101D200068680843296908432168234A1140084329
:101D30002060A06803210902884369690843A06004
:101D400001A8FFF7BBFD1D48844201D1059F00E0BB
:101D5000039F20680121C903084000280AD07800A9
:101D60002968FEF7C1F9064678002968FEF7BCF934
:101D7000069109E038462968FEF7B6F90646384666
:101D80002968FEF7B1F90691286841080698814252
:101D900000D8761C20680121C9030840002808D01B
:101DA0003007400F06903046054908400699084321
:101DB0000646A68107B0F0BDF3E9FFFF00380140F9
:101DC000F0FF0000002812D1174A127804239A432A
:101DD000154B1A700022154B1A600122D203144BC6
:101DE0001A81D211134B1A8112011A811AE00E4A7C
:101DF000127804239A43121D0B4B1A700B4A116080
:101E00000122D2030A4B203B9A61D2110923DB063F
:101E10009A61094A8A18094B1A60012212030923A0
:101E2000DB069A61704700000400002008000020D3
:101E30002004004820000048C02709000C000020B2
:101E40000920C006008A102108400009002823D17B
:101E500027480078C006C00F00281DD1254800780B
:101E6000401C244908700846007832283FDD0020D5
:101E700008700920C006008A1021084000090028C7
:101E800035D11B480078884310301949087001206B
:101E9000C003194988612AE00920C006008A102180
:101EA00008400009002822D011480078C006C00F61
:101EB00000281CD00F480078401C0E4908700846C6
:101EC0000078322813DD002008700920C006008A3F
:101ED000102108400009002809D0054800788843EF
:101EE000034908700120C00303492031088170476D
:101EF000040000202B000020000400481C1F0008E4
:101F0000000000205C000000200C0008781F000882
:101F10005C00002074040000300C00084001020046
:101F200000000000000000000000000000000000B1
:101F300000000000000000000000000000000000A1
:101F4000000000FF00000000000000000000000092
:101F50000000000000000000000000000000000081
:101F6000000000000000000001020304010203045D
:081F700006070809000000004B
:04000005080000B936
:00000001FF
